{
  "contractName": "Staking",
  "abi": [
    {
      "inputs": [
        {
          "internalType": "address",
          "name": "_stakingToken",
          "type": "address"
        },
        {
          "internalType": "address",
          "name": "_rewardToken",
          "type": "address"
        }
      ],
      "payable": false,
      "stateMutability": "nonpayable",
      "type": "constructor"
    },
    {
      "anonymous": false,
      "inputs": [
        {
          "indexed": true,
          "internalType": "address",
          "name": "previousOwner",
          "type": "address"
        },
        {
          "indexed": true,
          "internalType": "address",
          "name": "newOwner",
          "type": "address"
        }
      ],
      "name": "OwnershipTransferred",
      "type": "event"
    },
    {
      "anonymous": false,
      "inputs": [
        {
          "indexed": true,
          "internalType": "address",
          "name": "_sender",
          "type": "address"
        },
        {
          "indexed": false,
          "internalType": "uint256",
          "name": "_amount",
          "type": "uint256"
        },
        {
          "indexed": false,
          "internalType": "uint256",
          "name": "_timestamp",
          "type": "uint256"
        }
      ],
      "name": "Stake",
      "type": "event"
    },
    {
      "anonymous": false,
      "inputs": [
        {
          "indexed": true,
          "internalType": "address",
          "name": "_sender",
          "type": "address"
        },
        {
          "indexed": false,
          "internalType": "uint256",
          "name": "_amount",
          "type": "uint256"
        },
        {
          "indexed": false,
          "internalType": "uint256",
          "name": "_timestamp",
          "type": "uint256"
        }
      ],
      "name": "Withdraw",
      "type": "event"
    },
    {
      "constant": true,
      "inputs": [
        {
          "internalType": "address",
          "name": "",
          "type": "address"
        }
      ],
      "name": "balanceOf",
      "outputs": [
        {
          "internalType": "uint256",
          "name": "",
          "type": "uint256"
        }
      ],
      "payable": false,
      "stateMutability": "view",
      "type": "function"
    },
    {
      "constant": true,
      "inputs": [],
      "name": "duration",
      "outputs": [
        {
          "internalType": "uint256",
          "name": "",
          "type": "uint256"
        }
      ],
      "payable": false,
      "stateMutability": "view",
      "type": "function"
    },
    {
      "constant": true,
      "inputs": [],
      "name": "finishedAt",
      "outputs": [
        {
          "internalType": "uint256",
          "name": "",
          "type": "uint256"
        }
      ],
      "payable": false,
      "stateMutability": "view",
      "type": "function"
    },
    {
      "constant": true,
      "inputs": [],
      "name": "owner",
      "outputs": [
        {
          "internalType": "address",
          "name": "",
          "type": "address"
        }
      ],
      "payable": false,
      "stateMutability": "view",
      "type": "function"
    },
    {
      "constant": true,
      "inputs": [],
      "name": "ownerAddress",
      "outputs": [
        {
          "internalType": "address",
          "name": "",
          "type": "address"
        }
      ],
      "payable": false,
      "stateMutability": "view",
      "type": "function"
    },
    {
      "constant": false,
      "inputs": [],
      "name": "renounceOwnership",
      "outputs": [],
      "payable": false,
      "stateMutability": "nonpayable",
      "type": "function"
    },
    {
      "constant": true,
      "inputs": [],
      "name": "rewardPerTokenStored",
      "outputs": [
        {
          "internalType": "uint256",
          "name": "",
          "type": "uint256"
        }
      ],
      "payable": false,
      "stateMutability": "view",
      "type": "function"
    },
    {
      "constant": true,
      "inputs": [],
      "name": "rewardRate",
      "outputs": [
        {
          "internalType": "uint256",
          "name": "",
          "type": "uint256"
        }
      ],
      "payable": false,
      "stateMutability": "view",
      "type": "function"
    },
    {
      "constant": true,
      "inputs": [],
      "name": "rewardToken",
      "outputs": [
        {
          "internalType": "contract IERC20",
          "name": "",
          "type": "address"
        }
      ],
      "payable": false,
      "stateMutability": "view",
      "type": "function"
    },
    {
      "constant": true,
      "inputs": [
        {
          "internalType": "address",
          "name": "",
          "type": "address"
        }
      ],
      "name": "rewards",
      "outputs": [
        {
          "internalType": "uint256",
          "name": "",
          "type": "uint256"
        }
      ],
      "payable": false,
      "stateMutability": "view",
      "type": "function"
    },
    {
      "constant": true,
      "inputs": [],
      "name": "stakingToken",
      "outputs": [
        {
          "internalType": "contract IERC20",
          "name": "",
          "type": "address"
        }
      ],
      "payable": false,
      "stateMutability": "view",
      "type": "function"
    },
    {
      "constant": true,
      "inputs": [],
      "name": "totalStaked",
      "outputs": [
        {
          "internalType": "uint256",
          "name": "",
          "type": "uint256"
        }
      ],
      "payable": false,
      "stateMutability": "view",
      "type": "function"
    },
    {
      "constant": false,
      "inputs": [
        {
          "internalType": "address",
          "name": "newOwner",
          "type": "address"
        }
      ],
      "name": "transferOwnership",
      "outputs": [],
      "payable": false,
      "stateMutability": "nonpayable",
      "type": "function"
    },
    {
      "constant": true,
      "inputs": [],
      "name": "updatedAt",
      "outputs": [
        {
          "internalType": "uint256",
          "name": "",
          "type": "uint256"
        }
      ],
      "payable": false,
      "stateMutability": "view",
      "type": "function"
    },
    {
      "constant": true,
      "inputs": [
        {
          "internalType": "address",
          "name": "",
          "type": "address"
        }
      ],
      "name": "userRewardPerTokenPaid",
      "outputs": [
        {
          "internalType": "uint256",
          "name": "",
          "type": "uint256"
        }
      ],
      "payable": false,
      "stateMutability": "view",
      "type": "function"
    },
    {
      "constant": true,
      "inputs": [],
      "name": "lastTimeRewardApplicable",
      "outputs": [
        {
          "internalType": "uint256",
          "name": "",
          "type": "uint256"
        }
      ],
      "payable": false,
      "stateMutability": "view",
      "type": "function"
    },
    {
      "constant": true,
      "inputs": [],
      "name": "rewardPerToken",
      "outputs": [
        {
          "internalType": "uint256",
          "name": "",
          "type": "uint256"
        }
      ],
      "payable": false,
      "stateMutability": "view",
      "type": "function"
    },
    {
      "constant": false,
      "inputs": [
        {
          "internalType": "uint256",
          "name": "_amount",
          "type": "uint256"
        }
      ],
      "name": "stake",
      "outputs": [],
      "payable": false,
      "stateMutability": "nonpayable",
      "type": "function"
    },
    {
      "constant": false,
      "inputs": [
        {
          "internalType": "uint256",
          "name": "_amount",
          "type": "uint256"
        }
      ],
      "name": "withdraw",
      "outputs": [],
      "payable": false,
      "stateMutability": "nonpayable",
      "type": "function"
    },
    {
      "constant": true,
      "inputs": [],
      "name": "earned",
      "outputs": [
        {
          "internalType": "uint256",
          "name": "",
          "type": "uint256"
        }
      ],
      "payable": false,
      "stateMutability": "view",
      "type": "function"
    },
    {
      "constant": false,
      "inputs": [],
      "name": "claim",
      "outputs": [],
      "payable": false,
      "stateMutability": "nonpayable",
      "type": "function"
    },
    {
      "constant": false,
      "inputs": [
        {
          "internalType": "uint256",
          "name": "_duration",
          "type": "uint256"
        }
      ],
      "name": "setRewardDuration",
      "outputs": [],
      "payable": false,
      "stateMutability": "nonpayable",
      "type": "function"
    },
    {
      "constant": false,
      "inputs": [
        {
          "internalType": "uint256",
          "name": "_amount",
          "type": "uint256"
        }
      ],
      "name": "notifyRewardAmount",
      "outputs": [],
      "payable": false,
      "stateMutability": "nonpayable",
      "type": "function"
    }
  ],
  "bytecode": "0x608060405234801561001057600080fd5b5060405162002191380380620021918339818101604052604081101561003557600080fd5b81019080805190602001909291908051906020019092919050505060006100606101d560201b60201c565b9050806000806101000a81548173ffffffffffffffffffffffffffffffffffffffff021916908373ffffffffffffffffffffffffffffffffffffffff1602179055508073ffffffffffffffffffffffffffffffffffffffff16600073ffffffffffffffffffffffffffffffffffffffff167f8be0079c531659141344cd1fd0a4f28419497f9722a3daafe3b4186f6b6457e060405160405180910390a35061010c6101d560201b60201c565b600360006101000a81548173ffffffffffffffffffffffffffffffffffffffff021916908373ffffffffffffffffffffffffffffffffffffffff16021790555081600160006101000a81548173ffffffffffffffffffffffffffffffffffffffff021916908373ffffffffffffffffffffffffffffffffffffffff16021790555080600260006101000a81548173ffffffffffffffffffffffffffffffffffffffff021916908373ffffffffffffffffffffffffffffffffffffffff16021790555050506101dd565b600033905090565b611fa480620001ed6000396000f3fe608060405234801561001057600080fd5b506004361061014d5760003560e01c806380faa57d116100c3578063c0ed00c91161007c578063c0ed00c91461048a578063cd3daf9d146104b8578063d6f19262146104d6578063df136d65146104f4578063f2fde38b14610512578063f7c618c1146105565761014d565b806380faa57d14610334578063817b1cd2146103525780638b876347146103705780638da5cb5b146103c85780638f84aa0914610412578063a694fc3a1461045c5761014d565b80634e71d92d116101155780634e71d92d1461024257806370a082311461024c578063715018a6146102a457806372f702f3146102ae5780637519ab50146102f85780637b0a47ee146103165761014d565b80630700037d146101525780630fb5a6b4146101aa5780632e1a7d4d146101c85780633c6b16ab146101f657806347d54bff14610224575b600080fd5b6101946004803603602081101561016857600080fd5b81019080803573ffffffffffffffffffffffffffffffffffffffff1690602001909291905050506105a0565b6040518082815260200191505060405180910390f35b6101b26105b8565b6040518082815260200191505060405180910390f35b6101f4600480360360208110156101de57600080fd5b81019080803590602001909291905050506105be565b005b6102226004803603602081101561020c57600080fd5b81019080803590602001909291905050506109c2565b005b61022c610dbe565b6040518082815260200191505060405180910390f35b61024a610dc4565b005b61028e6004803603602081101561026257600080fd5b81019080803573ffffffffffffffffffffffffffffffffffffffff169060200190929190505050611047565b6040518082815260200191505060405180910390f35b6102ac61105f565b005b6102b66111e7565b604051808273ffffffffffffffffffffffffffffffffffffffff1673ffffffffffffffffffffffffffffffffffffffff16815260200191505060405180910390f35b61030061120d565b6040518082815260200191505060405180910390f35b61031e611213565b6040518082815260200191505060405180910390f35b61033c611219565b6040518082815260200191505060405180910390f35b61035a61122c565b6040518082815260200191505060405180910390f35b6103b26004803603602081101561038657600080fd5b81019080803573ffffffffffffffffffffffffffffffffffffffff169060200190929190505050611232565b6040518082815260200191505060405180910390f35b6103d061124a565b604051808273ffffffffffffffffffffffffffffffffffffffff1673ffffffffffffffffffffffffffffffffffffffff16815260200191505060405180910390f35b61041a611273565b604051808273ffffffffffffffffffffffffffffffffffffffff1673ffffffffffffffffffffffffffffffffffffffff16815260200191505060405180910390f35b6104886004803603602081101561047257600080fd5b8101908080359060200190929190505050611299565b005b6104b6600480360360208110156104a057600080fd5b8101908080359060200190929190505050611615565b005b6104c061175f565b6040518082815260200191505060405180910390f35b6104de6117b4565b6040518082815260200191505060405180910390f35b6104fc6118bc565b6040518082815260200191505060405180910390f35b6105546004803603602081101561052857600080fd5b81019080803573ffffffffffffffffffffffffffffffffffffffff1690602001909291905050506118c2565b005b61055e611997565b604051808273ffffffffffffffffffffffffffffffffffffffff1673ffffffffffffffffffffffffffffffffffffffff16815260200191505060405180910390f35b600b6020528060005260406000206000915090505481565b60045481565b6105c66119bd565b6105ce61175f565b6008819055506105dc611219565b600681905550600073ffffffffffffffffffffffffffffffffffffffff168173ffffffffffffffffffffffffffffffffffffffff16146106a85761061e6117b4565b600b60008373ffffffffffffffffffffffffffffffffffffffff1673ffffffffffffffffffffffffffffffffffffffff16815260200190815260200160002081905550600854600a60008373ffffffffffffffffffffffffffffffffffffffff1673ffffffffffffffffffffffffffffffffffffffff168152602001908152602001600020819055505b60008211610701576040517f08c379a0000000000000000000000000000000000000000000000000000000008152600401808060200182810382526022815260200180611e996022913960400191505060405180910390fd5b600c600061070d6119bd565b73ffffffffffffffffffffffffffffffffffffffff1673ffffffffffffffffffffffffffffffffffffffff168152602001908152602001600020548211156107a0576040517f08c379a0000000000000000000000000000000000000000000000000000000008152600401808060200182810382526029815260200180611edc6029913960400191505060405180910390fd5b600160009054906101000a900473ffffffffffffffffffffffffffffffffffffffff1673ffffffffffffffffffffffffffffffffffffffff1663a9059cbb6107e66119bd565b846040518363ffffffff1660e01b8152600401808373ffffffffffffffffffffffffffffffffffffffff1673ffffffffffffffffffffffffffffffffffffffff16815260200182815260200192505050602060405180830381600087803b15801561085057600080fd5b505af1158015610864573d6000803e3d6000fd5b505050506040513d602081101561087a57600080fd5b81019080805190602001909291905050506108fd576040517f08c379a00000000000000000000000000000000000000000000000000000000081526004018080602001828103825260208152602001807f4661696c6564207472616e7366657220746f6b656e20746f2073656e6465722e81525060200191505060405180910390fd5b81600c600061090a6119bd565b73ffffffffffffffffffffffffffffffffffffffff1673ffffffffffffffffffffffffffffffffffffffff16815260200190815260200160002060008282540392505081905550816009600082825403925050819055506109696119bd565b73ffffffffffffffffffffffffffffffffffffffff167ff279e6a1f5e320cca91135676d9cb6e44ca8a08c0b88342bcdb1144f6511b5688342604051808381526020018281526020019250505060405180910390a25050565b6109ca6119bd565b73ffffffffffffffffffffffffffffffffffffffff166000809054906101000a900473ffffffffffffffffffffffffffffffffffffffff1673ffffffffffffffffffffffffffffffffffffffff1614610a8b576040517f08c379a00000000000000000000000000000000000000000000000000000000081526004018080602001828103825260208152602001807f4f776e61626c653a2063616c6c6572206973206e6f7420746865206f776e657281525060200191505060405180910390fd5b6000610a9561175f565b600881905550610aa3611219565b600681905550600073ffffffffffffffffffffffffffffffffffffffff168173ffffffffffffffffffffffffffffffffffffffff1614610b6f57610ae56117b4565b600b60008373ffffffffffffffffffffffffffffffffffffffff1673ffffffffffffffffffffffffffffffffffffffff16815260200190815260200160002081905550600854600a60008373ffffffffffffffffffffffffffffffffffffffff1673ffffffffffffffffffffffffffffffffffffffff168152602001908152602001600020819055505b600554421115610b9957610b8e600454836119c590919063ffffffff16565b600781905550610bf5565b6000610bc4600754610bb642600554611a0f90919063ffffffff16565b611a5990919063ffffffff16565b9050610bed600454610bdf8386611adf90919063ffffffff16565b6119c590919063ffffffff16565b600781905550505b600060075411610c50576040517f08c379a0000000000000000000000000000000000000000000000000000000008152600401808060200182810382526027815260200180611e4c6027913960400191505060405180910390fd5b600260009054906101000a900473ffffffffffffffffffffffffffffffffffffffff1673ffffffffffffffffffffffffffffffffffffffff166370a08231306040518263ffffffff1660e01b8152600401808273ffffffffffffffffffffffffffffffffffffffff1673ffffffffffffffffffffffffffffffffffffffff16815260200191505060206040518083038186803b158015610cef57600080fd5b505afa158015610d03573d6000803e3d6000fd5b505050506040513d6020811015610d1957600080fd5b8101908080519060200190929190505050610d41600454600754611a5990919063ffffffff16565b1115610d98576040517f08c379a0000000000000000000000000000000000000000000000000000000008152600401808060200182810382526041815260200180611f2f6041913960600191505060405180910390fd5b610dad60045442611adf90919063ffffffff16565b600581905550426006819055505050565b60055481565b610dcc6119bd565b610dd461175f565b600881905550610de2611219565b600681905550600073ffffffffffffffffffffffffffffffffffffffff168173ffffffffffffffffffffffffffffffffffffffff1614610eae57610e246117b4565b600b60008373ffffffffffffffffffffffffffffffffffffffff1673ffffffffffffffffffffffffffffffffffffffff16815260200190815260200160002081905550600854600a60008373ffffffffffffffffffffffffffffffffffffffff1673ffffffffffffffffffffffffffffffffffffffff168152602001908152602001600020819055505b6000600b6000610ebc6119bd565b73ffffffffffffffffffffffffffffffffffffffff1673ffffffffffffffffffffffffffffffffffffffff168152602001908152602001600020549050600081111561104357600260009054906101000a900473ffffffffffffffffffffffffffffffffffffffff1673ffffffffffffffffffffffffffffffffffffffff1663a9059cbb610f486119bd565b836040518363ffffffff1660e01b8152600401808373ffffffffffffffffffffffffffffffffffffffff1673ffffffffffffffffffffffffffffffffffffffff16815260200182815260200192505050602060405180830381600087803b158015610fb257600080fd5b505af1158015610fc6573d6000803e3d6000fd5b505050506040513d6020811015610fdc57600080fd5b8101908080519060200190929190505050610ff657600080fd5b6000600b60006110046119bd565b73ffffffffffffffffffffffffffffffffffffffff1673ffffffffffffffffffffffffffffffffffffffff168152602001908152602001600020819055505b5050565b600c6020528060005260406000206000915090505481565b6110676119bd565b73ffffffffffffffffffffffffffffffffffffffff166000809054906101000a900473ffffffffffffffffffffffffffffffffffffffff1673ffffffffffffffffffffffffffffffffffffffff1614611128576040517f08c379a00000000000000000000000000000000000000000000000000000000081526004018080602001828103825260208152602001807f4f776e61626c653a2063616c6c6572206973206e6f7420746865206f776e657281525060200191505060405180910390fd5b600073ffffffffffffffffffffffffffffffffffffffff166000809054906101000a900473ffffffffffffffffffffffffffffffffffffffff1673ffffffffffffffffffffffffffffffffffffffff167f8be0079c531659141344cd1fd0a4f28419497f9722a3daafe3b4186f6b6457e060405160405180910390a360008060006101000a81548173ffffffffffffffffffffffffffffffffffffffff021916908373ffffffffffffffffffffffffffffffffffffffff160217905550565b600160009054906101000a900473ffffffffffffffffffffffffffffffffffffffff1681565b60065481565b60075481565b600061122760055442611b67565b905090565b60095481565b600a6020528060005260406000206000915090505481565b60008060009054906101000a900473ffffffffffffffffffffffffffffffffffffffff16905090565b600360009054906101000a900473ffffffffffffffffffffffffffffffffffffffff1681565b6112a16119bd565b6112a961175f565b6008819055506112b7611219565b600681905550600073ffffffffffffffffffffffffffffffffffffffff168173ffffffffffffffffffffffffffffffffffffffff1614611383576112f96117b4565b600b60008373ffffffffffffffffffffffffffffffffffffffff1673ffffffffffffffffffffffffffffffffffffffff16815260200190815260200160002081905550600854600a60008373ffffffffffffffffffffffffffffffffffffffff1673ffffffffffffffffffffffffffffffffffffffff168152602001908152602001600020819055505b600082116113dc576040517f08c379a0000000000000000000000000000000000000000000000000000000008152600401808060200182810382526022815260200180611e996022913960400191505060405180910390fd5b600160009054906101000a900473ffffffffffffffffffffffffffffffffffffffff1673ffffffffffffffffffffffffffffffffffffffff166323b872dd6114226119bd565b30856040518463ffffffff1660e01b8152600401808473ffffffffffffffffffffffffffffffffffffffff1673ffffffffffffffffffffffffffffffffffffffff1681526020018373ffffffffffffffffffffffffffffffffffffffff1673ffffffffffffffffffffffffffffffffffffffff1681526020018281526020019350505050602060405180830381600087803b1580156114c057600080fd5b505af11580156114d4573d6000803e3d6000fd5b505050506040513d60208110156114ea57600080fd5b8101908080519060200190929190505050611550576040517f08c379a000000000000000000000000000000000000000000000000000000000815260040180806020018281038252602a815260200180611f05602a913960400191505060405180910390fd5b81600c600061155d6119bd565b73ffffffffffffffffffffffffffffffffffffffff1673ffffffffffffffffffffffffffffffffffffffff16815260200190815260200160002060008282540192505081905550816009600082825401925050819055506115bc6119bd565b73ffffffffffffffffffffffffffffffffffffffff167f5af417134f72a9d41143ace85b0a26dce6f550f894f2cbc1eeee8810603d91b68342604051808381526020018281526020019250505060405180910390a25050565b61161d6119bd565b73ffffffffffffffffffffffffffffffffffffffff166000809054906101000a900473ffffffffffffffffffffffffffffffffffffffff1673ffffffffffffffffffffffffffffffffffffffff16146116de576040517f08c379a00000000000000000000000000000000000000000000000000000000081526004018080602001828103825260208152602001807f4f776e61626c653a2063616c6c6572206973206e6f7420746865206f776e657281525060200191505060405180910390fd5b4260055410611755576040517f08c379a00000000000000000000000000000000000000000000000000000000081526004018080602001828103825260208152602001807f526577617264206475726174696f6e206973206e6f742066696e69736865642e81525060200191505060405180910390fd5b8060048190555050565b60008060095414156117755760085490506117b1565b600954670de0b6b3a764000061179d60065461178f611219565b611a0f90919063ffffffff16565b6007540202816117a957fe5b046008540190505b90565b6000600b60006117c26119bd565b73ffffffffffffffffffffffffffffffffffffffff1673ffffffffffffffffffffffffffffffffffffffff16815260200190815260200160002054670de0b6b3a7640000611866600a60006118156119bd565b73ffffffffffffffffffffffffffffffffffffffff1673ffffffffffffffffffffffffffffffffffffffff1681526020019081526020016000205461185861175f565b611a0f90919063ffffffff16565b600c60006118726119bd565b73ffffffffffffffffffffffffffffffffffffffff1673ffffffffffffffffffffffffffffffffffffffff1681526020019081526020016000205402816118b557fe5b0401905090565b60085481565b6118ca6119bd565b73ffffffffffffffffffffffffffffffffffffffff166000809054906101000a900473ffffffffffffffffffffffffffffffffffffffff1673ffffffffffffffffffffffffffffffffffffffff161461198b576040517f08c379a00000000000000000000000000000000000000000000000000000000081526004018080602001828103825260208152602001807f4f776e61626c653a2063616c6c6572206973206e6f7420746865206f776e657281525060200191505060405180910390fd5b61199481611b81565b50565b600260009054906101000a900473ffffffffffffffffffffffffffffffffffffffff1681565b600033905090565b6000611a0783836040518060400160405280601a81526020017f536166654d6174683a206469766973696f6e206279207a65726f000000000000815250611cc5565b905092915050565b6000611a5183836040518060400160405280601e81526020017f536166654d6174683a207375627472616374696f6e206f766572666c6f770000815250611d8b565b905092915050565b600080831415611a6c5760009050611ad9565b6000828402905082848281611a7d57fe5b0414611ad4576040517f08c379a0000000000000000000000000000000000000000000000000000000008152600401808060200182810382526021815260200180611ebb6021913960400191505060405180910390fd5b809150505b92915050565b600080828401905083811015611b5d576040517f08c379a000000000000000000000000000000000000000000000000000000000815260040180806020018281038252601b8152602001807f536166654d6174683a206164646974696f6e206f766572666c6f77000000000081525060200191505060405180910390fd5b8091505092915050565b600081831115611b775781611b79565b825b905092915050565b600073ffffffffffffffffffffffffffffffffffffffff168173ffffffffffffffffffffffffffffffffffffffff161415611c07576040517f08c379a0000000000000000000000000000000000000000000000000000000008152600401808060200182810382526026815260200180611e736026913960400191505060405180910390fd5b8073ffffffffffffffffffffffffffffffffffffffff166000809054906101000a900473ffffffffffffffffffffffffffffffffffffffff1673ffffffffffffffffffffffffffffffffffffffff167f8be0079c531659141344cd1fd0a4f28419497f9722a3daafe3b4186f6b6457e060405160405180910390a3806000806101000a81548173ffffffffffffffffffffffffffffffffffffffff021916908373ffffffffffffffffffffffffffffffffffffffff16021790555050565b60008083118290611d71576040517f08c379a00000000000000000000000000000000000000000000000000000000081526004018080602001828103825283818151815260200191508051906020019080838360005b83811015611d36578082015181840152602081019050611d1b565b50505050905090810190601f168015611d635780820380516001836020036101000a031916815260200191505b509250505060405180910390fd5b506000838581611d7d57fe5b049050809150509392505050565b6000838311158290611e38576040517f08c379a00000000000000000000000000000000000000000000000000000000081526004018080602001828103825283818151815260200191508051906020019080838360005b83811015611dfd578082015181840152602081019050611de2565b50505050905090810190601f168015611e2a5780820380516001836020036101000a031916815260200191505b509250505060405180910390fd5b506000838503905080915050939250505056fe526577617264207261746520697320657175616c206f72206c657373207468616e207a65726f2e4f776e61626c653a206e6577206f776e657220697320746865207a65726f2061646472657373416d6f756e7420697320657175616c206f72206c657373207468616e207a65726f2e536166654d6174683a206d756c7469706c69636174696f6e206f766572666c6f77416d6f756e742069732067726561746572207468616e20617661696c61626c652062616c616e63652e4661696c6564207472616e7366657220746f6b656e20746f207374616b696e6720636f6e74726163742e52657761726420616d6f756e742069732067726561746572207468616e20617661696c61626c65207374616b696e6720636f6e74726163742062616c616e63652ea265627a7a72315820a1a36b3d2306e4e6421c0ddb9d21e200aeabe9e85276c22ef1fb46e7365865a964736f6c63430005100032",
  "source": "pragma solidity ^0.5.16;\n\nimport \"./Context.sol\";\nimport \"./IERC20.sol\";\nimport \"./Ownable.sol\";\nimport \"./SafeMath.sol\";\n\ncontract Staking is Context, Ownable {\n    using SafeMath for uint256;\n\n    IERC20 public stakingToken;\n    IERC20 public rewardToken;\n\n    address public ownerAddress;\n\n    uint256 public duration;\n    uint256 public finishedAt;\n    uint256 public updatedAt;\n    uint256 public rewardRate;\n    uint256 public rewardPerTokenStored;\n    uint256 public totalStaked;\n\n    mapping(address => uint256) public userRewardPerTokenPaid;\n    mapping(address => uint256) public rewards;\n    mapping(address => uint256) public balanceOf;\n\n    /**\n     * @param _sender Sender's address.\n     * @param _amount Amount of token.\n     * @param _timestamp Block timestamp.\n     */\n    event Stake(address indexed _sender, uint256 _amount, uint256 _timestamp);\n\n    /**\n     * @param _sender Sender's address.\n     * @param _amount Amount of token.\n     * @param _timestamp Block timestamp.\n     */\n    event Withdraw(address indexed _sender, uint256 _amount, uint256 _timestamp);\n\n    /**\n     * @param _stakingToken Staking token contract address.\n     * @param _rewardToken Reward token contract address.\n     */\n    constructor(address _stakingToken, address _rewardToken) public {\n        ownerAddress = _msgSender();\n        stakingToken = IERC20(_stakingToken);\n        rewardToken = IERC20(_rewardToken);\n    }\n\n    /**\n     * @param _account address.\n     */\n    modifier updateReward(address _account) {\n        rewardPerTokenStored = rewardPerToken();\n        updatedAt = lastTimeRewardApplicable();\n\n        if (_account != address(0)) {\n            rewards[_account] = earned();\n            userRewardPerTokenPaid[_account] = rewardPerTokenStored;\n        }\n\n        _;\n    }\n\n    /**\n     * @param x First param.\n     * @param y Second param.\n     * @return uint256 Returns min value.\n     */\n    function _min(uint256 x, uint256 y) private pure returns (uint256) {\n        return x <= y ? x : y;\n    }\n\n    /**\n     * @dev Last time reward applicable.\n     * @return uint256 Returns min value between finished at and block timestamp.\n     */\n    function lastTimeRewardApplicable() public view returns (uint256) {\n        return _min(finishedAt, block.timestamp);\n    }\n\n    /**\n     * @dev Amount of reward per token staked.\n     * @return uint256 Returns calculated reward per token.\n     */\n    function rewardPerToken() public view returns (uint256) {\n        if (totalStaked == 0) return rewardPerTokenStored;\n\n        return rewardPerTokenStored + (\n            rewardRate * (\n                lastTimeRewardApplicable().sub(updatedAt)\n            ) * 1e18\n        ) / totalStaked;\n    }\n\n    /**\n     * @param _amount Amount of token to be staked.\n     */\n    function stake(uint256 _amount) external updateReward(_msgSender()) {\n        require(_amount > 0, \"Amount is equal or less than zero.\");\n        require(stakingToken.transferFrom(_msgSender(), address(this), _amount), \"Failed transfer token to staking contract.\");\n        balanceOf[_msgSender()] += _amount;\n        totalStaked += _amount;\n        emit Stake(_msgSender(), _amount, block.timestamp);\n    }\n\n    /**\n     * @param _amount Amount of token to be withdrawal.\n     */\n    function withdraw(uint256 _amount) external updateReward(_msgSender()) {\n        require(_amount > 0, \"Amount is equal or less than zero.\");\n        require(_amount <= balanceOf[_msgSender()], \"Amount is greater than available balance.\");\n        require(stakingToken.transfer(_msgSender(), _amount), \"Failed transfer token to sender.\");\n        balanceOf[_msgSender()] -= _amount;\n        totalStaked -= _amount;\n        emit Withdraw(_msgSender(), _amount, block.timestamp);\n    }\n\n    /**\n     * @dev Total token has been earned.\n     * @return uint256 Returns sender total earned.\n     */\n    function earned() public view returns (uint256) {\n        return (\n            (\n                balanceOf[_msgSender()] * (\n                    rewardPerToken().sub(userRewardPerTokenPaid[_msgSender()])\n                )\n            ) / 1e18\n        ) + rewards[_msgSender()];\n    }\n\n    /**\n     * @dev Claim the token rewards.\n     */\n    function claim() external updateReward(_msgSender()) {\n        uint256 reward = rewards[_msgSender()];\n        if (reward > 0) {\n            require(rewardToken.transfer(_msgSender(), reward));\n            rewards[_msgSender()] = 0;\n        }\n    }\n\n    /**\n     * @param _duration Duration of rewards to be paid out in seconds.\n     */\n    function setRewardDuration(uint256 _duration) external onlyOwner {\n        require(finishedAt < block.timestamp, \"Reward duration is not finished.\");\n        duration = _duration;\n    }\n\n    /**\n     * @param _amount Amount of token to be set as reward.\n     */\n    function notifyRewardAmount(uint256 _amount) external onlyOwner updateReward(address(0)) {\n        if (block.timestamp > finishedAt) {\n            rewardRate = _amount.div(duration);\n        } else {\n            uint256 remainingRewards = (finishedAt.sub(block.timestamp)).mul(rewardRate);\n            rewardRate = (_amount.add(remainingRewards)).div(duration);\n        }\n\n        require(rewardRate > 0, \"Reward rate is equal or less than zero.\");\n        require(rewardRate.mul(duration) <= rewardToken.balanceOf(address(this)), \"Reward amount is greater than available staking contract balance.\");\n\n        finishedAt = block.timestamp.add(duration);\n        updatedAt = block.timestamp;\n    }\n}\n",
  "sourcePath": "/home/havea/Projects/maelyn/contracts/Staking.sol",
  "compiler": {
    "name": "solc",
    "version": "0.5.16+commit.9c3226ce.Emscripten.clang"
  },
  "schemaVersion": "3.4.16",
  "updatedAt": "2024-12-12T12:52:17.505Z",
  "networkType": "ethereum",
  "devdoc": {
    "methods": {
      "claim()": {
        "details": "Claim the token rewards."
      },
      "constructor": {
        "params": {
          "_rewardToken": "Reward token contract address.",
          "_stakingToken": "Staking token contract address."
        }
      },
      "earned()": {
        "details": "Total token has been earned.",
        "return": "uint256 Returns sender total earned."
      },
      "lastTimeRewardApplicable()": {
        "details": "Last time reward applicable.",
        "return": "uint256 Returns min value between finished at and block timestamp."
      },
      "notifyRewardAmount(uint256)": {
        "params": {
          "_amount": "Amount of token to be set as reward."
        }
      },
      "owner()": {
        "details": "Returns the address of the current owner."
      },
      "renounceOwnership()": {
        "details": "Leaves the contract without owner. It will not be possible to call `onlyOwner` functions anymore. Can only be called by the current owner.     * NOTE: Renouncing ownership will leave the contract without an owner, thereby removing any functionality that is only available to the owner."
      },
      "rewardPerToken()": {
        "details": "Amount of reward per token staked.",
        "return": "uint256 Returns calculated reward per token."
      },
      "setRewardDuration(uint256)": {
        "params": {
          "_duration": "Duration of rewards to be paid out in seconds."
        }
      },
      "stake(uint256)": {
        "params": {
          "_amount": "Amount of token to be staked."
        }
      },
      "transferOwnership(address)": {
        "details": "Transfers ownership of the contract to a new account (`newOwner`). Can only be called by the current owner."
      },
      "withdraw(uint256)": {
        "params": {
          "_amount": "Amount of token to be withdrawal."
        }
      }
    }
  },
  "userdoc": {
    "methods": {}
  }
}