{
  "contractName": "ERC20Lock",
  "abi": [
    {
      "inputs": [
        {
          "internalType": "address",
          "name": "token_",
          "type": "address"
        }
      ],
      "stateMutability": "nonpayable",
      "type": "constructor"
    },
    {
      "anonymous": false,
      "inputs": [
        {
          "indexed": true,
          "internalType": "address",
          "name": "owner",
          "type": "address"
        },
        {
          "indexed": true,
          "internalType": "address",
          "name": "beneficiary",
          "type": "address"
        },
        {
          "indexed": false,
          "internalType": "string",
          "name": "name",
          "type": "string"
        },
        {
          "indexed": false,
          "internalType": "string",
          "name": "description",
          "type": "string"
        },
        {
          "indexed": false,
          "internalType": "uint256",
          "name": "amount",
          "type": "uint256"
        },
        {
          "indexed": false,
          "internalType": "uint256",
          "name": "releaseTime",
          "type": "uint256"
        },
        {
          "indexed": false,
          "internalType": "uint256",
          "name": "timestamp",
          "type": "uint256"
        }
      ],
      "name": "LockAdded",
      "type": "event"
    },
    {
      "anonymous": false,
      "inputs": [
        {
          "indexed": true,
          "internalType": "address",
          "name": "owner",
          "type": "address"
        },
        {
          "indexed": true,
          "internalType": "address",
          "name": "beneficiary",
          "type": "address"
        },
        {
          "indexed": false,
          "internalType": "string",
          "name": "name",
          "type": "string"
        },
        {
          "indexed": false,
          "internalType": "string",
          "name": "description",
          "type": "string"
        },
        {
          "indexed": false,
          "internalType": "uint256",
          "name": "amount",
          "type": "uint256"
        },
        {
          "indexed": false,
          "internalType": "uint256",
          "name": "releaseTime",
          "type": "uint256"
        },
        {
          "indexed": false,
          "internalType": "uint256",
          "name": "timestamp",
          "type": "uint256"
        }
      ],
      "name": "LockRemoved",
      "type": "event"
    },
    {
      "anonymous": false,
      "inputs": [
        {
          "indexed": true,
          "internalType": "address",
          "name": "previousOwner",
          "type": "address"
        },
        {
          "indexed": true,
          "internalType": "address",
          "name": "newOwner",
          "type": "address"
        }
      ],
      "name": "OwnershipTransferred",
      "type": "event"
    },
    {
      "inputs": [],
      "name": "owner",
      "outputs": [
        {
          "internalType": "address",
          "name": "",
          "type": "address"
        }
      ],
      "stateMutability": "view",
      "type": "function",
      "constant": true
    },
    {
      "inputs": [],
      "name": "renounceOwnership",
      "outputs": [],
      "stateMutability": "nonpayable",
      "type": "function"
    },
    {
      "inputs": [
        {
          "internalType": "address",
          "name": "newOwner",
          "type": "address"
        }
      ],
      "name": "transferOwnership",
      "outputs": [],
      "stateMutability": "nonpayable",
      "type": "function"
    },
    {
      "inputs": [],
      "name": "token",
      "outputs": [
        {
          "internalType": "contract IERC20",
          "name": "",
          "type": "address"
        }
      ],
      "stateMutability": "view",
      "type": "function",
      "constant": true
    },
    {
      "inputs": [],
      "name": "lockedTokens",
      "outputs": [
        {
          "components": [
            {
              "internalType": "address",
              "name": "owner",
              "type": "address"
            },
            {
              "internalType": "address",
              "name": "beneficiary",
              "type": "address"
            },
            {
              "internalType": "string",
              "name": "name",
              "type": "string"
            },
            {
              "internalType": "string",
              "name": "description",
              "type": "string"
            },
            {
              "internalType": "uint256",
              "name": "amount",
              "type": "uint256"
            },
            {
              "internalType": "uint256",
              "name": "releaseTime",
              "type": "uint256"
            }
          ],
          "internalType": "struct IERC20Lock.Lock[]",
          "name": "",
          "type": "tuple[]"
        }
      ],
      "stateMutability": "view",
      "type": "function",
      "constant": true
    },
    {
      "inputs": [
        {
          "internalType": "address",
          "name": "beneficiary",
          "type": "address"
        },
        {
          "internalType": "string",
          "name": "name",
          "type": "string"
        },
        {
          "internalType": "string",
          "name": "description",
          "type": "string"
        },
        {
          "internalType": "uint256",
          "name": "amount",
          "type": "uint256"
        },
        {
          "internalType": "uint256",
          "name": "releaseTime",
          "type": "uint256"
        }
      ],
      "name": "lock",
      "outputs": [
        {
          "internalType": "bool",
          "name": "",
          "type": "bool"
        }
      ],
      "stateMutability": "nonpayable",
      "type": "function"
    },
    {
      "inputs": [
        {
          "internalType": "uint256",
          "name": "id",
          "type": "uint256"
        }
      ],
      "name": "release",
      "outputs": [
        {
          "internalType": "bool",
          "name": "",
          "type": "bool"
        }
      ],
      "stateMutability": "nonpayable",
      "type": "function"
    }
  ],
  "bytecode": "0x60806040523480156200001157600080fd5b5060405162002644380380620026448339818101604052810190620000379190620001a1565b6000620000496200012f60201b60201c565b9050806000806101000a81548173ffffffffffffffffffffffffffffffffffffffff021916908373ffffffffffffffffffffffffffffffffffffffff1602179055508073ffffffffffffffffffffffffffffffffffffffff16600073ffffffffffffffffffffffffffffffffffffffff167f8be0079c531659141344cd1fd0a4f28419497f9722a3daafe3b4186f6b6457e060405160405180910390a35080600160006101000a81548173ffffffffffffffffffffffffffffffffffffffff021916908373ffffffffffffffffffffffffffffffffffffffff16021790555050620001d3565b600033905090565b600080fd5b600073ffffffffffffffffffffffffffffffffffffffff82169050919050565b600062000169826200013c565b9050919050565b6200017b816200015c565b81146200018757600080fd5b50565b6000815190506200019b8162000170565b92915050565b600060208284031215620001ba57620001b962000137565b5b6000620001ca848285016200018a565b91505092915050565b61246180620001e36000396000f3fe608060405234801561001057600080fd5b506004361061007d5760003560e01c8063715018a61161005b578063715018a6146101005780638da5cb5b1461010a578063f2fde38b14610128578063fc0c546a146101445761007d565b80630eb34740146100825780632e087eb7146100a057806337bdc99b146100d0575b600080fd5b61008a610162565b60405161009791906115a7565b60405180910390f35b6100ba60048036038101906100b59190611690565b61041b565b6040516100c79190611767565b60405180910390f35b6100ea60048036038101906100e59190611782565b610556565b6040516100f79190611767565b60405180910390f35b6101086105ff565b005b610112610752565b60405161011f91906117be565b60405180910390f35b610142600480360381019061013d91906117d9565b61077b565b005b61014c61081c565b6040516101599190611865565b60405180910390f35b6060600060028054905067ffffffffffffffff81111561018557610184611880565b5b6040519080825280602002602001820160405280156101be57816020015b6101ab6112ac565b8152602001906001900390816101a35790505b50905060005b60028054905081101561041357600281815481106101e5576101e46118af565b5b90600052602060002090600602016040518060c00160405290816000820160009054906101000a900473ffffffffffffffffffffffffffffffffffffffff1673ffffffffffffffffffffffffffffffffffffffff1673ffffffffffffffffffffffffffffffffffffffff1681526020016001820160009054906101000a900473ffffffffffffffffffffffffffffffffffffffff1673ffffffffffffffffffffffffffffffffffffffff1673ffffffffffffffffffffffffffffffffffffffff1681526020016002820180546102ba9061190d565b80601f01602080910402602001604051908101604052809291908181526020018280546102e69061190d565b80156103335780601f1061030857610100808354040283529160200191610333565b820191906000526020600020905b81548152906001019060200180831161031657829003601f168201915b5050505050815260200160038201805461034c9061190d565b80601f01602080910402602001604051908101604052809291908181526020018280546103789061190d565b80156103c55780601f1061039a576101008083540402835291602001916103c5565b820191906000526020600020905b8154815290600101906020018083116103a857829003601f168201915b50505050508152602001600482015481526020016005820154815250508282815181106103f5576103f46118af565b5b6020026020010181905250808061040b9061196d565b9150506101c4565b508091505090565b6000610425610846565b73ffffffffffffffffffffffffffffffffffffffff1660008054906101000a900473ffffffffffffffffffffffffffffffffffffffff1673ffffffffffffffffffffffffffffffffffffffff16146104b2576040517f08c379a00000000000000000000000000000000000000000000000000000000081526004016104a990611a12565b60405180910390fd5b6105478888888080601f016020809104026020016040519081016040528093929190818152602001838380828437600081840152601f19601f8201169050808301925050505050505087878080601f016020809104026020016040519081016040528093929190818152602001838380828437600081840152601f19601f82011690508083019250505050505050868661084e565b60019050979650505050505050565b6000610560610846565b73ffffffffffffffffffffffffffffffffffffffff1660008054906101000a900473ffffffffffffffffffffffffffffffffffffffff1673ffffffffffffffffffffffffffffffffffffffff16146105ed576040517f08c379a00000000000000000000000000000000000000000000000000000000081526004016105e490611a12565b60405180910390fd5b6105f682610c96565b60019050919050565b610607610846565b73ffffffffffffffffffffffffffffffffffffffff1660008054906101000a900473ffffffffffffffffffffffffffffffffffffffff1673ffffffffffffffffffffffffffffffffffffffff1614610694576040517f08c379a000000000000000000000000000000000000000000000000000000000815260040161068b90611a12565b60405180910390fd5b600073ffffffffffffffffffffffffffffffffffffffff1660008054906101000a900473ffffffffffffffffffffffffffffffffffffffff1673ffffffffffffffffffffffffffffffffffffffff167f8be0079c531659141344cd1fd0a4f28419497f9722a3daafe3b4186f6b6457e060405160405180910390a360008060006101000a81548173ffffffffffffffffffffffffffffffffffffffff021916908373ffffffffffffffffffffffffffffffffffffffff160217905550565b60008060009054906101000a900473ffffffffffffffffffffffffffffffffffffffff16905090565b610783610846565b73ffffffffffffffffffffffffffffffffffffffff1660008054906101000a900473ffffffffffffffffffffffffffffffffffffffff1673ffffffffffffffffffffffffffffffffffffffff1614610810576040517f08c379a000000000000000000000000000000000000000000000000000000000815260040161080790611a12565b60405180910390fd5b61081981611180565b50565b6000600160009054906101000a900473ffffffffffffffffffffffffffffffffffffffff16905090565b600033905090565b610856610846565b73ffffffffffffffffffffffffffffffffffffffff1660008054906101000a900473ffffffffffffffffffffffffffffffffffffffff1673ffffffffffffffffffffffffffffffffffffffff16146108e3576040517f08c379a00000000000000000000000000000000000000000000000000000000081526004016108da90611a12565b60405180910390fd5b600073ffffffffffffffffffffffffffffffffffffffff168573ffffffffffffffffffffffffffffffffffffffff1603610952576040517f08c379a000000000000000000000000000000000000000000000000000000000815260040161094990611aa4565b60405180910390fd5b60008211610995576040517f08c379a000000000000000000000000000000000000000000000000000000000815260040161098c90611b36565b60405180910390fd5b428110156109d8576040517f08c379a00000000000000000000000000000000000000000000000000000000081526004016109cf90611bc8565b60405180910390fd5b600160009054906101000a900473ffffffffffffffffffffffffffffffffffffffff1673ffffffffffffffffffffffffffffffffffffffff166323b872dd610a1e610846565b30856040518463ffffffff1660e01b8152600401610a3e93929190611bf7565b6020604051808303816000875af1158015610a5d573d6000803e3d6000fd5b505050506040513d601f19601f82011682018060405250810190610a819190611c5a565b610ac0576040517f08c379a0000000000000000000000000000000000000000000000000000000008152600401610ab790611cf9565b60405180910390fd5b60026040518060c00160405280610ad5610846565b73ffffffffffffffffffffffffffffffffffffffff1681526020018773ffffffffffffffffffffffffffffffffffffffff16815260200186815260200185815260200184815260200183815250908060018154018082558091505060019003906000526020600020906006020160009091909190915060008201518160000160006101000a81548173ffffffffffffffffffffffffffffffffffffffff021916908373ffffffffffffffffffffffffffffffffffffffff16021790555060208201518160010160006101000a81548173ffffffffffffffffffffffffffffffffffffffff021916908373ffffffffffffffffffffffffffffffffffffffff1602179055506040820151816002019081610bee9190611ebb565b506060820151816003019081610c049190611ebb565b506080820151816004015560a0820151816005015550508473ffffffffffffffffffffffffffffffffffffffff16610c3a610846565b73ffffffffffffffffffffffffffffffffffffffff167f5306d6f4a6b1f17f18eb4ddfbcb77e870347c89da682f91a54acc1ae1aea9f238686868642604051610c87959493929190611fc6565b60405180910390a35050505050565b610c9e610846565b73ffffffffffffffffffffffffffffffffffffffff1660008054906101000a900473ffffffffffffffffffffffffffffffffffffffff1673ffffffffffffffffffffffffffffffffffffffff1614610d2b576040517f08c379a0000000000000000000000000000000000000000000000000000000008152600401610d2290611a12565b60405180910390fd5b600060028281548110610d4157610d406118af565b5b90600052602060002090600602019050610d59610846565b73ffffffffffffffffffffffffffffffffffffffff168160000160009054906101000a900473ffffffffffffffffffffffffffffffffffffffff1673ffffffffffffffffffffffffffffffffffffffff1614610dea576040517f08c379a0000000000000000000000000000000000000000000000000000000008152600401610de190612099565b60405180910390fd5b8060050154421015610e31576040517f08c379a0000000000000000000000000000000000000000000000000000000008152600401610e289061212b565b60405180910390fd5b6000600160009054906101000a900473ffffffffffffffffffffffffffffffffffffffff1673ffffffffffffffffffffffffffffffffffffffff166370a08231306040518263ffffffff1660e01b8152600401610e8e91906117be565b602060405180830381865afa158015610eab573d6000803e3d6000fd5b505050506040513d601f19601f82011682018060405250810190610ecf9190612160565b11610f0f576040517f08c379a0000000000000000000000000000000000000000000000000000000008152600401610f06906121d9565b60405180910390fd5b600160009054906101000a900473ffffffffffffffffffffffffffffffffffffffff1673ffffffffffffffffffffffffffffffffffffffff1663a9059cbb8260010160009054906101000a900473ffffffffffffffffffffffffffffffffffffffff1683600401546040518363ffffffff1660e01b8152600401610f949291906121f9565b6020604051808303816000875af1158015610fb3573d6000803e3d6000fd5b505050506040513d601f19601f82011682018060405250810190610fd79190611c5a565b611016576040517f08c379a000000000000000000000000000000000000000000000000000000000815260040161100d90612294565b60405180910390fd5b8060010160009054906101000a900473ffffffffffffffffffffffffffffffffffffffff1673ffffffffffffffffffffffffffffffffffffffff168160000160009054906101000a900473ffffffffffffffffffffffffffffffffffffffff1673ffffffffffffffffffffffffffffffffffffffff167f88db074aa7a4a9c73dcbfd32e94274126933ec8f1b5f9b274c8903c4127cf15f836002018460030185600401548660050154426040516110d1959493929190612338565b60405180910390a3600282815481106110ed576110ec6118af565b5b9060005260206000209060060201600080820160006101000a81549073ffffffffffffffffffffffffffffffffffffffff02191690556001820160006101000a81549073ffffffffffffffffffffffffffffffffffffffff021916905560028201600061115a919061130e565b60038201600061116a919061130e565b6004820160009055600582016000905550505050565b600073ffffffffffffffffffffffffffffffffffffffff168173ffffffffffffffffffffffffffffffffffffffff16036111ef576040517f08c379a00000000000000000000000000000000000000000000000000000000081526004016111e69061240b565b60405180910390fd5b8073ffffffffffffffffffffffffffffffffffffffff1660008054906101000a900473ffffffffffffffffffffffffffffffffffffffff1673ffffffffffffffffffffffffffffffffffffffff167f8be0079c531659141344cd1fd0a4f28419497f9722a3daafe3b4186f6b6457e060405160405180910390a3806000806101000a81548173ffffffffffffffffffffffffffffffffffffffff021916908373ffffffffffffffffffffffffffffffffffffffff16021790555050565b6040518060c00160405280600073ffffffffffffffffffffffffffffffffffffffff168152602001600073ffffffffffffffffffffffffffffffffffffffff168152602001606081526020016060815260200160008152602001600081525090565b50805461131a9061190d565b6000825580601f1061132c575061134b565b601f01602090049060005260206000209081019061134a919061134e565b5b50565b5b8082111561136757600081600090555060010161134f565b5090565b600081519050919050565b600082825260208201905092915050565b6000819050602082019050919050565b600073ffffffffffffffffffffffffffffffffffffffff82169050919050565b60006113c282611397565b9050919050565b6113d2816113b7565b82525050565b600081519050919050565b600082825260208201905092915050565b60005b838110156114125780820151818401526020810190506113f7565b60008484015250505050565b6000601f19601f8301169050919050565b600061143a826113d8565b61144481856113e3565b93506114548185602086016113f4565b61145d8161141e565b840191505092915050565b6000819050919050565b61147b81611468565b82525050565b600060c08301600083015161149960008601826113c9565b5060208301516114ac60208601826113c9565b50604083015184820360408601526114c4828261142f565b915050606083015184820360608601526114de828261142f565b91505060808301516114f36080860182611472565b5060a083015161150660a0860182611472565b508091505092915050565b600061151d8383611481565b905092915050565b6000602082019050919050565b600061153d8261136b565b6115478185611376565b93508360208202850161155985611387565b8060005b8581101561159557848403895281516115768582611511565b945061158183611525565b925060208a0199505060018101905061155d565b50829750879550505050505092915050565b600060208201905081810360008301526115c18184611532565b905092915050565b600080fd5b600080fd5b6115dc816113b7565b81146115e757600080fd5b50565b6000813590506115f9816115d3565b92915050565b600080fd5b600080fd5b600080fd5b60008083601f840112611624576116236115ff565b5b8235905067ffffffffffffffff81111561164157611640611604565b5b60208301915083600182028301111561165d5761165c611609565b5b9250929050565b61166d81611468565b811461167857600080fd5b50565b60008135905061168a81611664565b92915050565b600080600080600080600060a0888a0312156116af576116ae6115c9565b5b60006116bd8a828b016115ea565b975050602088013567ffffffffffffffff8111156116de576116dd6115ce565b5b6116ea8a828b0161160e565b9650965050604088013567ffffffffffffffff81111561170d5761170c6115ce565b5b6117198a828b0161160e565b9450945050606061172c8a828b0161167b565b925050608061173d8a828b0161167b565b91505092959891949750929550565b60008115159050919050565b6117618161174c565b82525050565b600060208201905061177c6000830184611758565b92915050565b600060208284031215611798576117976115c9565b5b60006117a68482850161167b565b91505092915050565b6117b8816113b7565b82525050565b60006020820190506117d360008301846117af565b92915050565b6000602082840312156117ef576117ee6115c9565b5b60006117fd848285016115ea565b91505092915050565b6000819050919050565b600061182b61182661182184611397565b611806565b611397565b9050919050565b600061183d82611810565b9050919050565b600061184f82611832565b9050919050565b61185f81611844565b82525050565b600060208201905061187a6000830184611856565b92915050565b7f4e487b7100000000000000000000000000000000000000000000000000000000600052604160045260246000fd5b7f4e487b7100000000000000000000000000000000000000000000000000000000600052603260045260246000fd5b7f4e487b7100000000000000000000000000000000000000000000000000000000600052602260045260246000fd5b6000600282049050600182168061192557607f821691505b602082108103611938576119376118de565b5b50919050565b7f4e487b7100000000000000000000000000000000000000000000000000000000600052601160045260246000fd5b600061197882611468565b91507fffffffffffffffffffffffffffffffffffffffffffffffffffffffffffffffff82036119aa576119a961193e565b5b600182019050919050565b600082825260208201905092915050565b7f4f776e61626c653a2063616c6c6572206973206e6f7420746865206f776e6572600082015250565b60006119fc6020836119b5565b9150611a07826119c6565b602082019050919050565b60006020820190508181036000830152611a2b816119ef565b9050919050565b7f45524332304c6f636b3a2042656e656669636961727920697320746865207a6560008201527f726f206164647265737300000000000000000000000000000000000000000000602082015250565b6000611a8e602a836119b5565b9150611a9982611a32565b604082019050919050565b60006020820190508181036000830152611abd81611a81565b9050919050565b7f45524332304c6f636b3a20416d6f756e7420697320657175616c206f72206c6560008201527f7373207468616e207a65726f2e00000000000000000000000000000000000000602082015250565b6000611b20602d836119b5565b9150611b2b82611ac4565b604082019050919050565b60006020820190508181036000830152611b4f81611b13565b9050919050565b7f45524332304c6f636b3a2052656c656173652074696d65206973206265666f7260008201527f652063757272656e742074696d65000000000000000000000000000000000000602082015250565b6000611bb2602e836119b5565b9150611bbd82611b56565b604082019050919050565b60006020820190508181036000830152611be181611ba5565b9050919050565b611bf181611468565b82525050565b6000606082019050611c0c60008301866117af565b611c1960208301856117af565b611c266040830184611be8565b949350505050565b611c378161174c565b8114611c4257600080fd5b50565b600081519050611c5481611c2e565b92915050565b600060208284031215611c7057611c6f6115c9565b5b6000611c7e84828501611c45565b91505092915050565b7f45524332304c6f636b3a204661696c6564207472616e7366657220746f6b656e60008201527f20746f2045524332304c6f636b20636f6e74726163742e000000000000000000602082015250565b6000611ce36037836119b5565b9150611cee82611c87565b604082019050919050565b60006020820190508181036000830152611d1281611cd6565b9050919050565b60008190508160005260206000209050919050565b60006020601f8301049050919050565b600082821b905092915050565b600060088302611d7b7fffffffffffffffffffffffffffffffffffffffffffffffffffffffffffffffff82611d3e565b611d858683611d3e565b95508019841693508086168417925050509392505050565b6000611db8611db3611dae84611468565b611806565b611468565b9050919050565b6000819050919050565b611dd283611d9d565b611de6611dde82611dbf565b848454611d4b565b825550505050565b600090565b611dfb611dee565b611e06818484611dc9565b505050565b5b81811015611e2a57611e1f600082611df3565b600181019050611e0c565b5050565b601f821115611e6f57611e4081611d19565b611e4984611d2e565b81016020851015611e58578190505b611e6c611e6485611d2e565b830182611e0b565b50505b505050565b600082821c905092915050565b6000611e9260001984600802611e74565b1980831691505092915050565b6000611eab8383611e81565b9150826002028217905092915050565b611ec4826113d8565b67ffffffffffffffff811115611edd57611edc611880565b5b611ee7825461190d565b611ef2828285611e2e565b600060209050601f831160018114611f255760008415611f13578287015190505b611f1d8582611e9f565b865550611f85565b601f198416611f3386611d19565b60005b82811015611f5b57848901518255600182019150602085019450602081019050611f36565b86831015611f785784890151611f74601f891682611e81565b8355505b6001600288020188555050505b505050505050565b6000611f98826113d8565b611fa281856119b5565b9350611fb28185602086016113f4565b611fbb8161141e565b840191505092915050565b600060a0820190508181036000830152611fe08188611f8d565b90508181036020830152611ff48187611f8d565b90506120036040830186611be8565b6120106060830185611be8565b61201d6080830184611be8565b9695505050505050565b7f45524332304c6f636b3a2043616c6c6572206973206e6f7420746865206f776e60008201527f6572000000000000000000000000000000000000000000000000000000000000602082015250565b60006120836022836119b5565b915061208e82612027565b604082019050919050565b600060208201905081810360008301526120b281612076565b9050919050565b7f45524332304c6f636b3a2043757272656e742074696d65206973206265666f7260008201527f652072656c656173652074696d65000000000000000000000000000000000000602082015250565b6000612115602e836119b5565b9150612120826120b9565b604082019050919050565b6000602082019050818103600083015261214481612108565b9050919050565b60008151905061215a81611664565b92915050565b600060208284031215612176576121756115c9565b5b60006121848482850161214b565b91505092915050565b7f45524332304c6f636b3a204e6f20746f6b656e7320746f2072656c6561736500600082015250565b60006121c3601f836119b5565b91506121ce8261218d565b602082019050919050565b600060208201905081810360008301526121f2816121b6565b9050919050565b600060408201905061220e60008301856117af565b61221b6020830184611be8565b9392505050565b7f45524332304c6f636b3a204661696c6564207472616e7366657220746f6b656e60008201527f20746f2062656e65666963696172792e00000000000000000000000000000000602082015250565b600061227e6030836119b5565b915061228982612222565b604082019050919050565b600060208201905081810360008301526122ad81612271565b9050919050565b600081546122c18161190d565b6122cb81866119b5565b945060018216600081146122e657600181146122fc5761232f565b60ff19831686528115156020028601935061232f565b61230585611d19565b60005b8381101561232757815481890152600182019150602081019050612308565b808801955050505b50505092915050565b600060a082019050818103600083015261235281886122b4565b9050818103602083015261236681876122b4565b90506123756040830186611be8565b6123826060830185611be8565b61238f6080830184611be8565b9695505050505050565b7f4f776e61626c653a206e6577206f776e657220697320746865207a65726f206160008201527f6464726573730000000000000000000000000000000000000000000000000000602082015250565b60006123f56026836119b5565b915061240082612399565b604082019050919050565b60006020820190508181036000830152612424816123e8565b905091905056fea2646970667358221220351baeffd78bef824b0cfcfe53b19081779cd9125111f0ce381a18b11fff8b1e64736f6c63430008110033",
  "immutableReferences": {},
  "source": "// SPDX-License-Identifier: MIT\npragma solidity ^0.8.17;\n\nimport \"./Context.sol\";\nimport \"./IERC20.sol\";\nimport \"./IERC20Lock.sol\";\nimport \"./Ownable.sol\";\nimport \"./SafeMath.sol\";\n\ncontract ERC20Lock is Context, IERC20Lock, Ownable {\n    using SafeMath for uint256;\n\n    IERC20 private _token;\n    Lock[] private _lockedTokens;\n\n    /**\n     * @param token_ Token contract address.\n     */\n    constructor(address token_) {\n        _token = IERC20(token_);\n    }\n\n    /**\n     * @dev Returns the token being held.\n     */\n    function token() external view returns(IERC20) {\n        return _token;\n    }\n\n    /**\n     * @dev Returns list of tokens locked.\n     */\n    function lockedTokens() external view returns(Lock[] memory) {\n        Lock[] memory results = new Lock[](_lockedTokens.length);\n        for (uint256 i; i < _lockedTokens.length; i++) {\n            results[i] = _lockedTokens[i];\n        }\n        return results;\n    }\n\n    /**\n     * @dev Transfers tokens to be held in period of time.\n     *\n     * @param beneficiary Beneficiary's address.\n     * @param name Name of locked tokens.\n     * @param description Description of locked tokens.\n     * @param amount Amount of token to be staked.\n     * @param releaseTime Release timestamp.\n     */\n    function lock(\n        address beneficiary,\n        string calldata name,\n        string calldata description,\n        uint256 amount,\n        uint256 releaseTime\n    ) external onlyOwner returns(bool) {\n        _lock(beneficiary, name, description, amount, releaseTime);\n        return true;\n    }\n\n    /**\n     * @dev Transfers tokens held by the time lock to the beneficiary. Will only succeed if invoked after the release time.\n     *\n     * @param id Index of locked tokens.\n     */\n    function release(uint256 id) external onlyOwner returns(bool) {\n        _release(id);\n        return true;\n    }\n\n    /**\n     * @dev Transfers tokens to be held in period of time.\n     *\n     * @param beneficiary Beneficiary's address.\n     * @param name Name of locked tokens.\n     * @param description Description of locked tokens.\n     * @param amount Amount of token to be staked.\n     * @param releaseTime Release timestamp.\n     */\n    function _lock(\n        address beneficiary,\n        string memory name,\n        string memory description,\n        uint256 amount,\n        uint256 releaseTime\n    ) internal onlyOwner {\n        require(beneficiary != address(0), \"ERC20Lock: Beneficiary is the zero address\");\n        require(amount > 0, \"ERC20Lock: Amount is equal or less than zero.\");\n        require(releaseTime >= block.timestamp, \"ERC20Lock: Release time is before current time\");\n        require(_token.transferFrom(_msgSender(), address(this), amount), \"ERC20Lock: Failed transfer token to ERC20Lock contract.\");\n        _lockedTokens.push(\n            Lock({\n                owner: _msgSender(),\n                beneficiary: beneficiary,\n                name: name,\n                description: description,\n                amount: amount,\n                releaseTime: releaseTime\n            })\n        );\n        emit LockAdded(\n            _msgSender(),\n            beneficiary,\n            name,\n            description,\n            amount,\n            releaseTime,\n            block.timestamp\n        );\n    }\n\n    /**\n     * @dev Transfers tokens held by the time lock to the beneficiary. Will only succeed if invoked after the release time.\n     *\n     * @param id Index of locked tokens.\n     */\n    function _release(uint256 id) internal onlyOwner {\n        Lock storage locked = _lockedTokens[id];\n        require(locked.owner == _msgSender(), \"ERC20Lock: Caller is not the owner\");\n        require(block.timestamp >= locked.releaseTime, \"ERC20Lock: Current time is before release time\");\n        require(_token.balanceOf(address(this)) > 0, \"ERC20Lock: No tokens to release\");\n        require(_token.transfer(locked.beneficiary, locked.amount), \"ERC20Lock: Failed transfer token to beneficiary.\");\n        emit LockRemoved(\n            locked.owner,\n            locked.beneficiary,\n            locked.name,\n            locked.description,\n            locked.amount,\n            locked.releaseTime,\n            block.timestamp\n        );\n        delete _lockedTokens[id];\n    }\n}\n",
  "sourcePath": "/home/ghula/Projects/emotion/contracts/ERC20Lock.sol",
  "compiler": {
    "name": "solc",
    "version": "0.8.17+commit.8df45f5f.Emscripten.clang"
  },
  "schemaVersion": "3.4.16",
  "updatedAt": "2025-09-25T11:10:05.927Z",
  "networkType": "ethereum",
  "devdoc": {
    "kind": "dev",
    "methods": {
      "constructor": {
        "params": {
          "token_": "Token contract address."
        }
      },
      "lock(address,string,string,uint256,uint256)": {
        "details": "Transfers tokens to be held in period of time.",
        "params": {
          "amount": "Amount of token to be staked.",
          "beneficiary": "Beneficiary's address.",
          "description": "Description of locked tokens.",
          "name": "Name of locked tokens.",
          "releaseTime": "Release timestamp."
        }
      },
      "lockedTokens()": {
        "details": "Returns list of tokens locked."
      },
      "owner()": {
        "details": "Returns the address of the current owner."
      },
      "release(uint256)": {
        "details": "Transfers tokens held by the time lock to the beneficiary. Will only succeed if invoked after the release time.",
        "params": {
          "id": "Index of locked tokens."
        }
      },
      "renounceOwnership()": {
        "details": "Leaves the contract without owner. It will not be possible to call `onlyOwner` functions anymore. Can only be called by the current owner. NOTE: Renouncing ownership will leave the contract without an owner, thereby removing any functionality that is only available to the owner."
      },
      "token()": {
        "details": "Returns the token being held."
      },
      "transferOwnership(address)": {
        "details": "Transfers ownership of the contract to a new account (`newOwner`). Can only be called by the current owner."
      }
    },
    "version": 1
  },
  "userdoc": {
    "kind": "user",
    "methods": {},
    "version": 1
  }
}