{
  "contractName": "Locks",
  "abi": [
    {
      "inputs": [
        {
          "internalType": "address",
          "name": "token_",
          "type": "address"
        }
      ],
      "payable": false,
      "stateMutability": "nonpayable",
      "type": "constructor"
    },
    {
      "anonymous": false,
      "inputs": [
        {
          "indexed": true,
          "internalType": "address",
          "name": "beneficiary",
          "type": "address"
        },
        {
          "indexed": false,
          "internalType": "uint256",
          "name": "amount",
          "type": "uint256"
        },
        {
          "indexed": false,
          "internalType": "uint256",
          "name": "releaseTime",
          "type": "uint256"
        },
        {
          "indexed": false,
          "internalType": "uint256",
          "name": "timestamp",
          "type": "uint256"
        }
      ],
      "name": "Lock",
      "type": "event"
    },
    {
      "anonymous": false,
      "inputs": [
        {
          "indexed": true,
          "internalType": "address",
          "name": "previousOwner",
          "type": "address"
        },
        {
          "indexed": true,
          "internalType": "address",
          "name": "newOwner",
          "type": "address"
        }
      ],
      "name": "OwnershipTransferred",
      "type": "event"
    },
    {
      "anonymous": false,
      "inputs": [
        {
          "indexed": true,
          "internalType": "address",
          "name": "beneficiary",
          "type": "address"
        },
        {
          "indexed": false,
          "internalType": "uint256",
          "name": "amount",
          "type": "uint256"
        },
        {
          "indexed": false,
          "internalType": "uint256",
          "name": "timestamp",
          "type": "uint256"
        }
      ],
      "name": "Release",
      "type": "event"
    },
    {
      "constant": true,
      "inputs": [
        {
          "internalType": "address",
          "name": "",
          "type": "address"
        }
      ],
      "name": "locked",
      "outputs": [
        {
          "internalType": "address",
          "name": "beneficiary",
          "type": "address"
        },
        {
          "internalType": "uint256",
          "name": "amount",
          "type": "uint256"
        },
        {
          "internalType": "uint256",
          "name": "releaseTime",
          "type": "uint256"
        }
      ],
      "payable": false,
      "stateMutability": "view",
      "type": "function"
    },
    {
      "constant": true,
      "inputs": [],
      "name": "owner",
      "outputs": [
        {
          "internalType": "address",
          "name": "",
          "type": "address"
        }
      ],
      "payable": false,
      "stateMutability": "view",
      "type": "function"
    },
    {
      "constant": false,
      "inputs": [],
      "name": "renounceOwnership",
      "outputs": [],
      "payable": false,
      "stateMutability": "nonpayable",
      "type": "function"
    },
    {
      "constant": false,
      "inputs": [
        {
          "internalType": "address",
          "name": "newOwner",
          "type": "address"
        }
      ],
      "name": "transferOwnership",
      "outputs": [],
      "payable": false,
      "stateMutability": "nonpayable",
      "type": "function"
    },
    {
      "constant": true,
      "inputs": [],
      "name": "token",
      "outputs": [
        {
          "internalType": "contract IERC20",
          "name": "",
          "type": "address"
        }
      ],
      "payable": false,
      "stateMutability": "view",
      "type": "function"
    },
    {
      "constant": false,
      "inputs": [
        {
          "internalType": "address",
          "name": "beneficiary",
          "type": "address"
        },
        {
          "internalType": "uint256",
          "name": "amount",
          "type": "uint256"
        },
        {
          "internalType": "uint256",
          "name": "releaseTime",
          "type": "uint256"
        }
      ],
      "name": "lock",
      "outputs": [
        {
          "internalType": "bool",
          "name": "",
          "type": "bool"
        }
      ],
      "payable": false,
      "stateMutability": "nonpayable",
      "type": "function"
    },
    {
      "constant": false,
      "inputs": [
        {
          "internalType": "address",
          "name": "beneficiary",
          "type": "address"
        }
      ],
      "name": "release",
      "outputs": [
        {
          "internalType": "bool",
          "name": "",
          "type": "bool"
        }
      ],
      "payable": false,
      "stateMutability": "nonpayable",
      "type": "function"
    }
  ],
  "bytecode": "0x608060405234801561001057600080fd5b506040516114dd3803806114dd8339818101604052602081101561003357600080fd5b8101908080519060200190929190505050600061005461013960201b60201c565b9050806000806101000a81548173ffffffffffffffffffffffffffffffffffffffff021916908373ffffffffffffffffffffffffffffffffffffffff1602179055508073ffffffffffffffffffffffffffffffffffffffff16600073ffffffffffffffffffffffffffffffffffffffff167f8be0079c531659141344cd1fd0a4f28419497f9722a3daafe3b4186f6b6457e060405160405180910390a35080600160006101000a81548173ffffffffffffffffffffffffffffffffffffffff021916908373ffffffffffffffffffffffffffffffffffffffff16021790555050610141565b600033905090565b61138d806101506000396000f3fe608060405234801561001057600080fd5b506004361061007d5760003560e01c8063cbf9fe5f1161005b578063cbf9fe5f14610132578063e2ab691d146101c4578063f2fde38b14610234578063fc0c546a146102785761007d565b80631916558714610082578063715018a6146100de5780638da5cb5b146100e8575b600080fd5b6100c46004803603602081101561009857600080fd5b81019080803573ffffffffffffffffffffffffffffffffffffffff1690602001909291905050506102c2565b604051808215151515815260200191505060405180910390f35b6100e661039f565b005b6100f0610527565b604051808273ffffffffffffffffffffffffffffffffffffffff1673ffffffffffffffffffffffffffffffffffffffff16815260200191505060405180910390f35b6101746004803603602081101561014857600080fd5b81019080803573ffffffffffffffffffffffffffffffffffffffff169060200190929190505050610550565b604051808473ffffffffffffffffffffffffffffffffffffffff1673ffffffffffffffffffffffffffffffffffffffff168152602001838152602001828152602001935050505060405180910390f35b61021a600480360360608110156101da57600080fd5b81019080803573ffffffffffffffffffffffffffffffffffffffff169060200190929190803590602001909291908035906020019092919050505061059a565b604051808215151515815260200191505060405180910390f35b6102766004803603602081101561024a57600080fd5b81019080803573ffffffffffffffffffffffffffffffffffffffff16906020019092919050505061067b565b005b610280610750565b604051808273ffffffffffffffffffffffffffffffffffffffff1673ffffffffffffffffffffffffffffffffffffffff16815260200191505060405180910390f35b60006102cc61077a565b73ffffffffffffffffffffffffffffffffffffffff166000809054906101000a900473ffffffffffffffffffffffffffffffffffffffff1673ffffffffffffffffffffffffffffffffffffffff161461038d576040517f08c379a00000000000000000000000000000000000000000000000000000000081526004018080602001828103825260208152602001807f4f776e61626c653a2063616c6c6572206973206e6f7420746865206f776e657281525060200191505060405180910390fd5b61039682610782565b60019050919050565b6103a761077a565b73ffffffffffffffffffffffffffffffffffffffff166000809054906101000a900473ffffffffffffffffffffffffffffffffffffffff1673ffffffffffffffffffffffffffffffffffffffff1614610468576040517f08c379a00000000000000000000000000000000000000000000000000000000081526004018080602001828103825260208152602001807f4f776e61626c653a2063616c6c6572206973206e6f7420746865206f776e657281525060200191505060405180910390fd5b600073ffffffffffffffffffffffffffffffffffffffff166000809054906101000a900473ffffffffffffffffffffffffffffffffffffffff1673ffffffffffffffffffffffffffffffffffffffff167f8be0079c531659141344cd1fd0a4f28419497f9722a3daafe3b4186f6b6457e060405160405180910390a360008060006101000a81548173ffffffffffffffffffffffffffffffffffffffff021916908373ffffffffffffffffffffffffffffffffffffffff160217905550565b60008060009054906101000a900473ffffffffffffffffffffffffffffffffffffffff16905090565b60026020528060005260406000206000915090508060000160009054906101000a900473ffffffffffffffffffffffffffffffffffffffff16908060010154908060020154905083565b60006105a461077a565b73ffffffffffffffffffffffffffffffffffffffff166000809054906101000a900473ffffffffffffffffffffffffffffffffffffffff1673ffffffffffffffffffffffffffffffffffffffff1614610665576040517f08c379a00000000000000000000000000000000000000000000000000000000081526004018080602001828103825260208152602001807f4f776e61626c653a2063616c6c6572206973206e6f7420746865206f776e657281525060200191505060405180910390fd5b610670848484610cd4565b600190509392505050565b61068361077a565b73ffffffffffffffffffffffffffffffffffffffff166000809054906101000a900473ffffffffffffffffffffffffffffffffffffffff1673ffffffffffffffffffffffffffffffffffffffff1614610744576040517f08c379a00000000000000000000000000000000000000000000000000000000081526004018080602001828103825260208152602001807f4f776e61626c653a2063616c6c6572206973206e6f7420746865206f776e657281525060200191505060405180910390fd5b61074d8161111a565b50565b6000600160009054906101000a900473ffffffffffffffffffffffffffffffffffffffff16905090565b600033905090565b61078a61077a565b73ffffffffffffffffffffffffffffffffffffffff166000809054906101000a900473ffffffffffffffffffffffffffffffffffffffff1673ffffffffffffffffffffffffffffffffffffffff161461084b576040517f08c379a00000000000000000000000000000000000000000000000000000000081526004018080602001828103825260208152602001807f4f776e61626c653a2063616c6c6572206973206e6f7420746865206f776e657281525060200191505060405180910390fd5b600073ffffffffffffffffffffffffffffffffffffffff168173ffffffffffffffffffffffffffffffffffffffff1614156108d1576040517f08c379a00000000000000000000000000000000000000000000000000000000081526004018080602001828103825260268152602001806113046026913960400191505060405180910390fd5b6000600260008373ffffffffffffffffffffffffffffffffffffffff1673ffffffffffffffffffffffffffffffffffffffff16815260200190815260200160002090508060020154421015610971576040517f08c379a000000000000000000000000000000000000000000000000000000000815260040180806020018281038252602a815260200180611285602a913960400191505060405180910390fd5b6000600160009054906101000a900473ffffffffffffffffffffffffffffffffffffffff1673ffffffffffffffffffffffffffffffffffffffff166370a08231306040518263ffffffff1660e01b8152600401808273ffffffffffffffffffffffffffffffffffffffff1673ffffffffffffffffffffffffffffffffffffffff16815260200191505060206040518083038186803b158015610a1257600080fd5b505afa158015610a26573d6000803e3d6000fd5b505050506040513d6020811015610a3c57600080fd5b810190808051906020019092919050505011610ac0576040517f08c379a000000000000000000000000000000000000000000000000000000000815260040180806020018281038252601b8152602001807f4c6f636b733a204e6f20746f6b656e7320746f2072656c65617365000000000081525060200191505060405180910390fd5b600160009054906101000a900473ffffffffffffffffffffffffffffffffffffffff1673ffffffffffffffffffffffffffffffffffffffff1663a9059cbb8383600101546040518363ffffffff1660e01b8152600401808373ffffffffffffffffffffffffffffffffffffffff1673ffffffffffffffffffffffffffffffffffffffff16815260200182815260200192505050602060405180830381600087803b158015610b6d57600080fd5b505af1158015610b81573d6000803e3d6000fd5b505050506040513d6020811015610b9757600080fd5b8101908080519060200190929190505050610bfd576040517f08c379a000000000000000000000000000000000000000000000000000000000815260040180806020018281038252602c8152602001806112af602c913960400191505060405180910390fd5b600260008373ffffffffffffffffffffffffffffffffffffffff1673ffffffffffffffffffffffffffffffffffffffff168152602001908152602001600020600080820160006101000a81549073ffffffffffffffffffffffffffffffffffffffff02191690556001820160009055600282016000905550508173ffffffffffffffffffffffffffffffffffffffff167f2c57dec1db0095a6b800c2698d5bbceef2c180c6ac43429769a719658983f677826001015442604051808381526020018281526020019250505060405180910390a25050565b610cdc61077a565b73ffffffffffffffffffffffffffffffffffffffff166000809054906101000a900473ffffffffffffffffffffffffffffffffffffffff1673ffffffffffffffffffffffffffffffffffffffff1614610d9d576040517f08c379a00000000000000000000000000000000000000000000000000000000081526004018080602001828103825260208152602001807f4f776e61626c653a2063616c6c6572206973206e6f7420746865206f776e657281525060200191505060405180910390fd5b600073ffffffffffffffffffffffffffffffffffffffff168373ffffffffffffffffffffffffffffffffffffffff161415610e23576040517f08c379a00000000000000000000000000000000000000000000000000000000081526004018080602001828103825260268152602001806113046026913960400191505060405180910390fd5b60008211610e7c576040517f08c379a00000000000000000000000000000000000000000000000000000000081526004018080602001828103825260298152602001806112db6029913960400191505060405180910390fd5b600160009054906101000a900473ffffffffffffffffffffffffffffffffffffffff1673ffffffffffffffffffffffffffffffffffffffff166323b872dd8430856040518463ffffffff1660e01b8152600401808473ffffffffffffffffffffffffffffffffffffffff1673ffffffffffffffffffffffffffffffffffffffff1681526020018373ffffffffffffffffffffffffffffffffffffffff1673ffffffffffffffffffffffffffffffffffffffff1681526020018281526020019350505050602060405180830381600087803b158015610f5957600080fd5b505af1158015610f6d573d6000803e3d6000fd5b505050506040513d6020811015610f8357600080fd5b8101908080519060200190929190505050610fe9576040517f08c379a000000000000000000000000000000000000000000000000000000000815260040180806020018281038252602f81526020018061132a602f913960400191505060405180910390fd5b60405180606001604052808473ffffffffffffffffffffffffffffffffffffffff16815260200183815260200182815250600260008573ffffffffffffffffffffffffffffffffffffffff1673ffffffffffffffffffffffffffffffffffffffff16815260200190815260200160002060008201518160000160006101000a81548173ffffffffffffffffffffffffffffffffffffffff021916908373ffffffffffffffffffffffffffffffffffffffff16021790555060208201518160010155604082015181600201559050508273ffffffffffffffffffffffffffffffffffffffff167f0e31f07bae79135368ff475cf6c7f6abb31e0fd731e03c18ad425bd9406cf0c083834260405180848152602001838152602001828152602001935050505060405180910390a2505050565b600073ffffffffffffffffffffffffffffffffffffffff168173ffffffffffffffffffffffffffffffffffffffff1614156111a0576040517f08c379a000000000000000000000000000000000000000000000000000000000815260040180806020018281038252602681526020018061125f6026913960400191505060405180910390fd5b8073ffffffffffffffffffffffffffffffffffffffff166000809054906101000a900473ffffffffffffffffffffffffffffffffffffffff1673ffffffffffffffffffffffffffffffffffffffff167f8be0079c531659141344cd1fd0a4f28419497f9722a3daafe3b4186f6b6457e060405160405180910390a3806000806101000a81548173ffffffffffffffffffffffffffffffffffffffff021916908373ffffffffffffffffffffffffffffffffffffffff1602179055505056fe4f776e61626c653a206e6577206f776e657220697320746865207a65726f20616464726573734c6f636b733a2043757272656e742074696d65206973206265666f72652072656c656173652074696d654c6f636b733a204661696c6564207472616e7366657220746f6b656e20746f2062656e65666963696172792e4c6f636b733a20416d6f756e7420697320657175616c206f72206c657373207468616e207a65726f2e4c6f636b733a2042656e656669636961727920697320746865207a65726f20616464726573734c6f636b733a204661696c6564207472616e7366657220746f6b656e20746f206c6f636b7320636f6e74726163742ea265627a7a72315820c78c3fa312dec3a38c6c4f010581ee57abbf6e6f4ab8f6b730d0266f856ece3564736f6c63430005100032",
  "source": "pragma solidity ^0.5.16;\n\nimport \"./Context.sol\";\nimport \"./IERC20.sol\";\nimport \"./ILocks.sol\";\nimport \"./Ownable.sol\";\nimport \"./SafeMath.sol\";\n\ncontract Locks is Context, ILocks, Ownable {\n    using SafeMath for uint256;\n\n    struct Locked {\n        address beneficiary;\n        uint256 amount;\n        uint256 releaseTime;\n    }\n\n    IERC20 private _token;\n    mapping(address => Locked) public locked;\n\n    /**\n     * @param token_ Token contract address.\n     */\n    constructor(address token_) public {\n        _token = IERC20(token_);\n    }\n\n    /**\n     * @dev Returns the token being held.\n     */\n    function token() external view returns(IERC20) {\n        return _token;\n    }\n\n    /**\n     * @dev Transfers tokens to be held in period of time.\n     *\n     * @param beneficiary Beneficiary's address.\n     * @param amount Amount of token to be staked.\n     * @param releaseTime Release timestamp.\n     */\n    function lock(address beneficiary, uint256 amount, uint256 releaseTime) external onlyOwner returns(bool) {\n        _lock(beneficiary, amount, releaseTime);\n        return true;\n    }\n\n    /**\n     * @dev Transfers tokens held by the time lock to the beneficiary. Will only succeed if invoked after the release time.\n     *\n     * @param beneficiary Beneficiary's address.\n     */\n    function release(address beneficiary) external onlyOwner returns(bool) {\n        _release(beneficiary);\n        return true;\n    }\n\n    /**\n     * @dev Transfers tokens to be held in period of time.\n     *\n     * @param beneficiary Beneficiary's address.\n     * @param amount Amount of token to be staked.\n     * @param releaseTime Release timestamp.\n     */\n    function _lock(address beneficiary, uint256 amount, uint256 releaseTime) internal onlyOwner {\n        require(beneficiary != address(0), \"Locks: Beneficiary is the zero address\");\n        require(amount > 0, \"Locks: Amount is equal or less than zero.\");\n        require(_token.transferFrom(beneficiary, address(this), amount), \"Locks: Failed transfer token to locks contract.\");\n        locked[beneficiary] = Locked(beneficiary, amount, releaseTime);\n        emit Lock(beneficiary, amount, releaseTime, block.timestamp);\n    }\n\n    /**\n     * @dev Transfers tokens held by the time lock to the beneficiary. Will only succeed if invoked after the release time.\n     *\n     * @param beneficiary Beneficiary's address.\n     */\n    function _release(address beneficiary) internal onlyOwner {\n        require(beneficiary != address(0), \"Locks: Beneficiary is the zero address\");\n        Locked storage _locked = locked[beneficiary];\n        require(block.timestamp >= _locked.releaseTime, \"Locks: Current time is before release time\");\n        require(_token.balanceOf(address(this)) > 0, \"Locks: No tokens to release\");\n        require(_token.transfer(beneficiary, _locked.amount), \"Locks: Failed transfer token to beneficiary.\");\n        delete locked[beneficiary];\n        emit Release(beneficiary, _locked.amount, block.timestamp);\n    }\n}\n",
  "sourcePath": "/home/scranaver/Projects/emotion/contracts/Locks.sol",
  "compiler": {
    "name": "solc",
    "version": "0.5.16+commit.9c3226ce.Emscripten.clang"
  },
  "schemaVersion": "3.4.16",
  "updatedAt": "2024-12-15T16:19:32.461Z",
  "devdoc": {
    "methods": {
      "constructor": {
        "params": {
          "token_": "Token contract address."
        }
      },
      "lock(address,uint256,uint256)": {
        "details": "Transfers tokens to be held in period of time.",
        "params": {
          "amount": "Amount of token to be staked.",
          "beneficiary": "Beneficiary's address.",
          "releaseTime": "Release timestamp."
        }
      },
      "owner()": {
        "details": "Returns the address of the current owner."
      },
      "release(address)": {
        "details": "Transfers tokens held by the time lock to the beneficiary. Will only succeed if invoked after the release time.",
        "params": {
          "beneficiary": "Beneficiary's address."
        }
      },
      "renounceOwnership()": {
        "details": "Leaves the contract without owner. It will not be possible to call `onlyOwner` functions anymore. Can only be called by the current owner.     * NOTE: Renouncing ownership will leave the contract without an owner, thereby removing any functionality that is only available to the owner."
      },
      "token()": {
        "details": "Returns the token being held."
      },
      "transferOwnership(address)": {
        "details": "Transfers ownership of the contract to a new account (`newOwner`). Can only be called by the current owner."
      }
    }
  },
  "userdoc": {
    "methods": {}
  }
}