{
  "contractName": "Locks",
  "abi": [
    {
      "inputs": [
        {
          "internalType": "address",
          "name": "token_",
          "type": "address"
        }
      ],
      "payable": false,
      "stateMutability": "nonpayable",
      "type": "constructor"
    },
    {
      "anonymous": false,
      "inputs": [
        {
          "indexed": true,
          "internalType": "address",
          "name": "beneficiary",
          "type": "address"
        },
        {
          "indexed": false,
          "internalType": "string",
          "name": "name",
          "type": "string"
        },
        {
          "indexed": false,
          "internalType": "uint256",
          "name": "amount",
          "type": "uint256"
        },
        {
          "indexed": false,
          "internalType": "uint256",
          "name": "releaseTime",
          "type": "uint256"
        },
        {
          "indexed": false,
          "internalType": "uint256",
          "name": "timestamp",
          "type": "uint256"
        }
      ],
      "name": "Lock",
      "type": "event"
    },
    {
      "anonymous": false,
      "inputs": [
        {
          "indexed": true,
          "internalType": "address",
          "name": "previousOwner",
          "type": "address"
        },
        {
          "indexed": true,
          "internalType": "address",
          "name": "newOwner",
          "type": "address"
        }
      ],
      "name": "OwnershipTransferred",
      "type": "event"
    },
    {
      "anonymous": false,
      "inputs": [
        {
          "indexed": true,
          "internalType": "address",
          "name": "beneficiary",
          "type": "address"
        },
        {
          "indexed": false,
          "internalType": "string",
          "name": "name",
          "type": "string"
        },
        {
          "indexed": false,
          "internalType": "uint256",
          "name": "amount",
          "type": "uint256"
        },
        {
          "indexed": false,
          "internalType": "uint256",
          "name": "releaseTime",
          "type": "uint256"
        },
        {
          "indexed": false,
          "internalType": "uint256",
          "name": "timestamp",
          "type": "uint256"
        }
      ],
      "name": "Release",
      "type": "event"
    },
    {
      "constant": true,
      "inputs": [
        {
          "internalType": "address",
          "name": "",
          "type": "address"
        }
      ],
      "name": "lockedTokens",
      "outputs": [
        {
          "internalType": "address",
          "name": "beneficiary",
          "type": "address"
        },
        {
          "internalType": "string",
          "name": "name",
          "type": "string"
        },
        {
          "internalType": "uint256",
          "name": "amount",
          "type": "uint256"
        },
        {
          "internalType": "uint256",
          "name": "releaseTime",
          "type": "uint256"
        }
      ],
      "payable": false,
      "stateMutability": "view",
      "type": "function"
    },
    {
      "constant": true,
      "inputs": [],
      "name": "owner",
      "outputs": [
        {
          "internalType": "address",
          "name": "",
          "type": "address"
        }
      ],
      "payable": false,
      "stateMutability": "view",
      "type": "function"
    },
    {
      "constant": false,
      "inputs": [],
      "name": "renounceOwnership",
      "outputs": [],
      "payable": false,
      "stateMutability": "nonpayable",
      "type": "function"
    },
    {
      "constant": false,
      "inputs": [
        {
          "internalType": "address",
          "name": "newOwner",
          "type": "address"
        }
      ],
      "name": "transferOwnership",
      "outputs": [],
      "payable": false,
      "stateMutability": "nonpayable",
      "type": "function"
    },
    {
      "constant": true,
      "inputs": [],
      "name": "token",
      "outputs": [
        {
          "internalType": "contract IERC20",
          "name": "",
          "type": "address"
        }
      ],
      "payable": false,
      "stateMutability": "view",
      "type": "function"
    },
    {
      "constant": false,
      "inputs": [
        {
          "internalType": "address",
          "name": "beneficiary",
          "type": "address"
        },
        {
          "internalType": "string",
          "name": "name",
          "type": "string"
        },
        {
          "internalType": "uint256",
          "name": "amount",
          "type": "uint256"
        },
        {
          "internalType": "uint256",
          "name": "releaseTime",
          "type": "uint256"
        }
      ],
      "name": "lock",
      "outputs": [
        {
          "internalType": "bool",
          "name": "",
          "type": "bool"
        }
      ],
      "payable": false,
      "stateMutability": "nonpayable",
      "type": "function"
    },
    {
      "constant": false,
      "inputs": [
        {
          "internalType": "address",
          "name": "beneficiary",
          "type": "address"
        }
      ],
      "name": "release",
      "outputs": [
        {
          "internalType": "bool",
          "name": "",
          "type": "bool"
        }
      ],
      "payable": false,
      "stateMutability": "nonpayable",
      "type": "function"
    }
  ],
  "bytecode": "0x608060405234801561001057600080fd5b506040516119f43803806119f48339818101604052602081101561003357600080fd5b8101908080519060200190929190505050600061005461013960201b60201c565b9050806000806101000a81548173ffffffffffffffffffffffffffffffffffffffff021916908373ffffffffffffffffffffffffffffffffffffffff1602179055508073ffffffffffffffffffffffffffffffffffffffff16600073ffffffffffffffffffffffffffffffffffffffff167f8be0079c531659141344cd1fd0a4f28419497f9722a3daafe3b4186f6b6457e060405160405180910390a35080600160006101000a81548173ffffffffffffffffffffffffffffffffffffffff021916908373ffffffffffffffffffffffffffffffffffffffff16021790555050610141565b600033905090565b6118a4806101506000396000f3fe608060405234801561001057600080fd5b506004361061007d5760003560e01c8063715018a61161005b578063715018a6146102a15780638da5cb5b146102ab578063f2fde38b146102f5578063fc0c546a146103395761007d565b8063191655871461008257806344e54122146100de5780635eb7413a146101a3575b600080fd5b6100c46004803603602081101561009857600080fd5b81019080803573ffffffffffffffffffffffffffffffffffffffff169060200190929190505050610383565b604051808215151515815260200191505060405180910390f35b610189600480360360808110156100f457600080fd5b81019080803573ffffffffffffffffffffffffffffffffffffffff1690602001909291908035906020019064010000000081111561013157600080fd5b82018360208201111561014357600080fd5b8035906020019184600183028401116401000000008311171561016557600080fd5b90919293919293908035906020019092919080359060200190929190505050610460565b604051808215151515815260200191505060405180910390f35b6101e5600480360360208110156101b957600080fd5b81019080803573ffffffffffffffffffffffffffffffffffffffff169060200190929190505050610588565b604051808573ffffffffffffffffffffffffffffffffffffffff1673ffffffffffffffffffffffffffffffffffffffff16815260200180602001848152602001838152602001828103825285818151815260200191508051906020019080838360005b83811015610263578082015181840152602081019050610248565b50505050905090810190601f1680156102905780820380516001836020036101000a031916815260200191505b509550505050505060405180910390f35b6102a9610670565b005b6102b36107f8565b604051808273ffffffffffffffffffffffffffffffffffffffff1673ffffffffffffffffffffffffffffffffffffffff16815260200191505060405180910390f35b6103376004803603602081101561030b57600080fd5b81019080803573ffffffffffffffffffffffffffffffffffffffff169060200190929190505050610821565b005b6103416108f6565b604051808273ffffffffffffffffffffffffffffffffffffffff1673ffffffffffffffffffffffffffffffffffffffff16815260200191505060405180910390f35b600061038d610920565b73ffffffffffffffffffffffffffffffffffffffff166000809054906101000a900473ffffffffffffffffffffffffffffffffffffffff1673ffffffffffffffffffffffffffffffffffffffff161461044e576040517f08c379a00000000000000000000000000000000000000000000000000000000081526004018080602001828103825260208152602001807f4f776e61626c653a2063616c6c6572206973206e6f7420746865206f776e657281525060200191505060405180910390fd5b61045782610928565b60019050919050565b600061046a610920565b73ffffffffffffffffffffffffffffffffffffffff166000809054906101000a900473ffffffffffffffffffffffffffffffffffffffff1673ffffffffffffffffffffffffffffffffffffffff161461052b576040517f08c379a00000000000000000000000000000000000000000000000000000000081526004018080602001828103825260208152602001807f4f776e61626c653a2063616c6c6572206973206e6f7420746865206f776e657281525060200191505060405180910390fd5b61057b8686868080601f016020809104026020016040519081016040528093929190818152602001838380828437600081840152601f19601f820116905080830192505050505050508585610f23565b6001905095945050505050565b60026020528060005260406000206000915090508060000160009054906101000a900473ffffffffffffffffffffffffffffffffffffffff1690806001018054600181600116156101000203166002900480601f01602080910402602001604051908101604052809291908181526020018280546001816001161561010002031660029004801561065a5780601f1061062f5761010080835404028352916020019161065a565b820191906000526020600020905b81548152906001019060200180831161063d57829003601f168201915b5050505050908060020154908060030154905084565b610678610920565b73ffffffffffffffffffffffffffffffffffffffff166000809054906101000a900473ffffffffffffffffffffffffffffffffffffffff1673ffffffffffffffffffffffffffffffffffffffff1614610739576040517f08c379a00000000000000000000000000000000000000000000000000000000081526004018080602001828103825260208152602001807f4f776e61626c653a2063616c6c6572206973206e6f7420746865206f776e657281525060200191505060405180910390fd5b600073ffffffffffffffffffffffffffffffffffffffff166000809054906101000a900473ffffffffffffffffffffffffffffffffffffffff1673ffffffffffffffffffffffffffffffffffffffff167f8be0079c531659141344cd1fd0a4f28419497f9722a3daafe3b4186f6b6457e060405160405180910390a360008060006101000a81548173ffffffffffffffffffffffffffffffffffffffff021916908373ffffffffffffffffffffffffffffffffffffffff160217905550565b60008060009054906101000a900473ffffffffffffffffffffffffffffffffffffffff16905090565b610829610920565b73ffffffffffffffffffffffffffffffffffffffff166000809054906101000a900473ffffffffffffffffffffffffffffffffffffffff1673ffffffffffffffffffffffffffffffffffffffff16146108ea576040517f08c379a00000000000000000000000000000000000000000000000000000000081526004018080602001828103825260208152602001807f4f776e61626c653a2063616c6c6572206973206e6f7420746865206f776e657281525060200191505060405180910390fd5b6108f3816114f5565b50565b6000600160009054906101000a900473ffffffffffffffffffffffffffffffffffffffff16905090565b600033905090565b610930610920565b73ffffffffffffffffffffffffffffffffffffffff166000809054906101000a900473ffffffffffffffffffffffffffffffffffffffff1673ffffffffffffffffffffffffffffffffffffffff16146109f1576040517f08c379a00000000000000000000000000000000000000000000000000000000081526004018080602001828103825260208152602001807f4f776e61626c653a2063616c6c6572206973206e6f7420746865206f776e657281525060200191505060405180910390fd5b600073ffffffffffffffffffffffffffffffffffffffff168173ffffffffffffffffffffffffffffffffffffffff161415610a77576040517f08c379a000000000000000000000000000000000000000000000000000000000815260040180806020018281038252602681526020018061181b6026913960400191505060405180910390fd5b6000600260008373ffffffffffffffffffffffffffffffffffffffff1673ffffffffffffffffffffffffffffffffffffffff16815260200190815260200160002090508060030154421015610b17576040517f08c379a000000000000000000000000000000000000000000000000000000000815260040180806020018281038252602a815260200180611772602a913960400191505060405180910390fd5b6000600160009054906101000a900473ffffffffffffffffffffffffffffffffffffffff1673ffffffffffffffffffffffffffffffffffffffff166370a08231306040518263ffffffff1660e01b8152600401808273ffffffffffffffffffffffffffffffffffffffff1673ffffffffffffffffffffffffffffffffffffffff16815260200191505060206040518083038186803b158015610bb857600080fd5b505afa158015610bcc573d6000803e3d6000fd5b505050506040513d6020811015610be257600080fd5b810190808051906020019092919050505011610c66576040517f08c379a000000000000000000000000000000000000000000000000000000000815260040180806020018281038252601b8152602001807f4c6f636b733a204e6f20746f6b656e7320746f2072656c65617365000000000081525060200191505060405180910390fd5b600160009054906101000a900473ffffffffffffffffffffffffffffffffffffffff1673ffffffffffffffffffffffffffffffffffffffff1663a9059cbb8383600201546040518363ffffffff1660e01b8152600401808373ffffffffffffffffffffffffffffffffffffffff1673ffffffffffffffffffffffffffffffffffffffff16815260200182815260200192505050602060405180830381600087803b158015610d1357600080fd5b505af1158015610d27573d6000803e3d6000fd5b505050506040513d6020811015610d3d57600080fd5b8101908080519060200190929190505050610da3576040517f08c379a000000000000000000000000000000000000000000000000000000000815260040180806020018281038252602c81526020018061179c602c913960400191505060405180910390fd5b8173ffffffffffffffffffffffffffffffffffffffff167f19b74957c68e2abf82076ed2794c2f6e7d91c874b5f6510f34f7c1c4e3ec37098260010183600201548460030154426040518080602001858152602001848152602001838152602001828103825286818154600181600116156101000203166002900481526020019150805460018160011615610100020316600290048015610e855780601f10610e5a57610100808354040283529160200191610e85565b820191906000526020600020905b815481529060010190602001808311610e6857829003601f168201915b50509550505050505060405180910390a2600260008373ffffffffffffffffffffffffffffffffffffffff1673ffffffffffffffffffffffffffffffffffffffff168152602001908152602001600020600080820160006101000a81549073ffffffffffffffffffffffffffffffffffffffff0219169055600182016000610f0d9190611639565b6002820160009055600382016000905550505050565b610f2b610920565b73ffffffffffffffffffffffffffffffffffffffff166000809054906101000a900473ffffffffffffffffffffffffffffffffffffffff1673ffffffffffffffffffffffffffffffffffffffff1614610fec576040517f08c379a00000000000000000000000000000000000000000000000000000000081526004018080602001828103825260208152602001807f4f776e61626c653a2063616c6c6572206973206e6f7420746865206f776e657281525060200191505060405180910390fd5b600073ffffffffffffffffffffffffffffffffffffffff168473ffffffffffffffffffffffffffffffffffffffff161415611072576040517f08c379a000000000000000000000000000000000000000000000000000000000815260040180806020018281038252602681526020018061181b6026913960400191505060405180910390fd5b600082116110cb576040517f08c379a00000000000000000000000000000000000000000000000000000000081526004018080602001828103825260298152602001806117c86029913960400191505060405180910390fd5b42811015611124576040517f08c379a000000000000000000000000000000000000000000000000000000000815260040180806020018281038252602a8152602001806117f1602a913960400191505060405180910390fd5b6000600260008673ffffffffffffffffffffffffffffffffffffffff1673ffffffffffffffffffffffffffffffffffffffff16815260200190815260200160002060020154146111bf576040517f08c379a00000000000000000000000000000000000000000000000000000000081526004018080602001828103825260258152602001806117276025913960400191505060405180910390fd5b600160009054906101000a900473ffffffffffffffffffffffffffffffffffffffff1673ffffffffffffffffffffffffffffffffffffffff166323b872dd611205610920565b30856040518463ffffffff1660e01b8152600401808473ffffffffffffffffffffffffffffffffffffffff1673ffffffffffffffffffffffffffffffffffffffff1681526020018373ffffffffffffffffffffffffffffffffffffffff1673ffffffffffffffffffffffffffffffffffffffff1681526020018281526020019350505050602060405180830381600087803b1580156112a357600080fd5b505af11580156112b7573d6000803e3d6000fd5b505050506040513d60208110156112cd57600080fd5b8101908080519060200190929190505050611333576040517f08c379a000000000000000000000000000000000000000000000000000000000815260040180806020018281038252602f815260200180611841602f913960400191505060405180910390fd5b60405180608001604052808573ffffffffffffffffffffffffffffffffffffffff16815260200184815260200183815260200182815250600260008673ffffffffffffffffffffffffffffffffffffffff1673ffffffffffffffffffffffffffffffffffffffff16815260200190815260200160002060008201518160000160006101000a81548173ffffffffffffffffffffffffffffffffffffffff021916908373ffffffffffffffffffffffffffffffffffffffff160217905550602082015181600101908051906020019061140c929190611681565b5060408201518160020155606082015181600301559050508373ffffffffffffffffffffffffffffffffffffffff167f5c7adacec89eef191053f0d07ac2321adabe7df4891a22d9cfdf11cff223e16b848484426040518080602001858152602001848152602001838152602001828103825286818151815260200191508051906020019080838360005b838110156114b2578082015181840152602081019050611497565b50505050905090810190601f1680156114df5780820380516001836020036101000a031916815260200191505b509550505050505060405180910390a250505050565b600073ffffffffffffffffffffffffffffffffffffffff168173ffffffffffffffffffffffffffffffffffffffff16141561157b576040517f08c379a000000000000000000000000000000000000000000000000000000000815260040180806020018281038252602681526020018061174c6026913960400191505060405180910390fd5b8073ffffffffffffffffffffffffffffffffffffffff166000809054906101000a900473ffffffffffffffffffffffffffffffffffffffff1673ffffffffffffffffffffffffffffffffffffffff167f8be0079c531659141344cd1fd0a4f28419497f9722a3daafe3b4186f6b6457e060405160405180910390a3806000806101000a81548173ffffffffffffffffffffffffffffffffffffffff021916908373ffffffffffffffffffffffffffffffffffffffff16021790555050565b50805460018160011615610100020316600290046000825580601f1061165f575061167e565b601f01602090049060005260206000209081019061167d9190611701565b5b50565b828054600181600116156101000203166002900490600052602060002090601f016020900481019282601f106116c257805160ff19168380011785556116f0565b828001600101855582156116f0579182015b828111156116ef5782518255916020019190600101906116d4565b5b5090506116fd9190611701565b5090565b61172391905b8082111561171f576000816000905550600101611707565b5090565b9056fe4c6f636b733a2042656e656669636961727920697320616c7265616479206578697374732e4f776e61626c653a206e6577206f776e657220697320746865207a65726f20616464726573734c6f636b733a2043757272656e742074696d65206973206265666f72652072656c656173652074696d654c6f636b733a204661696c6564207472616e7366657220746f6b656e20746f2062656e65666963696172792e4c6f636b733a20416d6f756e7420697320657175616c206f72206c657373207468616e207a65726f2e4c6f636b733a2052656c656173652074696d65206973206265666f72652063757272656e742074696d654c6f636b733a2042656e656669636961727920697320746865207a65726f20616464726573734c6f636b733a204661696c6564207472616e7366657220746f6b656e20746f206c6f636b7320636f6e74726163742ea265627a7a72315820a17f78f8b5d616fd517747bc3df0e8308023c486aad8b25f1fa706cfa63be5a164736f6c63430005100032",
  "source": "pragma solidity ^0.5.16;\n\nimport \"./Context.sol\";\nimport \"./IERC20.sol\";\nimport \"./ILocks.sol\";\nimport \"./Ownable.sol\";\nimport \"./SafeMath.sol\";\n\ncontract Locks is Context, ILocks, Ownable {\n    using SafeMath for uint256;\n\n    struct Locked {\n        address beneficiary;\n        string name;\n        uint256 amount;\n        uint256 releaseTime;\n    }\n\n    IERC20 private _token;\n    mapping(address => Locked) public lockedTokens;\n\n    /**\n     * @param token_ Token contract address.\n     */\n    constructor(address token_) public {\n        _token = IERC20(token_);\n    }\n\n    /**\n     * @dev Returns the token being held.\n     */\n    function token() external view returns(IERC20) {\n        return _token;\n    }\n\n    /**\n     * @dev Transfers tokens to be held in period of time.\n     *\n     * @param beneficiary Beneficiary's address.\n     * @param name Name of locked tokens.\n     * @param amount Amount of token to be staked.\n     * @param releaseTime Release timestamp.\n     */\n    function lock(address beneficiary, string calldata name, uint256 amount, uint256 releaseTime) external onlyOwner returns(bool) {\n        _lock(beneficiary, name, amount, releaseTime);\n        return true;\n    }\n\n    /**\n     * @dev Transfers tokens held by the time lock to the beneficiary. Will only succeed if invoked after the release time.\n     *\n     * @param beneficiary Beneficiary's address.\n     */\n    function release(address beneficiary) external onlyOwner returns(bool) {\n        _release(beneficiary);\n        return true;\n    }\n\n    /**\n     * @dev Transfers tokens to be held in period of time.\n     *\n     * @param beneficiary Beneficiary's address.\n     * @param name Name of locked tokens.\n     * @param amount Amount of token to be staked.\n     * @param releaseTime Release timestamp.\n     */\n    function _lock(address beneficiary, string memory name, uint256 amount, uint256 releaseTime) internal onlyOwner {\n        require(beneficiary != address(0), \"Locks: Beneficiary is the zero address\");\n        require(amount > 0, \"Locks: Amount is equal or less than zero.\");\n        require(releaseTime >= block.timestamp, \"Locks: Release time is before current time\");\n        require(lockedTokens[beneficiary].amount == 0, \"Locks: Beneficiary is already exists.\");\n        require(_token.transferFrom(_msgSender(), address(this), amount), \"Locks: Failed transfer token to locks contract.\");\n        lockedTokens[beneficiary] = Locked(beneficiary, name, amount, releaseTime);\n        emit Lock(beneficiary, name, amount, releaseTime, block.timestamp);\n    }\n\n    /**\n     * @dev Transfers tokens held by the time lock to the beneficiary. Will only succeed if invoked after the release time.\n     *\n     * @param beneficiary Beneficiary's address.\n     */\n    function _release(address beneficiary) internal onlyOwner {\n        require(beneficiary != address(0), \"Locks: Beneficiary is the zero address\");\n        Locked storage _lockedTokens = lockedTokens[beneficiary];\n        require(block.timestamp >= _lockedTokens.releaseTime, \"Locks: Current time is before release time\");\n        require(_token.balanceOf(address(this)) > 0, \"Locks: No tokens to release\");\n        require(_token.transfer(beneficiary, _lockedTokens.amount), \"Locks: Failed transfer token to beneficiary.\");\n        emit Release(beneficiary, _lockedTokens.name, _lockedTokens.amount, _lockedTokens.releaseTime, block.timestamp);\n        delete lockedTokens[beneficiary];\n    }\n}\n",
  "sourcePath": "/home/havea/Projects/emotion/contracts/Locks.sol",
  "compiler": {
    "name": "solc",
    "version": "0.5.16+commit.9c3226ce.Emscripten.clang"
  },
  "schemaVersion": "3.4.16",
  "updatedAt": "2024-12-17T10:23:51.134Z",
  "networkType": "ethereum",
  "devdoc": {
    "methods": {
      "constructor": {
        "params": {
          "token_": "Token contract address."
        }
      },
      "lock(address,string,uint256,uint256)": {
        "details": "Transfers tokens to be held in period of time.",
        "params": {
          "amount": "Amount of token to be staked.",
          "beneficiary": "Beneficiary's address.",
          "name": "Name of locked tokens.",
          "releaseTime": "Release timestamp."
        }
      },
      "owner()": {
        "details": "Returns the address of the current owner."
      },
      "release(address)": {
        "details": "Transfers tokens held by the time lock to the beneficiary. Will only succeed if invoked after the release time.",
        "params": {
          "beneficiary": "Beneficiary's address."
        }
      },
      "renounceOwnership()": {
        "details": "Leaves the contract without owner. It will not be possible to call `onlyOwner` functions anymore. Can only be called by the current owner.     * NOTE: Renouncing ownership will leave the contract without an owner, thereby removing any functionality that is only available to the owner."
      },
      "token()": {
        "details": "Returns the token being held."
      },
      "transferOwnership(address)": {
        "details": "Transfers ownership of the contract to a new account (`newOwner`). Can only be called by the current owner."
      }
    }
  },
  "userdoc": {
    "methods": {}
  }
}