{
  "contractName": "Presale",
  "abi": [
    {
      "inputs": [
        {
          "internalType": "address",
          "name": "token_",
          "type": "address"
        },
        {
          "internalType": "uint256",
          "name": "tokenPrice_",
          "type": "uint256"
        }
      ],
      "stateMutability": "nonpayable",
      "type": "constructor"
    },
    {
      "anonymous": false,
      "inputs": [
        {
          "indexed": true,
          "internalType": "address",
          "name": "buyer",
          "type": "address"
        },
        {
          "indexed": false,
          "internalType": "uint256",
          "name": "amountPrimary",
          "type": "uint256"
        },
        {
          "indexed": false,
          "internalType": "uint256",
          "name": "amountToken",
          "type": "uint256"
        },
        {
          "indexed": false,
          "internalType": "uint256",
          "name": "timestamp",
          "type": "uint256"
        }
      ],
      "name": "Buy",
      "type": "event"
    },
    {
      "anonymous": false,
      "inputs": [
        {
          "indexed": true,
          "internalType": "address",
          "name": "owner",
          "type": "address"
        },
        {
          "indexed": false,
          "internalType": "uint256",
          "name": "balance",
          "type": "uint256"
        },
        {
          "indexed": false,
          "internalType": "uint256",
          "name": "amount",
          "type": "uint256"
        },
        {
          "indexed": false,
          "internalType": "uint256",
          "name": "timestamp",
          "type": "uint256"
        }
      ],
      "name": "End",
      "type": "event"
    },
    {
      "anonymous": false,
      "inputs": [
        {
          "indexed": true,
          "internalType": "address",
          "name": "previousOwner",
          "type": "address"
        },
        {
          "indexed": true,
          "internalType": "address",
          "name": "newOwner",
          "type": "address"
        }
      ],
      "name": "OwnershipTransferred",
      "type": "event"
    },
    {
      "inputs": [],
      "name": "owner",
      "outputs": [
        {
          "internalType": "address",
          "name": "",
          "type": "address"
        }
      ],
      "stateMutability": "view",
      "type": "function",
      "constant": true
    },
    {
      "inputs": [],
      "name": "renounceOwnership",
      "outputs": [],
      "stateMutability": "nonpayable",
      "type": "function"
    },
    {
      "inputs": [
        {
          "internalType": "address",
          "name": "newOwner",
          "type": "address"
        }
      ],
      "name": "transferOwnership",
      "outputs": [],
      "stateMutability": "nonpayable",
      "type": "function"
    },
    {
      "inputs": [],
      "name": "token",
      "outputs": [
        {
          "internalType": "contract IERC20",
          "name": "",
          "type": "address"
        }
      ],
      "stateMutability": "view",
      "type": "function",
      "constant": true
    },
    {
      "inputs": [],
      "name": "tokenPrice",
      "outputs": [
        {
          "internalType": "uint256",
          "name": "",
          "type": "uint256"
        }
      ],
      "stateMutability": "view",
      "type": "function",
      "constant": true
    },
    {
      "inputs": [],
      "name": "tokensSold",
      "outputs": [
        {
          "internalType": "uint256",
          "name": "",
          "type": "uint256"
        }
      ],
      "stateMutability": "view",
      "type": "function",
      "constant": true
    },
    {
      "inputs": [
        {
          "internalType": "uint256",
          "name": "amount",
          "type": "uint256"
        }
      ],
      "name": "buyTokens",
      "outputs": [
        {
          "internalType": "bool",
          "name": "",
          "type": "bool"
        }
      ],
      "stateMutability": "payable",
      "type": "function",
      "payable": true
    },
    {
      "inputs": [],
      "name": "endSale",
      "outputs": [
        {
          "internalType": "bool",
          "name": "",
          "type": "bool"
        }
      ],
      "stateMutability": "nonpayable",
      "type": "function"
    }
  ],
  "bytecode": "0x60806040523480156200001157600080fd5b506040516200195a3803806200195a8339818101604052810190620000379190620001e4565b6000620000496200013760201b60201c565b9050806000806101000a81548173ffffffffffffffffffffffffffffffffffffffff021916908373ffffffffffffffffffffffffffffffffffffffff1602179055508073ffffffffffffffffffffffffffffffffffffffff16600073ffffffffffffffffffffffffffffffffffffffff167f8be0079c531659141344cd1fd0a4f28419497f9722a3daafe3b4186f6b6457e060405160405180910390a35081600160006101000a81548173ffffffffffffffffffffffffffffffffffffffff021916908373ffffffffffffffffffffffffffffffffffffffff1602179055508060028190555050506200022b565b600033905090565b600080fd5b600073ffffffffffffffffffffffffffffffffffffffff82169050919050565b6000620001718262000144565b9050919050565b620001838162000164565b81146200018f57600080fd5b50565b600081519050620001a38162000178565b92915050565b6000819050919050565b620001be81620001a9565b8114620001ca57600080fd5b50565b600081519050620001de81620001b3565b92915050565b60008060408385031215620001fe57620001fd6200013f565b5b60006200020e8582860162000192565b92505060206200022185828601620001cd565b9150509250929050565b61171f806200023b6000396000f3fe60806040526004361061007b5760003560e01c80637ff9b5961161004e5780637ff9b5961461011d5780638da5cb5b14610148578063f2fde38b14610173578063fc0c546a1461019c5761007b565b80633610724e14610080578063380d831b146100b0578063518ab2a8146100db578063715018a614610106575b600080fd5b61009a60048036038101906100959190610da5565b6101c7565b6040516100a79190610ded565b60405180910390f35b3480156100bc57600080fd5b506100c56101db565b6040516100d29190610ded565b60405180910390f35b3480156100e757600080fd5b506100f0610281565b6040516100fd9190610e17565b60405180910390f35b34801561011257600080fd5b5061011b61028b565b005b34801561012957600080fd5b506101326103de565b60405161013f9190610e17565b60405180910390f35b34801561015457600080fd5b5061015d6103e8565b60405161016a9190610e73565b60405180910390f35b34801561017f57600080fd5b5061019a60048036038101906101959190610eba565b610411565b005b3480156101a857600080fd5b506101b16104b2565b6040516101be9190610f46565b60405180910390f35b60006101d2826104dc565b60019050919050565b60006101e561080b565b73ffffffffffffffffffffffffffffffffffffffff1660008054906101000a900473ffffffffffffffffffffffffffffffffffffffff1673ffffffffffffffffffffffffffffffffffffffff1614610272576040517f08c379a000000000000000000000000000000000000000000000000000000000815260040161026990610fbe565b60405180910390fd5b61027a610813565b6001905090565b6000600354905090565b61029361080b565b73ffffffffffffffffffffffffffffffffffffffff1660008054906101000a900473ffffffffffffffffffffffffffffffffffffffff1673ffffffffffffffffffffffffffffffffffffffff1614610320576040517f08c379a000000000000000000000000000000000000000000000000000000000815260040161031790610fbe565b60405180910390fd5b600073ffffffffffffffffffffffffffffffffffffffff1660008054906101000a900473ffffffffffffffffffffffffffffffffffffffff1673ffffffffffffffffffffffffffffffffffffffff167f8be0079c531659141344cd1fd0a4f28419497f9722a3daafe3b4186f6b6457e060405160405180910390a360008060006101000a81548173ffffffffffffffffffffffffffffffffffffffff021916908373ffffffffffffffffffffffffffffffffffffffff160217905550565b6000600254905090565b60008060009054906101000a900473ffffffffffffffffffffffffffffffffffffffff16905090565b61041961080b565b73ffffffffffffffffffffffffffffffffffffffff1660008054906101000a900473ffffffffffffffffffffffffffffffffffffffff1673ffffffffffffffffffffffffffffffffffffffff16146104a6576040517f08c379a000000000000000000000000000000000000000000000000000000000815260040161049d90610fbe565b60405180910390fd5b6104af81610ab1565b50565b6000600160009054906101000a900473ffffffffffffffffffffffffffffffffffffffff16905090565b600073ffffffffffffffffffffffffffffffffffffffff166104fc61080b565b73ffffffffffffffffffffffffffffffffffffffff1603610552576040517f08c379a000000000000000000000000000000000000000000000000000000000815260040161054990611050565b60405180910390fd5b610581600254610573670de0b6b3a764000084610bdd90919063ffffffff16565b610c2790919063ffffffff16565b610589610ca1565b146105c9576040517f08c379a00000000000000000000000000000000000000000000000000000000081526004016105c0906110e2565b60405180910390fd5b80600160009054906101000a900473ffffffffffffffffffffffffffffffffffffffff1673ffffffffffffffffffffffffffffffffffffffff166370a08231306040518263ffffffff1660e01b81526004016106259190610e73565b602060405180830381865afa158015610642573d6000803e3d6000fd5b505050506040513d601f19601f820116820180604052508101906106669190611117565b10156106a7576040517f08c379a000000000000000000000000000000000000000000000000000000000815260040161069e906111b6565b60405180910390fd5b600160009054906101000a900473ffffffffffffffffffffffffffffffffffffffff1673ffffffffffffffffffffffffffffffffffffffff1663a9059cbb6106ed61080b565b836040518363ffffffff1660e01b815260040161070b9291906111d6565b6020604051808303816000875af115801561072a573d6000803e3d6000fd5b505050506040513d601f19601f8201168201806040525081019061074e919061122b565b61078d576040517f08c379a0000000000000000000000000000000000000000000000000000000008152600401610784906112ca565b60405180910390fd5b6107a281600354610ca990919063ffffffff16565b6003819055506107b061080b565b73ffffffffffffffffffffffffffffffffffffffff167fbeae048c6d270d9469f86cf6e8fedda3c60ad770f16c24c9fc131c8e9a09101d6107ef610ca1565b8342604051610800939291906112ea565b60405180910390a250565b600033905090565b61081b61080b565b73ffffffffffffffffffffffffffffffffffffffff1660008054906101000a900473ffffffffffffffffffffffffffffffffffffffff1673ffffffffffffffffffffffffffffffffffffffff16146108a8576040517f08c379a000000000000000000000000000000000000000000000000000000000815260040161089f90610fbe565b60405180910390fd5b6000600160009054906101000a900473ffffffffffffffffffffffffffffffffffffffff1673ffffffffffffffffffffffffffffffffffffffff166370a08231306040518263ffffffff1660e01b81526004016109059190610e73565b602060405180830381865afa158015610922573d6000803e3d6000fd5b505050506040513d601f19601f820116820180604052508101906109469190611117565b90506000811115610a3857600160009054906101000a900473ffffffffffffffffffffffffffffffffffffffff1673ffffffffffffffffffffffffffffffffffffffff1663a9059cbb6109976103e8565b836040518363ffffffff1660e01b81526004016109b59291906111d6565b6020604051808303816000875af11580156109d4573d6000803e3d6000fd5b505050506040513d601f19601f820116820180604052508101906109f8919061122b565b610a37576040517f08c379a0000000000000000000000000000000000000000000000000000000008152600401610a2e90611393565b60405180910390fd5b5b610a406103e8565b73ffffffffffffffffffffffffffffffffffffffff167f14a8b16f13989fb57e56abb86b639d4c514f22fd4eab3d884631398676077b3a478342604051610a89939291906112ea565b60405180910390a2610a996103e8565b73ffffffffffffffffffffffffffffffffffffffff16ff5b600073ffffffffffffffffffffffffffffffffffffffff168173ffffffffffffffffffffffffffffffffffffffff1603610b20576040517f08c379a0000000000000000000000000000000000000000000000000000000008152600401610b1790611425565b60405180910390fd5b8073ffffffffffffffffffffffffffffffffffffffff1660008054906101000a900473ffffffffffffffffffffffffffffffffffffffff1673ffffffffffffffffffffffffffffffffffffffff167f8be0079c531659141344cd1fd0a4f28419497f9722a3daafe3b4186f6b6457e060405160405180910390a3806000806101000a81548173ffffffffffffffffffffffffffffffffffffffff021916908373ffffffffffffffffffffffffffffffffffffffff16021790555050565b6000610c1f83836040518060400160405280601a81526020017f536166654d6174683a206469766973696f6e206279207a65726f000000000000815250610d07565b905092915050565b6000808303610c395760009050610c9b565b60008284610c479190611474565b9050828482610c5691906114e5565b14610c96576040517f08c379a0000000000000000000000000000000000000000000000000000000008152600401610c8d90611588565b60405180910390fd5b809150505b92915050565b600034905090565b6000808284610cb891906115a8565b905083811015610cfd576040517f08c379a0000000000000000000000000000000000000000000000000000000008152600401610cf490611628565b60405180910390fd5b8091505092915050565b60008083118290610d4e576040517f08c379a0000000000000000000000000000000000000000000000000000000008152600401610d4591906116c7565b60405180910390fd5b5060008385610d5d91906114e5565b9050809150509392505050565b600080fd5b6000819050919050565b610d8281610d6f565b8114610d8d57600080fd5b50565b600081359050610d9f81610d79565b92915050565b600060208284031215610dbb57610dba610d6a565b5b6000610dc984828501610d90565b91505092915050565b60008115159050919050565b610de781610dd2565b82525050565b6000602082019050610e026000830184610dde565b92915050565b610e1181610d6f565b82525050565b6000602082019050610e2c6000830184610e08565b92915050565b600073ffffffffffffffffffffffffffffffffffffffff82169050919050565b6000610e5d82610e32565b9050919050565b610e6d81610e52565b82525050565b6000602082019050610e886000830184610e64565b92915050565b610e9781610e52565b8114610ea257600080fd5b50565b600081359050610eb481610e8e565b92915050565b600060208284031215610ed057610ecf610d6a565b5b6000610ede84828501610ea5565b91505092915050565b6000819050919050565b6000610f0c610f07610f0284610e32565b610ee7565b610e32565b9050919050565b6000610f1e82610ef1565b9050919050565b6000610f3082610f13565b9050919050565b610f4081610f25565b82525050565b6000602082019050610f5b6000830184610f37565b92915050565b600082825260208201905092915050565b7f4f776e61626c653a2063616c6c6572206973206e6f7420746865206f776e6572600082015250565b6000610fa8602083610f61565b9150610fb382610f72565b602082019050919050565b60006020820190508181036000830152610fd781610f9b565b9050919050565b7f50726573616c653a2053656e64657220697320746865207a65726f206164647260008201527f6573730000000000000000000000000000000000000000000000000000000000602082015250565b600061103a602383610f61565b915061104582610fde565b604082019050919050565b600060208201905081810360008301526110698161102d565b9050919050565b7f50726573616c653a2056616c7565206973206e6f7420657175616c20746f6b6560008201527f6e2076616c75652e000000000000000000000000000000000000000000000000602082015250565b60006110cc602883610f61565b91506110d782611070565b604082019050919050565b600060208201905081810360008301526110fb816110bf565b9050919050565b60008151905061111181610d79565b92915050565b60006020828403121561112d5761112c610d6a565b5b600061113b84828501611102565b91505092915050565b7f50726573616c653a20546f6b656e2076616c756520697320677265617465722060008201527f7468616e2070726573616c6520636f6e74726163742062616c616e63652e0000602082015250565b60006111a0603e83610f61565b91506111ab82611144565b604082019050919050565b600060208201905081810360008301526111cf81611193565b9050919050565b60006040820190506111eb6000830185610e64565b6111f86020830184610e08565b9392505050565b61120881610dd2565b811461121357600080fd5b50565b600081519050611225816111ff565b92915050565b60006020828403121561124157611240610d6a565b5b600061124f84828501611216565b91505092915050565b7f50726573616c653a204661696c6564207472616e7366657220746f6b656e207460008201527f6f2073656e6465722e0000000000000000000000000000000000000000000000602082015250565b60006112b4602983610f61565b91506112bf82611258565b604082019050919050565b600060208201905081810360008301526112e3816112a7565b9050919050565b60006060820190506112ff6000830186610e08565b61130c6020830185610e08565b6113196040830184610e08565b949350505050565b7f50726573616c653a204661696c6564207472616e7366657220746f6b656e207460008201527f6f206f776e65722e000000000000000000000000000000000000000000000000602082015250565b600061137d602883610f61565b915061138882611321565b604082019050919050565b600060208201905081810360008301526113ac81611370565b9050919050565b7f4f776e61626c653a206e6577206f776e657220697320746865207a65726f206160008201527f6464726573730000000000000000000000000000000000000000000000000000602082015250565b600061140f602683610f61565b915061141a826113b3565b604082019050919050565b6000602082019050818103600083015261143e81611402565b9050919050565b7f4e487b7100000000000000000000000000000000000000000000000000000000600052601160045260246000fd5b600061147f82610d6f565b915061148a83610d6f565b925082820261149881610d6f565b915082820484148315176114af576114ae611445565b5b5092915050565b7f4e487b7100000000000000000000000000000000000000000000000000000000600052601260045260246000fd5b60006114f082610d6f565b91506114fb83610d6f565b92508261150b5761150a6114b6565b5b828204905092915050565b7f536166654d6174683a206d756c7469706c69636174696f6e206f766572666c6f60008201527f7700000000000000000000000000000000000000000000000000000000000000602082015250565b6000611572602183610f61565b915061157d82611516565b604082019050919050565b600060208201905081810360008301526115a181611565565b9050919050565b60006115b382610d6f565b91506115be83610d6f565b92508282019050808211156115d6576115d5611445565b5b92915050565b7f536166654d6174683a206164646974696f6e206f766572666c6f770000000000600082015250565b6000611612601b83610f61565b915061161d826115dc565b602082019050919050565b6000602082019050818103600083015261164181611605565b9050919050565b600081519050919050565b60005b83811015611671578082015181840152602081019050611656565b60008484015250505050565b6000601f19601f8301169050919050565b600061169982611648565b6116a38185610f61565b93506116b3818560208601611653565b6116bc8161167d565b840191505092915050565b600060208201905081810360008301526116e1818461168e565b90509291505056fea264697066735822122019c2435ee0f4c0afafbf81c39ceb090ad58cf92001714209e0a90a2346e1ef0c64736f6c63430008110033",
  "immutableReferences": {},
  "source": "// SPDX-License-Identifier: MIT\npragma solidity ^0.8.17;\n\nimport \"./Context.sol\";\nimport \"./IERC20.sol\";\nimport \"./IPresale.sol\";\nimport \"./Ownable.sol\";\nimport \"./SafeMath.sol\";\n\ncontract Presale is Context, IPresale, Ownable {\n    using SafeMath for uint256;\n\n    IERC20 private _token;\n    uint256 private _tokenPrice;\n    uint256 private _tokensSold;\n\n    /**\n     * @param token_ Token contract address.\n     * @param tokenPrice_ Initial token price.\n     */\n    constructor(address token_, uint256 tokenPrice_) {\n        _token = IERC20(token_);\n        _tokenPrice = tokenPrice_;\n    }\n\n    /**\n     * @dev Returns the erc token address.\n     */\n    function token() external view returns(IERC20) {\n        return _token;\n    }\n\n    /**\n     * @dev Returns the token price.\n     */\n    function tokenPrice() external view returns(uint256) {\n        return _tokenPrice;\n    }\n\n    /**\n     * @dev Returns the tokens sold.\n     */\n    function tokensSold() external view returns(uint256) {\n        return _tokensSold;\n    }\n\n    /**\n     * @dev Transfers tokens bought by buyer.\n     *\n     * @param amount Amount of token to buy.\n     */\n    function buyTokens(uint256 amount) external payable returns(bool) {\n        _buyTokens(amount);\n        return true;\n    }\n\n    /**\n     * @dev End the presale.\n     */\n    function endSale() external onlyOwner returns(bool) {\n        _endSale();\n        return true;\n    }\n\n    /**\n     * @dev Transfers tokens bought by buyer.\n     *\n     * @param amount Amount of token to buy.\n     */\n    function _buyTokens(uint256 amount) internal {\n        require(_msgSender() != address(0), \"Presale: Sender is the zero address\");\n        require(_msgValue() == (amount.div(1e18)).mul(_tokenPrice), \"Presale: Value is not equal token value.\");\n        require(_token.balanceOf(address(this)) >= amount, \"Presale: Token value is greater than presale contract balance.\");\n        require(_token.transfer(_msgSender(), amount), \"Presale: Failed transfer token to sender.\");\n        _tokensSold = _tokensSold.add(amount);\n        emit Buy(_msgSender(), _msgValue(), amount, block.timestamp);\n    }\n\n    /**\n     * @dev End the presale.\n     */\n    function _endSale() internal onlyOwner {\n        uint256 amount = _token.balanceOf(address(this));\n        if (amount > 0) require(_token.transfer(owner(), amount), \"Presale: Failed transfer token to owner.\");\n        emit End(owner(), address(this).balance, amount, block.timestamp);\n        selfdestruct(payable(owner()));\n    }\n}\n",
  "sourcePath": "/home/scranaver/Projects/emotion/contracts/Presale.sol",
  "compiler": {
    "name": "solc",
    "version": "0.8.17+commit.8df45f5f.Emscripten.clang"
  },
  "schemaVersion": "3.4.16",
  "updatedAt": "2024-12-20T07:28:11.482Z",
  "networkType": "ethereum",
  "devdoc": {
    "kind": "dev",
    "methods": {
      "buyTokens(uint256)": {
        "details": "Transfers tokens bought by buyer.",
        "params": {
          "amount": "Amount of token to buy."
        }
      },
      "constructor": {
        "params": {
          "tokenPrice_": "Initial token price.",
          "token_": "Token contract address."
        }
      },
      "endSale()": {
        "details": "End the presale."
      },
      "owner()": {
        "details": "Returns the address of the current owner."
      },
      "renounceOwnership()": {
        "details": "Leaves the contract without owner. It will not be possible to call `onlyOwner` functions anymore. Can only be called by the current owner. NOTE: Renouncing ownership will leave the contract without an owner, thereby removing any functionality that is only available to the owner."
      },
      "token()": {
        "details": "Returns the erc token address."
      },
      "tokenPrice()": {
        "details": "Returns the token price."
      },
      "tokensSold()": {
        "details": "Returns the tokens sold."
      },
      "transferOwnership(address)": {
        "details": "Transfers ownership of the contract to a new account (`newOwner`). Can only be called by the current owner."
      }
    },
    "version": 1
  },
  "userdoc": {
    "kind": "user",
    "methods": {},
    "version": 1
  }
}