{
  "contractName": "Presale",
  "abi": [
    {
      "inputs": [
        {
          "internalType": "contract ERC20Token",
          "name": "_tokenContract",
          "type": "address"
        },
        {
          "internalType": "uint256",
          "name": "_tokenPrice",
          "type": "uint256"
        }
      ],
      "payable": false,
      "stateMutability": "nonpayable",
      "type": "constructor"
    },
    {
      "anonymous": false,
      "inputs": [
        {
          "indexed": true,
          "internalType": "address",
          "name": "_buyer",
          "type": "address"
        },
        {
          "indexed": false,
          "internalType": "uint256",
          "name": "_amountPrimary",
          "type": "uint256"
        },
        {
          "indexed": false,
          "internalType": "uint256",
          "name": "_amountToken",
          "type": "uint256"
        },
        {
          "indexed": false,
          "internalType": "uint256",
          "name": "_timestamp",
          "type": "uint256"
        }
      ],
      "name": "Buy",
      "type": "event"
    },
    {
      "anonymous": false,
      "inputs": [
        {
          "indexed": true,
          "internalType": "address",
          "name": "previousOwner",
          "type": "address"
        },
        {
          "indexed": true,
          "internalType": "address",
          "name": "newOwner",
          "type": "address"
        }
      ],
      "name": "OwnershipTransferred",
      "type": "event"
    },
    {
      "constant": true,
      "inputs": [],
      "name": "owner",
      "outputs": [
        {
          "internalType": "address",
          "name": "",
          "type": "address"
        }
      ],
      "payable": false,
      "stateMutability": "view",
      "type": "function"
    },
    {
      "constant": false,
      "inputs": [],
      "name": "renounceOwnership",
      "outputs": [],
      "payable": false,
      "stateMutability": "nonpayable",
      "type": "function"
    },
    {
      "constant": true,
      "inputs": [],
      "name": "tokenContract",
      "outputs": [
        {
          "internalType": "contract ERC20Token",
          "name": "",
          "type": "address"
        }
      ],
      "payable": false,
      "stateMutability": "view",
      "type": "function"
    },
    {
      "constant": true,
      "inputs": [],
      "name": "tokenPrice",
      "outputs": [
        {
          "internalType": "uint256",
          "name": "",
          "type": "uint256"
        }
      ],
      "payable": false,
      "stateMutability": "view",
      "type": "function"
    },
    {
      "constant": true,
      "inputs": [],
      "name": "tokensSold",
      "outputs": [
        {
          "internalType": "uint256",
          "name": "",
          "type": "uint256"
        }
      ],
      "payable": false,
      "stateMutability": "view",
      "type": "function"
    },
    {
      "constant": false,
      "inputs": [
        {
          "internalType": "address",
          "name": "newOwner",
          "type": "address"
        }
      ],
      "name": "transferOwnership",
      "outputs": [],
      "payable": false,
      "stateMutability": "nonpayable",
      "type": "function"
    },
    {
      "constant": false,
      "inputs": [
        {
          "internalType": "uint256",
          "name": "_numberOfTokens",
          "type": "uint256"
        }
      ],
      "name": "buyTokens",
      "outputs": [],
      "payable": true,
      "stateMutability": "payable",
      "type": "function"
    },
    {
      "constant": false,
      "inputs": [],
      "name": "endSale",
      "outputs": [],
      "payable": false,
      "stateMutability": "nonpayable",
      "type": "function"
    }
  ],
  "bytecode": "0x608060405234801561001057600080fd5b506040516110e73803806110e78339818101604052604081101561003357600080fd5b810190808051906020019092919080519060200190929190505050600061005e61019960201b60201c565b9050806000806101000a81548173ffffffffffffffffffffffffffffffffffffffff021916908373ffffffffffffffffffffffffffffffffffffffff1602179055508073ffffffffffffffffffffffffffffffffffffffff16600073ffffffffffffffffffffffffffffffffffffffff167f8be0079c531659141344cd1fd0a4f28419497f9722a3daafe3b4186f6b6457e060405160405180910390a35061010a61019960201b60201c565b600160006101000a81548173ffffffffffffffffffffffffffffffffffffffff021916908373ffffffffffffffffffffffffffffffffffffffff16021790555081600260006101000a81548173ffffffffffffffffffffffffffffffffffffffff021916908373ffffffffffffffffffffffffffffffffffffffff1602179055508060038190555050506101a1565b600033905090565b610f37806101b06000396000f3fe60806040526004361061007b5760003560e01c8063715018a61161004e578063715018a6146101475780637ff9b5961461015e5780638da5cb5b14610189578063f2fde38b146101e05761007b565b80633610724e14610080578063380d831b146100ae578063518ab2a8146100c557806355a373d6146100f0575b600080fd5b6100ac6004803603602081101561009657600080fd5b8101908080359060200190929190505050610231565b005b3480156100ba57600080fd5b506100c36105e9565b005b3480156100d157600080fd5b506100da6108e4565b6040518082815260200191505060405180910390f35b3480156100fc57600080fd5b506101056108ea565b604051808273ffffffffffffffffffffffffffffffffffffffff1673ffffffffffffffffffffffffffffffffffffffff16815260200191505060405180910390f35b34801561015357600080fd5b5061015c610910565b005b34801561016a57600080fd5b50610173610a98565b6040518082815260200191505060405180910390f35b34801561019557600080fd5b5061019e610a9e565b604051808273ffffffffffffffffffffffffffffffffffffffff1673ffffffffffffffffffffffffffffffffffffffff16815260200191505060405180910390f35b3480156101ec57600080fd5b5061022f6004803603602081101561020357600080fd5b81019080803573ffffffffffffffffffffffffffffffffffffffff169060200190929190505050610ac7565b005b610260600354610252670de0b6b3a764000084610b9c90919063ffffffff16565b610be690919063ffffffff16565b610268610c6c565b146102db576040517f08c379a000000000000000000000000000000000000000000000000000000000815260040180806020018281038252601f8152602001807f56616c7565206973206e6f7420657175616c20746f6b656e2076616c75652e0081525060200191505060405180910390fd5b80600260009054906101000a900473ffffffffffffffffffffffffffffffffffffffff1673ffffffffffffffffffffffffffffffffffffffff166370a08231306040518263ffffffff1660e01b8152600401808273ffffffffffffffffffffffffffffffffffffffff1673ffffffffffffffffffffffffffffffffffffffff16815260200191505060206040518083038186803b15801561037b57600080fd5b505afa15801561038f573d6000803e3d6000fd5b505050506040513d60208110156103a557600080fd5b8101908080519060200190929190505050101561040d576040517f08c379a0000000000000000000000000000000000000000000000000000000008152600401808060200182810382526035815260200180610ead6035913960400191505060405180910390fd5b600260009054906101000a900473ffffffffffffffffffffffffffffffffffffffff1673ffffffffffffffffffffffffffffffffffffffff1663a9059cbb610453610c74565b836040518363ffffffff1660e01b8152600401808373ffffffffffffffffffffffffffffffffffffffff1673ffffffffffffffffffffffffffffffffffffffff16815260200182815260200192505050602060405180830381600087803b1580156104bd57600080fd5b505af11580156104d1573d6000803e3d6000fd5b505050506040513d60208110156104e757600080fd5b810190808051906020019092919050505061056a576040517f08c379a00000000000000000000000000000000000000000000000000000000081526004018080602001828103825260208152602001807f4661696c6564207472616e7366657220746f6b656e20746f2073656e6465722e81525060200191505060405180910390fd5b80600460008282540192505081905550610582610c74565b73ffffffffffffffffffffffffffffffffffffffff167fbeae048c6d270d9469f86cf6e8fedda3c60ad770f16c24c9fc131c8e9a09101d6105c1610c6c565b834260405180848152602001838152602001828152602001935050505060405180910390a250565b6105f1610c74565b73ffffffffffffffffffffffffffffffffffffffff166000809054906101000a900473ffffffffffffffffffffffffffffffffffffffff1673ffffffffffffffffffffffffffffffffffffffff16146106b2576040517f08c379a00000000000000000000000000000000000000000000000000000000081526004018080602001828103825260208152602001807f4f776e61626c653a2063616c6c6572206973206e6f7420746865206f776e657281525060200191505060405180910390fd5b6000600260009054906101000a900473ffffffffffffffffffffffffffffffffffffffff1673ffffffffffffffffffffffffffffffffffffffff166370a08231306040518263ffffffff1660e01b8152600401808273ffffffffffffffffffffffffffffffffffffffff1673ffffffffffffffffffffffffffffffffffffffff16815260200191505060206040518083038186803b15801561075357600080fd5b505afa158015610767573d6000803e3d6000fd5b505050506040513d602081101561077d57600080fd5b8101908080519060200190929190505050905060008111156108a957600260009054906101000a900473ffffffffffffffffffffffffffffffffffffffff1673ffffffffffffffffffffffffffffffffffffffff1663a9059cbb600160009054906101000a900473ffffffffffffffffffffffffffffffffffffffff16836040518363ffffffff1660e01b8152600401808373ffffffffffffffffffffffffffffffffffffffff1673ffffffffffffffffffffffffffffffffffffffff16815260200182815260200192505050602060405180830381600087803b15801561086457600080fd5b505af1158015610878573d6000803e3d6000fd5b505050506040513d602081101561088e57600080fd5b81019080805190602001909291905050506108a857600080fd5b5b600160009054906101000a900473ffffffffffffffffffffffffffffffffffffffff1673ffffffffffffffffffffffffffffffffffffffff16ff5b60045481565b600260009054906101000a900473ffffffffffffffffffffffffffffffffffffffff1681565b610918610c74565b73ffffffffffffffffffffffffffffffffffffffff166000809054906101000a900473ffffffffffffffffffffffffffffffffffffffff1673ffffffffffffffffffffffffffffffffffffffff16146109d9576040517f08c379a00000000000000000000000000000000000000000000000000000000081526004018080602001828103825260208152602001807f4f776e61626c653a2063616c6c6572206973206e6f7420746865206f776e657281525060200191505060405180910390fd5b600073ffffffffffffffffffffffffffffffffffffffff166000809054906101000a900473ffffffffffffffffffffffffffffffffffffffff1673ffffffffffffffffffffffffffffffffffffffff167f8be0079c531659141344cd1fd0a4f28419497f9722a3daafe3b4186f6b6457e060405160405180910390a360008060006101000a81548173ffffffffffffffffffffffffffffffffffffffff021916908373ffffffffffffffffffffffffffffffffffffffff160217905550565b60035481565b60008060009054906101000a900473ffffffffffffffffffffffffffffffffffffffff16905090565b610acf610c74565b73ffffffffffffffffffffffffffffffffffffffff166000809054906101000a900473ffffffffffffffffffffffffffffffffffffffff1673ffffffffffffffffffffffffffffffffffffffff1614610b90576040517f08c379a00000000000000000000000000000000000000000000000000000000081526004018080602001828103825260208152602001807f4f776e61626c653a2063616c6c6572206973206e6f7420746865206f776e657281525060200191505060405180910390fd5b610b9981610c7c565b50565b6000610bde83836040518060400160405280601a81526020017f536166654d6174683a206469766973696f6e206279207a65726f000000000000815250610dc0565b905092915050565b600080831415610bf95760009050610c66565b6000828402905082848281610c0a57fe5b0414610c61576040517f08c379a0000000000000000000000000000000000000000000000000000000008152600401808060200182810382526021815260200180610ee26021913960400191505060405180910390fd5b809150505b92915050565b600034905090565b600033905090565b600073ffffffffffffffffffffffffffffffffffffffff168173ffffffffffffffffffffffffffffffffffffffff161415610d02576040517f08c379a0000000000000000000000000000000000000000000000000000000008152600401808060200182810382526026815260200180610e876026913960400191505060405180910390fd5b8073ffffffffffffffffffffffffffffffffffffffff166000809054906101000a900473ffffffffffffffffffffffffffffffffffffffff1673ffffffffffffffffffffffffffffffffffffffff167f8be0079c531659141344cd1fd0a4f28419497f9722a3daafe3b4186f6b6457e060405160405180910390a3806000806101000a81548173ffffffffffffffffffffffffffffffffffffffff021916908373ffffffffffffffffffffffffffffffffffffffff16021790555050565b60008083118290610e6c576040517f08c379a00000000000000000000000000000000000000000000000000000000081526004018080602001828103825283818151815260200191508051906020019080838360005b83811015610e31578082015181840152602081019050610e16565b50505050905090810190601f168015610e5e5780820380516001836020036101000a031916815260200191505b509250505060405180910390fd5b506000838581610e7857fe5b04905080915050939250505056fe4f776e61626c653a206e6577206f776e657220697320746865207a65726f2061646472657373546f6b656e2076616c75652069732067726561746572207468616e2070726573616c6520636f6e74726163742062616c616e63652e536166654d6174683a206d756c7469706c69636174696f6e206f766572666c6f77a265627a7a723158205531057f77c2fe8eb5472e31b43ff9b6b719f6a6a3b62ec7e36ae819ad8fe3c664736f6c63430005100032",
  "source": "pragma solidity ^0.5.16;\n\nimport \"./Ownable.sol\";\nimport \"./SafeMath.sol\";\nimport \"./ERC20Token.sol\";\n\ncontract Presale is Context, Ownable {\n    using SafeMath for uint256;\n\n    address payable ownerAddress;\n\n    ERC20Token public tokenContract;\n\n    uint256 public tokenPrice;\n    uint256 public tokensSold;\n\n    /**\n     * @param _buyer Buyer's address.\n     * @param _amountPrimary Amount of primary.\n     * @param _amountToken Amount of token.\n     * @param _timestamp Block timestamp.\n     */\n    event Buy(address indexed _buyer, uint256 _amountPrimary, uint256 _amountToken, uint256 _timestamp);\n\n    /**\n     * @param _tokenContract Token contract address.\n     * @param _tokenPrice Initial token price.\n     */\n    constructor(ERC20Token _tokenContract, uint256 _tokenPrice) public {\n        ownerAddress = _msgSender();\n        tokenContract = _tokenContract;\n        tokenPrice = _tokenPrice;\n    }\n\n    /**\n     * @param _numberOfTokens Token amount.\n     */\n    function buyTokens(uint256 _numberOfTokens) public payable {\n        require(_msgValue() == (_numberOfTokens.div(1e18)).mul(tokenPrice), \"Value is not equal token value.\");\n        require(tokenContract.balanceOf(address(this)) >= _numberOfTokens, \"Token value is greater than presale contract balance.\");\n        require(tokenContract.transfer(_msgSender(), _numberOfTokens), \"Failed transfer token to sender.\");\n        tokensSold += _numberOfTokens;\n        emit Buy(_msgSender(), _msgValue(), _numberOfTokens, block.timestamp);\n    }\n\n    /**\n     * @dev Ends sale the token sale period.\n     */\n    function endSale() public onlyOwner {\n        uint256 contractBalance = tokenContract.balanceOf(address(this));\n        if (contractBalance > 0) require(tokenContract.transfer(ownerAddress, contractBalance));\n        selfdestruct(ownerAddress);\n    }\n}\n",
  "sourcePath": "/home/scranaver/Projects/emotion/contracts/Presale.sol",
  "compiler": {
    "name": "solc",
    "version": "0.5.16+commit.9c3226ce.Emscripten.clang"
  },
  "schemaVersion": "3.4.16",
  "updatedAt": "2024-12-15T09:21:05.772Z",
  "networkType": "ethereum",
  "devdoc": {
    "methods": {
      "buyTokens(uint256)": {
        "params": {
          "_numberOfTokens": "Token amount."
        }
      },
      "constructor": {
        "params": {
          "_tokenContract": "Token contract address.",
          "_tokenPrice": "Initial token price."
        }
      },
      "endSale()": {
        "details": "Ends sale the token sale period."
      },
      "owner()": {
        "details": "Returns the address of the current owner."
      },
      "renounceOwnership()": {
        "details": "Leaves the contract without owner. It will not be possible to call `onlyOwner` functions anymore. Can only be called by the current owner.     * NOTE: Renouncing ownership will leave the contract without an owner, thereby removing any functionality that is only available to the owner."
      },
      "transferOwnership(address)": {
        "details": "Transfers ownership of the contract to a new account (`newOwner`). Can only be called by the current owner."
      }
    }
  },
  "userdoc": {
    "methods": {}
  }
}