{
  "contractName": "Presale",
  "abi": [
    {
      "inputs": [
        {
          "internalType": "address",
          "name": "token_",
          "type": "address"
        },
        {
          "internalType": "uint256",
          "name": "tokenPrice_",
          "type": "uint256"
        }
      ],
      "payable": false,
      "stateMutability": "nonpayable",
      "type": "constructor"
    },
    {
      "anonymous": false,
      "inputs": [
        {
          "indexed": true,
          "internalType": "address",
          "name": "buyer",
          "type": "address"
        },
        {
          "indexed": false,
          "internalType": "uint256",
          "name": "amountPrimary",
          "type": "uint256"
        },
        {
          "indexed": false,
          "internalType": "uint256",
          "name": "amountToken",
          "type": "uint256"
        },
        {
          "indexed": false,
          "internalType": "uint256",
          "name": "timestamp",
          "type": "uint256"
        }
      ],
      "name": "Buy",
      "type": "event"
    },
    {
      "anonymous": false,
      "inputs": [
        {
          "indexed": true,
          "internalType": "address",
          "name": "owner",
          "type": "address"
        },
        {
          "indexed": false,
          "internalType": "uint256",
          "name": "balance",
          "type": "uint256"
        },
        {
          "indexed": false,
          "internalType": "uint256",
          "name": "amount",
          "type": "uint256"
        },
        {
          "indexed": false,
          "internalType": "uint256",
          "name": "timestamp",
          "type": "uint256"
        }
      ],
      "name": "End",
      "type": "event"
    },
    {
      "anonymous": false,
      "inputs": [
        {
          "indexed": true,
          "internalType": "address",
          "name": "previousOwner",
          "type": "address"
        },
        {
          "indexed": true,
          "internalType": "address",
          "name": "newOwner",
          "type": "address"
        }
      ],
      "name": "OwnershipTransferred",
      "type": "event"
    },
    {
      "constant": true,
      "inputs": [],
      "name": "owner",
      "outputs": [
        {
          "internalType": "address",
          "name": "",
          "type": "address"
        }
      ],
      "payable": false,
      "stateMutability": "view",
      "type": "function"
    },
    {
      "constant": false,
      "inputs": [],
      "name": "renounceOwnership",
      "outputs": [],
      "payable": false,
      "stateMutability": "nonpayable",
      "type": "function"
    },
    {
      "constant": false,
      "inputs": [
        {
          "internalType": "address",
          "name": "newOwner",
          "type": "address"
        }
      ],
      "name": "transferOwnership",
      "outputs": [],
      "payable": false,
      "stateMutability": "nonpayable",
      "type": "function"
    },
    {
      "constant": true,
      "inputs": [],
      "name": "token",
      "outputs": [
        {
          "internalType": "contract IERC20",
          "name": "",
          "type": "address"
        }
      ],
      "payable": false,
      "stateMutability": "view",
      "type": "function"
    },
    {
      "constant": true,
      "inputs": [],
      "name": "tokenPrice",
      "outputs": [
        {
          "internalType": "uint256",
          "name": "",
          "type": "uint256"
        }
      ],
      "payable": false,
      "stateMutability": "view",
      "type": "function"
    },
    {
      "constant": true,
      "inputs": [],
      "name": "tokensSold",
      "outputs": [
        {
          "internalType": "uint256",
          "name": "",
          "type": "uint256"
        }
      ],
      "payable": false,
      "stateMutability": "view",
      "type": "function"
    },
    {
      "constant": false,
      "inputs": [
        {
          "internalType": "uint256",
          "name": "amount",
          "type": "uint256"
        }
      ],
      "name": "buyTokens",
      "outputs": [
        {
          "internalType": "bool",
          "name": "",
          "type": "bool"
        }
      ],
      "payable": true,
      "stateMutability": "payable",
      "type": "function"
    },
    {
      "constant": false,
      "inputs": [],
      "name": "endSale",
      "outputs": [
        {
          "internalType": "bool",
          "name": "",
          "type": "bool"
        }
      ],
      "payable": false,
      "stateMutability": "nonpayable",
      "type": "function"
    }
  ],
  "bytecode": "0x608060405234801561001057600080fd5b506040516113b83803806113b88339818101604052604081101561003357600080fd5b810190808051906020019092919080519060200190929190505050600061005e61019960201b60201c565b9050806000806101000a81548173ffffffffffffffffffffffffffffffffffffffff021916908373ffffffffffffffffffffffffffffffffffffffff1602179055508073ffffffffffffffffffffffffffffffffffffffff16600073ffffffffffffffffffffffffffffffffffffffff167f8be0079c531659141344cd1fd0a4f28419497f9722a3daafe3b4186f6b6457e060405160405180910390a35061010a61019960201b60201c565b600160006101000a81548173ffffffffffffffffffffffffffffffffffffffff021916908373ffffffffffffffffffffffffffffffffffffffff16021790555081600260006101000a81548173ffffffffffffffffffffffffffffffffffffffff021916908373ffffffffffffffffffffffffffffffffffffffff1602179055508060038190555050506101a1565b600033905090565b611208806101b06000396000f3fe60806040526004361061007b5760003560e01c80637ff9b5961161004e5780637ff9b596146101375780638da5cb5b14610162578063f2fde38b146101b9578063fc0c546a1461020a5761007b565b80633610724e14610080578063380d831b146100c6578063518ab2a8146100f5578063715018a614610120575b600080fd5b6100ac6004803603602081101561009657600080fd5b8101908080359060200190929190505050610261565b604051808215151515815260200191505060405180910390f35b3480156100d257600080fd5b506100db610275565b604051808215151515815260200191505060405180910390f35b34801561010157600080fd5b5061010a61034f565b6040518082815260200191505060405180910390f35b34801561012c57600080fd5b50610135610359565b005b34801561014357600080fd5b5061014c6104e1565b6040518082815260200191505060405180910390f35b34801561016e57600080fd5b506101776104eb565b604051808273ffffffffffffffffffffffffffffffffffffffff1673ffffffffffffffffffffffffffffffffffffffff16815260200191505060405180910390f35b3480156101c557600080fd5b50610208600480360360208110156101dc57600080fd5b81019080803573ffffffffffffffffffffffffffffffffffffffff169060200190929190505050610514565b005b34801561021657600080fd5b5061021f6105e9565b604051808273ffffffffffffffffffffffffffffffffffffffff1673ffffffffffffffffffffffffffffffffffffffff16815260200191505060405180910390f35b600061026c82610613565b60019050919050565b600061027f61099c565b73ffffffffffffffffffffffffffffffffffffffff166000809054906101000a900473ffffffffffffffffffffffffffffffffffffffff1673ffffffffffffffffffffffffffffffffffffffff1614610340576040517f08c379a00000000000000000000000000000000000000000000000000000000081526004018080602001828103825260208152602001807f4f776e61626c653a2063616c6c6572206973206e6f7420746865206f776e657281525060200191505060405180910390fd5b6103486109a4565b6001905090565b6000600454905090565b61036161099c565b73ffffffffffffffffffffffffffffffffffffffff166000809054906101000a900473ffffffffffffffffffffffffffffffffffffffff1673ffffffffffffffffffffffffffffffffffffffff1614610422576040517f08c379a00000000000000000000000000000000000000000000000000000000081526004018080602001828103825260208152602001807f4f776e61626c653a2063616c6c6572206973206e6f7420746865206f776e657281525060200191505060405180910390fd5b600073ffffffffffffffffffffffffffffffffffffffff166000809054906101000a900473ffffffffffffffffffffffffffffffffffffffff1673ffffffffffffffffffffffffffffffffffffffff167f8be0079c531659141344cd1fd0a4f28419497f9722a3daafe3b4186f6b6457e060405160405180910390a360008060006101000a81548173ffffffffffffffffffffffffffffffffffffffff021916908373ffffffffffffffffffffffffffffffffffffffff160217905550565b6000600354905090565b60008060009054906101000a900473ffffffffffffffffffffffffffffffffffffffff16905090565b61051c61099c565b73ffffffffffffffffffffffffffffffffffffffff166000809054906101000a900473ffffffffffffffffffffffffffffffffffffffff1673ffffffffffffffffffffffffffffffffffffffff16146105dd576040517f08c379a00000000000000000000000000000000000000000000000000000000081526004018080602001828103825260208152602001807f4f776e61626c653a2063616c6c6572206973206e6f7420746865206f776e657281525060200191505060405180910390fd5b6105e681610d6b565b50565b6000600260009054906101000a900473ffffffffffffffffffffffffffffffffffffffff16905090565b610642600354610634670de0b6b3a764000084610eaf90919063ffffffff16565b610ef990919063ffffffff16565b61064a610f7f565b146106a0576040517f08c379a00000000000000000000000000000000000000000000000000000000081526004018080602001828103825260288152602001806111ac6028913960400191505060405180910390fd5b80600260009054906101000a900473ffffffffffffffffffffffffffffffffffffffff1673ffffffffffffffffffffffffffffffffffffffff166370a08231306040518263ffffffff1660e01b8152600401808273ffffffffffffffffffffffffffffffffffffffff1673ffffffffffffffffffffffffffffffffffffffff16815260200191505060206040518083038186803b15801561074057600080fd5b505afa158015610754573d6000803e3d6000fd5b505050506040513d602081101561076a57600080fd5b810190808051906020019092919050505010156107d2576040517f08c379a000000000000000000000000000000000000000000000000000000000815260040180806020018281038252603e81526020018061114d603e913960400191505060405180910390fd5b600260009054906101000a900473ffffffffffffffffffffffffffffffffffffffff1673ffffffffffffffffffffffffffffffffffffffff1663a9059cbb61081861099c565b836040518363ffffffff1660e01b8152600401808373ffffffffffffffffffffffffffffffffffffffff1673ffffffffffffffffffffffffffffffffffffffff16815260200182815260200192505050602060405180830381600087803b15801561088257600080fd5b505af1158015610896573d6000803e3d6000fd5b505050506040513d60208110156108ac57600080fd5b8101908080519060200190929190505050610912576040517f08c379a00000000000000000000000000000000000000000000000000000000081526004018080602001828103825260298152602001806111246029913960400191505060405180910390fd5b61092781600454610f8790919063ffffffff16565b60048190555061093561099c565b73ffffffffffffffffffffffffffffffffffffffff167fbeae048c6d270d9469f86cf6e8fedda3c60ad770f16c24c9fc131c8e9a09101d610974610f7f565b834260405180848152602001838152602001828152602001935050505060405180910390a250565b600033905090565b6109ac61099c565b73ffffffffffffffffffffffffffffffffffffffff166000809054906101000a900473ffffffffffffffffffffffffffffffffffffffff1673ffffffffffffffffffffffffffffffffffffffff1614610a6d576040517f08c379a00000000000000000000000000000000000000000000000000000000081526004018080602001828103825260208152602001807f4f776e61626c653a2063616c6c6572206973206e6f7420746865206f776e657281525060200191505060405180910390fd5b6000600260009054906101000a900473ffffffffffffffffffffffffffffffffffffffff1673ffffffffffffffffffffffffffffffffffffffff166370a08231306040518263ffffffff1660e01b8152600401808273ffffffffffffffffffffffffffffffffffffffff1673ffffffffffffffffffffffffffffffffffffffff16815260200191505060206040518083038186803b158015610b0e57600080fd5b505afa158015610b22573d6000803e3d6000fd5b505050506040513d6020811015610b3857600080fd5b810190808051906020019092919050505090506000811115610cb057600260009054906101000a900473ffffffffffffffffffffffffffffffffffffffff1673ffffffffffffffffffffffffffffffffffffffff1663a9059cbb600160009054906101000a900473ffffffffffffffffffffffffffffffffffffffff16836040518363ffffffff1660e01b8152600401808373ffffffffffffffffffffffffffffffffffffffff1673ffffffffffffffffffffffffffffffffffffffff16815260200182815260200192505050602060405180830381600087803b158015610c1f57600080fd5b505af1158015610c33573d6000803e3d6000fd5b505050506040513d6020811015610c4957600080fd5b8101908080519060200190929190505050610caf576040517f08c379a00000000000000000000000000000000000000000000000000000000081526004018080602001828103825260288152602001806110fc6028913960400191505060405180910390fd5b5b600160009054906101000a900473ffffffffffffffffffffffffffffffffffffffff1673ffffffffffffffffffffffffffffffffffffffff167f14a8b16f13989fb57e56abb86b639d4c514f22fd4eab3d884631398676077b3a47834260405180848152602001838152602001828152602001935050505060405180910390a2600160009054906101000a900473ffffffffffffffffffffffffffffffffffffffff1673ffffffffffffffffffffffffffffffffffffffff16ff5b600073ffffffffffffffffffffffffffffffffffffffff168173ffffffffffffffffffffffffffffffffffffffff161415610df1576040517f08c379a00000000000000000000000000000000000000000000000000000000081526004018080602001828103825260268152602001806110d66026913960400191505060405180910390fd5b8073ffffffffffffffffffffffffffffffffffffffff166000809054906101000a900473ffffffffffffffffffffffffffffffffffffffff1673ffffffffffffffffffffffffffffffffffffffff167f8be0079c531659141344cd1fd0a4f28419497f9722a3daafe3b4186f6b6457e060405160405180910390a3806000806101000a81548173ffffffffffffffffffffffffffffffffffffffff021916908373ffffffffffffffffffffffffffffffffffffffff16021790555050565b6000610ef183836040518060400160405280601a81526020017f536166654d6174683a206469766973696f6e206279207a65726f00000000000081525061100f565b905092915050565b600080831415610f0c5760009050610f79565b6000828402905082848281610f1d57fe5b0414610f74576040517f08c379a000000000000000000000000000000000000000000000000000000000815260040180806020018281038252602181526020018061118b6021913960400191505060405180910390fd5b809150505b92915050565b600034905090565b600080828401905083811015611005576040517f08c379a000000000000000000000000000000000000000000000000000000000815260040180806020018281038252601b8152602001807f536166654d6174683a206164646974696f6e206f766572666c6f77000000000081525060200191505060405180910390fd5b8091505092915050565b600080831182906110bb576040517f08c379a00000000000000000000000000000000000000000000000000000000081526004018080602001828103825283818151815260200191508051906020019080838360005b83811015611080578082015181840152602081019050611065565b50505050905090810190601f1680156110ad5780820380516001836020036101000a031916815260200191505b509250505060405180910390fd5b5060008385816110c757fe5b04905080915050939250505056fe4f776e61626c653a206e6577206f776e657220697320746865207a65726f206164647265737350726573616c653a204661696c6564207472616e7366657220746f6b656e20746f206f776e65722e50726573616c653a204661696c6564207472616e7366657220746f6b656e20746f2073656e6465722e50726573616c653a20546f6b656e2076616c75652069732067726561746572207468616e2070726573616c6520636f6e74726163742062616c616e63652e536166654d6174683a206d756c7469706c69636174696f6e206f766572666c6f7750726573616c653a2056616c7565206973206e6f7420657175616c20746f6b656e2076616c75652ea265627a7a723158203f76fed0fa2af0b234422573a5136dad962af3b880bc45d5e221f9b96fd2715364736f6c63430005100032",
  "source": "pragma solidity ^0.5.16;\n\nimport \"./Context.sol\";\nimport \"./IERC20.sol\";\nimport \"./IPresale.sol\";\nimport \"./Ownable.sol\";\nimport \"./SafeMath.sol\";\n\ncontract Presale is Context, IPresale, Ownable {\n    using SafeMath for uint256;\n\n    address payable ownerAddress;\n\n    IERC20 private _token;\n    uint256 private _tokenPrice;\n    uint256 private _tokensSold;\n\n    /**\n     * @param token_ Token contract address.\n     * @param tokenPrice_ Initial token price.\n     */\n    constructor(address token_, uint256 tokenPrice_) public {\n        ownerAddress = _msgSender();\n        _token = IERC20(token_);\n        _tokenPrice = tokenPrice_;\n    }\n\n    /**\n     * @dev Returns the erc token address.\n     */\n    function token() external view returns(IERC20) {\n        return _token;\n    }\n\n    /**\n     * @dev Returns the token price.\n     */\n    function tokenPrice() external view returns(uint256) {\n        return _tokenPrice;\n    }\n\n    /**\n     * @dev Returns the tokens sold.\n     */\n    function tokensSold() external view returns(uint256) {\n        return _tokensSold;\n    }\n\n    /**\n     * @dev Transfers tokens bought by buyer.\n     *\n     * @param amount Amount of token to buy.\n     */\n    function buyTokens(uint256 amount) external payable returns(bool) {\n        _buyTokens(amount);\n        return true;\n    }\n\n    /**\n     * @dev End the presale.\n     */\n    function endSale() external onlyOwner returns(bool) {\n        _endSale();\n        return true;\n    }\n\n    /**\n     * @dev Transfers tokens bought by buyer.\n     *\n     * @param amount Amount of token to buy.\n     */\n    function _buyTokens(uint256 amount) internal {\n        require(_msgValue() == (amount.div(1e18)).mul(_tokenPrice), \"Presale: Value is not equal token value.\");\n        require(_token.balanceOf(address(this)) >= amount, \"Presale: Token value is greater than presale contract balance.\");\n        require(_token.transfer(_msgSender(), amount), \"Presale: Failed transfer token to sender.\");\n        _tokensSold = _tokensSold.add(amount);\n        emit Buy(_msgSender(), _msgValue(), amount, block.timestamp);\n    }\n\n    /**\n     * @dev End the presale.\n     */\n    function _endSale() internal onlyOwner {\n        uint256 amount = _token.balanceOf(address(this));\n        if (amount > 0) require(_token.transfer(ownerAddress, amount), \"Presale: Failed transfer token to owner.\");\n        emit End(ownerAddress, address(this).balance, amount, block.timestamp);\n        selfdestruct(ownerAddress);\n    }\n}\n",
  "sourcePath": "/home/scranaver/Projects/emotion/contracts/Presale.sol",
  "compiler": {
    "name": "solc",
    "version": "0.5.16+commit.9c3226ce.Emscripten.clang"
  },
  "schemaVersion": "3.4.16",
  "updatedAt": "2024-12-15T17:42:40.239Z",
  "networkType": "ethereum",
  "devdoc": {
    "methods": {
      "buyTokens(uint256)": {
        "details": "Transfers tokens bought by buyer.",
        "params": {
          "amount": "Amount of token to buy."
        }
      },
      "constructor": {
        "params": {
          "tokenPrice_": "Initial token price.",
          "token_": "Token contract address."
        }
      },
      "endSale()": {
        "details": "End the presale."
      },
      "owner()": {
        "details": "Returns the address of the current owner."
      },
      "renounceOwnership()": {
        "details": "Leaves the contract without owner. It will not be possible to call `onlyOwner` functions anymore. Can only be called by the current owner.     * NOTE: Renouncing ownership will leave the contract without an owner, thereby removing any functionality that is only available to the owner."
      },
      "token()": {
        "details": "Returns the erc token address."
      },
      "tokenPrice()": {
        "details": "Returns the token price."
      },
      "tokensSold()": {
        "details": "Returns the tokens sold."
      },
      "transferOwnership(address)": {
        "details": "Transfers ownership of the contract to a new account (`newOwner`). Can only be called by the current owner."
      }
    }
  },
  "userdoc": {
    "methods": {}
  }
}