{
  "contractName": "Staking",
  "abi": [
    {
      "inputs": [
        {
          "internalType": "address",
          "name": "stakingToken_",
          "type": "address"
        },
        {
          "internalType": "address",
          "name": "rewardToken_",
          "type": "address"
        }
      ],
      "stateMutability": "nonpayable",
      "type": "constructor"
    },
    {
      "anonymous": false,
      "inputs": [
        {
          "indexed": true,
          "internalType": "address",
          "name": "sender",
          "type": "address"
        },
        {
          "indexed": false,
          "internalType": "uint256",
          "name": "amount",
          "type": "uint256"
        },
        {
          "indexed": false,
          "internalType": "uint256",
          "name": "timestamp",
          "type": "uint256"
        }
      ],
      "name": "Claim",
      "type": "event"
    },
    {
      "anonymous": false,
      "inputs": [
        {
          "indexed": true,
          "internalType": "address",
          "name": "previousOwner",
          "type": "address"
        },
        {
          "indexed": true,
          "internalType": "address",
          "name": "newOwner",
          "type": "address"
        }
      ],
      "name": "OwnershipTransferred",
      "type": "event"
    },
    {
      "anonymous": false,
      "inputs": [
        {
          "indexed": true,
          "internalType": "address",
          "name": "sender",
          "type": "address"
        },
        {
          "indexed": false,
          "internalType": "uint256",
          "name": "amount",
          "type": "uint256"
        },
        {
          "indexed": false,
          "internalType": "uint256",
          "name": "timestamp",
          "type": "uint256"
        }
      ],
      "name": "Stake",
      "type": "event"
    },
    {
      "anonymous": false,
      "inputs": [
        {
          "indexed": true,
          "internalType": "address",
          "name": "sender",
          "type": "address"
        },
        {
          "indexed": false,
          "internalType": "uint256",
          "name": "amount",
          "type": "uint256"
        },
        {
          "indexed": false,
          "internalType": "uint256",
          "name": "timestamp",
          "type": "uint256"
        }
      ],
      "name": "Withdraw",
      "type": "event"
    },
    {
      "inputs": [],
      "name": "owner",
      "outputs": [
        {
          "internalType": "address",
          "name": "",
          "type": "address"
        }
      ],
      "stateMutability": "view",
      "type": "function",
      "constant": true
    },
    {
      "inputs": [],
      "name": "renounceOwnership",
      "outputs": [],
      "stateMutability": "nonpayable",
      "type": "function"
    },
    {
      "inputs": [
        {
          "internalType": "address",
          "name": "newOwner",
          "type": "address"
        }
      ],
      "name": "transferOwnership",
      "outputs": [],
      "stateMutability": "nonpayable",
      "type": "function"
    },
    {
      "inputs": [],
      "name": "stakingToken",
      "outputs": [
        {
          "internalType": "contract IERC20",
          "name": "",
          "type": "address"
        }
      ],
      "stateMutability": "view",
      "type": "function",
      "constant": true
    },
    {
      "inputs": [],
      "name": "rewardToken",
      "outputs": [
        {
          "internalType": "contract IERC20",
          "name": "",
          "type": "address"
        }
      ],
      "stateMutability": "view",
      "type": "function",
      "constant": true
    },
    {
      "inputs": [],
      "name": "duration",
      "outputs": [
        {
          "internalType": "uint256",
          "name": "",
          "type": "uint256"
        }
      ],
      "stateMutability": "view",
      "type": "function",
      "constant": true
    },
    {
      "inputs": [],
      "name": "finishedAt",
      "outputs": [
        {
          "internalType": "uint256",
          "name": "",
          "type": "uint256"
        }
      ],
      "stateMutability": "view",
      "type": "function",
      "constant": true
    },
    {
      "inputs": [],
      "name": "updatedAt",
      "outputs": [
        {
          "internalType": "uint256",
          "name": "",
          "type": "uint256"
        }
      ],
      "stateMutability": "view",
      "type": "function",
      "constant": true
    },
    {
      "inputs": [],
      "name": "rewardRate",
      "outputs": [
        {
          "internalType": "uint256",
          "name": "",
          "type": "uint256"
        }
      ],
      "stateMutability": "view",
      "type": "function",
      "constant": true
    },
    {
      "inputs": [],
      "name": "rewardPerTokenStored",
      "outputs": [
        {
          "internalType": "uint256",
          "name": "",
          "type": "uint256"
        }
      ],
      "stateMutability": "view",
      "type": "function",
      "constant": true
    },
    {
      "inputs": [],
      "name": "totalStaked",
      "outputs": [
        {
          "internalType": "uint256",
          "name": "",
          "type": "uint256"
        }
      ],
      "stateMutability": "view",
      "type": "function",
      "constant": true
    },
    {
      "inputs": [
        {
          "internalType": "address",
          "name": "account",
          "type": "address"
        }
      ],
      "name": "balanceOf",
      "outputs": [
        {
          "internalType": "uint256",
          "name": "",
          "type": "uint256"
        }
      ],
      "stateMutability": "view",
      "type": "function",
      "constant": true
    },
    {
      "inputs": [],
      "name": "lastTimeRewardApplicable",
      "outputs": [
        {
          "internalType": "uint256",
          "name": "",
          "type": "uint256"
        }
      ],
      "stateMutability": "view",
      "type": "function",
      "constant": true
    },
    {
      "inputs": [],
      "name": "rewardPerToken",
      "outputs": [
        {
          "internalType": "uint256",
          "name": "",
          "type": "uint256"
        }
      ],
      "stateMutability": "view",
      "type": "function",
      "constant": true
    },
    {
      "inputs": [],
      "name": "earned",
      "outputs": [
        {
          "internalType": "uint256",
          "name": "",
          "type": "uint256"
        }
      ],
      "stateMutability": "view",
      "type": "function",
      "constant": true
    },
    {
      "inputs": [
        {
          "internalType": "uint256",
          "name": "amount",
          "type": "uint256"
        }
      ],
      "name": "stake",
      "outputs": [
        {
          "internalType": "bool",
          "name": "",
          "type": "bool"
        }
      ],
      "stateMutability": "nonpayable",
      "type": "function"
    },
    {
      "inputs": [
        {
          "internalType": "uint256",
          "name": "amount",
          "type": "uint256"
        }
      ],
      "name": "withdraw",
      "outputs": [
        {
          "internalType": "bool",
          "name": "",
          "type": "bool"
        }
      ],
      "stateMutability": "nonpayable",
      "type": "function"
    },
    {
      "inputs": [],
      "name": "claim",
      "outputs": [
        {
          "internalType": "bool",
          "name": "",
          "type": "bool"
        }
      ],
      "stateMutability": "nonpayable",
      "type": "function"
    },
    {
      "inputs": [
        {
          "internalType": "uint256",
          "name": "duration_",
          "type": "uint256"
        }
      ],
      "name": "setRewardDuration",
      "outputs": [
        {
          "internalType": "bool",
          "name": "",
          "type": "bool"
        }
      ],
      "stateMutability": "nonpayable",
      "type": "function"
    },
    {
      "inputs": [
        {
          "internalType": "uint256",
          "name": "amount",
          "type": "uint256"
        }
      ],
      "name": "notifyRewardAmount",
      "outputs": [
        {
          "internalType": "bool",
          "name": "",
          "type": "bool"
        }
      ],
      "stateMutability": "nonpayable",
      "type": "function"
    }
  ],
  "bytecode": "0x60806040523480156200001157600080fd5b5060405162002f6f38038062002f6f8339818101604052810190620000379190620001e3565b6000620000496200017160201b60201c565b9050806000806101000a81548173ffffffffffffffffffffffffffffffffffffffff021916908373ffffffffffffffffffffffffffffffffffffffff1602179055508073ffffffffffffffffffffffffffffffffffffffff16600073ffffffffffffffffffffffffffffffffffffffff167f8be0079c531659141344cd1fd0a4f28419497f9722a3daafe3b4186f6b6457e060405160405180910390a35081600160006101000a81548173ffffffffffffffffffffffffffffffffffffffff021916908373ffffffffffffffffffffffffffffffffffffffff16021790555080600260006101000a81548173ffffffffffffffffffffffffffffffffffffffff021916908373ffffffffffffffffffffffffffffffffffffffff16021790555050506200022a565b600033905090565b600080fd5b600073ffffffffffffffffffffffffffffffffffffffff82169050919050565b6000620001ab826200017e565b9050919050565b620001bd816200019e565b8114620001c957600080fd5b50565b600081519050620001dd81620001b2565b92915050565b60008060408385031215620001fd57620001fc62000179565b5b60006200020d85828601620001cc565b92505060206200022085828601620001cc565b9150509250929050565b612d35806200023a6000396000f3fe608060405234801561001057600080fd5b506004361061012c5760003560e01c806380faa57d116100ad578063cd3daf9d11610071578063cd3daf9d14610339578063d6f1926214610357578063df136d6514610375578063f2fde38b14610393578063f7c618c1146103af5761012c565b806380faa57d1461027f578063817b1cd21461029d5780638da5cb5b146102bb578063a694fc3a146102d9578063c0ed00c9146103095761012c565b806370a08231116100f457806370a08231146101eb578063715018a61461021b57806372f702f3146102255780637519ab50146102435780637b0a47ee146102615761012c565b80630fb5a6b4146101315780632e1a7d4d1461014f5780633c6b16ab1461017f57806347d54bff146101af5780634e71d92d146101cd575b600080fd5b6101396103cd565b60405161014691906120ce565b60405180910390f35b6101696004803603810190610164919061211a565b6103d7565b6040516101769190612162565b60405180910390f35b6101996004803603810190610194919061211a565b6104d6565b6040516101a69190612162565b60405180910390f35b6101b7610664565b6040516101c491906120ce565b60405180910390f35b6101d561066e565b6040516101e29190612162565b60405180910390f35b610205600480360381019061020091906121db565b61076a565b60405161021291906120ce565b60405180910390f35b6102236107b3565b005b61022d610906565b60405161023a9190612267565b60405180910390f35b61024b610930565b60405161025891906120ce565b60405180910390f35b61026961093a565b60405161027691906120ce565b60405180910390f35b610287610944565b60405161029491906120ce565b60405180910390f35b6102a5610957565b6040516102b291906120ce565b60405180910390f35b6102c3610961565b6040516102d09190612291565b60405180910390f35b6102f360048036038101906102ee919061211a565b61098a565b6040516103009190612162565b60405180910390f35b610323600480360381019061031e919061211a565b610a89565b6040516103309190612162565b60405180910390f35b610341610b32565b60405161034e91906120ce565b60405180910390f35b61035f610ba3565b60405161036c91906120ce565b60405180910390f35b61037d610cd4565b60405161038a91906120ce565b60405180910390f35b6103ad60048036038101906103a891906121db565b610cde565b005b6103b7610d7f565b6040516103c49190612267565b60405180910390f35b6000600354905090565b60006103e1610da9565b6103e9610b32565b6007819055506103f7610944565b600581905550600073ffffffffffffffffffffffffffffffffffffffff168173ffffffffffffffffffffffffffffffffffffffff16146104c357610439610ba3565b600a60008373ffffffffffffffffffffffffffffffffffffffff1673ffffffffffffffffffffffffffffffffffffffff16815260200190815260200160002081905550600754600960008373ffffffffffffffffffffffffffffffffffffffff1673ffffffffffffffffffffffffffffffffffffffff168152602001908152602001600020819055505b6104cc83610db1565b6001915050919050565b60006104e0610da9565b73ffffffffffffffffffffffffffffffffffffffff1660008054906101000a900473ffffffffffffffffffffffffffffffffffffffff1673ffffffffffffffffffffffffffffffffffffffff161461056d576040517f08c379a000000000000000000000000000000000000000000000000000000000815260040161056490612309565b60405180910390fd5b6000610577610b32565b600781905550610585610944565b600581905550600073ffffffffffffffffffffffffffffffffffffffff168173ffffffffffffffffffffffffffffffffffffffff1614610651576105c7610ba3565b600a60008373ffffffffffffffffffffffffffffffffffffffff1673ffffffffffffffffffffffffffffffffffffffff16815260200190815260200160002081905550600754600960008373ffffffffffffffffffffffffffffffffffffffff1673ffffffffffffffffffffffffffffffffffffffff168152602001908152602001600020819055505b61065a836111dc565b6001915050919050565b6000600454905090565b6000610678610da9565b610680610b32565b60078190555061068e610944565b600581905550600073ffffffffffffffffffffffffffffffffffffffff168173ffffffffffffffffffffffffffffffffffffffff161461075a576106d0610ba3565b600a60008373ffffffffffffffffffffffffffffffffffffffff1673ffffffffffffffffffffffffffffffffffffffff16815260200190815260200160002081905550600754600960008373ffffffffffffffffffffffffffffffffffffffff1673ffffffffffffffffffffffffffffffffffffffff168152602001908152602001600020819055505b61076261153a565b600191505090565b6000600b60008373ffffffffffffffffffffffffffffffffffffffff1673ffffffffffffffffffffffffffffffffffffffff168152602001908152602001600020549050919050565b6107bb610da9565b73ffffffffffffffffffffffffffffffffffffffff1660008054906101000a900473ffffffffffffffffffffffffffffffffffffffff1673ffffffffffffffffffffffffffffffffffffffff1614610848576040517f08c379a000000000000000000000000000000000000000000000000000000000815260040161083f90612309565b60405180910390fd5b600073ffffffffffffffffffffffffffffffffffffffff1660008054906101000a900473ffffffffffffffffffffffffffffffffffffffff1673ffffffffffffffffffffffffffffffffffffffff167f8be0079c531659141344cd1fd0a4f28419497f9722a3daafe3b4186f6b6457e060405160405180910390a360008060006101000a81548173ffffffffffffffffffffffffffffffffffffffff021916908373ffffffffffffffffffffffffffffffffffffffff160217905550565b6000600160009054906101000a900473ffffffffffffffffffffffffffffffffffffffff16905090565b6000600554905090565b6000600654905090565b6000610952600454426118b5565b905090565b6000600854905090565b60008060009054906101000a900473ffffffffffffffffffffffffffffffffffffffff16905090565b6000610994610da9565b61099c610b32565b6007819055506109aa610944565b600581905550600073ffffffffffffffffffffffffffffffffffffffff168173ffffffffffffffffffffffffffffffffffffffff1614610a76576109ec610ba3565b600a60008373ffffffffffffffffffffffffffffffffffffffff1673ffffffffffffffffffffffffffffffffffffffff16815260200190815260200160002081905550600754600960008373ffffffffffffffffffffffffffffffffffffffff1673ffffffffffffffffffffffffffffffffffffffff168152602001908152602001600020819055505b610a7f836118cf565b6001915050919050565b6000610a93610da9565b73ffffffffffffffffffffffffffffffffffffffff1660008054906101000a900473ffffffffffffffffffffffffffffffffffffffff1673ffffffffffffffffffffffffffffffffffffffff1614610b20576040517f08c379a0000000000000000000000000000000000000000000000000000000008152600401610b1790612309565b60405180910390fd5b610b2982611c73565b60019050919050565b60008060085403610b47576007549050610ba0565b600854670de0b6b3a7640000610b6f600554610b61610944565b611d5690919063ffffffff16565b600654610b7c9190612358565b610b869190612358565b610b9091906123c9565b600754610b9d91906123fa565b90505b90565b6000610ccf600a6000610bb4610da9565b73ffffffffffffffffffffffffffffffffffffffff1673ffffffffffffffffffffffffffffffffffffffff16815260200190815260200160002054610cc1670de0b6b3a7640000610cb3610c5e60096000610c0d610da9565b73ffffffffffffffffffffffffffffffffffffffff1673ffffffffffffffffffffffffffffffffffffffff16815260200190815260200160002054610c50610b32565b611d5690919063ffffffff16565b600b6000610c6a610da9565b73ffffffffffffffffffffffffffffffffffffffff1673ffffffffffffffffffffffffffffffffffffffff16815260200190815260200160002054611da090919063ffffffff16565b611e1a90919063ffffffff16565b611e6490919063ffffffff16565b905090565b6000600754905090565b610ce6610da9565b73ffffffffffffffffffffffffffffffffffffffff1660008054906101000a900473ffffffffffffffffffffffffffffffffffffffff1673ffffffffffffffffffffffffffffffffffffffff1614610d73576040517f08c379a0000000000000000000000000000000000000000000000000000000008152600401610d6a90612309565b60405180910390fd5b610d7c81611ec2565b50565b6000600260009054906101000a900473ffffffffffffffffffffffffffffffffffffffff16905090565b600033905090565b610db9610da9565b610dc1610b32565b600781905550610dcf610944565b600581905550600073ffffffffffffffffffffffffffffffffffffffff168173ffffffffffffffffffffffffffffffffffffffff1614610e9b57610e11610ba3565b600a60008373ffffffffffffffffffffffffffffffffffffffff1673ffffffffffffffffffffffffffffffffffffffff16815260200190815260200160002081905550600754600960008373ffffffffffffffffffffffffffffffffffffffff1673ffffffffffffffffffffffffffffffffffffffff168152602001908152602001600020819055505b600073ffffffffffffffffffffffffffffffffffffffff16610ebb610da9565b73ffffffffffffffffffffffffffffffffffffffff1603610f11576040517f08c379a0000000000000000000000000000000000000000000000000000000008152600401610f08906124a0565b60405180910390fd5b60008211610f54576040517f08c379a0000000000000000000000000000000000000000000000000000000008152600401610f4b90612532565b60405180910390fd5b600b6000610f60610da9565b73ffffffffffffffffffffffffffffffffffffffff1673ffffffffffffffffffffffffffffffffffffffff16815260200190815260200160002054821115610fdd576040517f08c379a0000000000000000000000000000000000000000000000000000000008152600401610fd4906125c4565b60405180910390fd5b600160009054906101000a900473ffffffffffffffffffffffffffffffffffffffff1673ffffffffffffffffffffffffffffffffffffffff1663a9059cbb611023610da9565b846040518363ffffffff1660e01b81526004016110419291906125e4565b6020604051808303816000875af1158015611060573d6000803e3d6000fd5b505050506040513d601f19601f820116820180604052508101906110849190612639565b6110c3576040517f08c379a00000000000000000000000000000000000000000000000000000000081526004016110ba906126d8565b60405180910390fd5b61111c82600b60006110d3610da9565b73ffffffffffffffffffffffffffffffffffffffff1673ffffffffffffffffffffffffffffffffffffffff16815260200190815260200160002054611d5690919063ffffffff16565b600b6000611128610da9565b73ffffffffffffffffffffffffffffffffffffffff1673ffffffffffffffffffffffffffffffffffffffff1681526020019081526020016000208190555061117b82600854611d5690919063ffffffff16565b600881905550611189610da9565b73ffffffffffffffffffffffffffffffffffffffff167ff279e6a1f5e320cca91135676d9cb6e44ca8a08c0b88342bcdb1144f6511b56883426040516111d09291906126f8565b60405180910390a25050565b6111e4610da9565b73ffffffffffffffffffffffffffffffffffffffff1660008054906101000a900473ffffffffffffffffffffffffffffffffffffffff1673ffffffffffffffffffffffffffffffffffffffff1614611271576040517f08c379a000000000000000000000000000000000000000000000000000000000815260040161126890612309565b60405180910390fd5b600061127b610b32565b600781905550611289610944565b600581905550600073ffffffffffffffffffffffffffffffffffffffff168173ffffffffffffffffffffffffffffffffffffffff1614611355576112cb610ba3565b600a60008373ffffffffffffffffffffffffffffffffffffffff1673ffffffffffffffffffffffffffffffffffffffff16815260200190815260200160002081905550600754600960008373ffffffffffffffffffffffffffffffffffffffff1673ffffffffffffffffffffffffffffffffffffffff168152602001908152602001600020819055505b60045442111561137f5761137460035483611e1a90919063ffffffff16565b6006819055506113db565b60006113aa60065461139c42600454611d5690919063ffffffff16565b611da090919063ffffffff16565b90506113d36003546113c58386611e6490919063ffffffff16565b611e1a90919063ffffffff16565b600681905550505b600060065411611420576040517f08c379a000000000000000000000000000000000000000000000000000000000815260040161141790612793565b60405180910390fd5b600260009054906101000a900473ffffffffffffffffffffffffffffffffffffffff1673ffffffffffffffffffffffffffffffffffffffff166370a08231306040518263ffffffff1660e01b815260040161147b9190612291565b602060405180830381865afa158015611498573d6000803e3d6000fd5b505050506040513d601f19601f820116820180604052508101906114bc91906127c8565b6114d3600354600654611da090919063ffffffff16565b1115611514576040517f08c379a000000000000000000000000000000000000000000000000000000000815260040161150b9061288d565b60405180910390fd5b61152960035442611e6490919063ffffffff16565b600481905550426005819055505050565b611542610da9565b61154a610b32565b600781905550611558610944565b600581905550600073ffffffffffffffffffffffffffffffffffffffff168173ffffffffffffffffffffffffffffffffffffffff16146116245761159a610ba3565b600a60008373ffffffffffffffffffffffffffffffffffffffff1673ffffffffffffffffffffffffffffffffffffffff16815260200190815260200160002081905550600754600960008373ffffffffffffffffffffffffffffffffffffffff1673ffffffffffffffffffffffffffffffffffffffff168152602001908152602001600020819055505b600073ffffffffffffffffffffffffffffffffffffffff16611644610da9565b73ffffffffffffffffffffffffffffffffffffffff160361169a576040517f08c379a0000000000000000000000000000000000000000000000000000000008152600401611691906124a0565b60405180910390fd5b6000600a60006116a8610da9565b73ffffffffffffffffffffffffffffffffffffffff1673ffffffffffffffffffffffffffffffffffffffff16815260200190815260200160002054905060008111611728576040517f08c379a000000000000000000000000000000000000000000000000000000000815260040161171f9061291f565b60405180910390fd5b600260009054906101000a900473ffffffffffffffffffffffffffffffffffffffff1673ffffffffffffffffffffffffffffffffffffffff1663a9059cbb61176e610da9565b836040518363ffffffff1660e01b815260040161178c9291906125e4565b6020604051808303816000875af11580156117ab573d6000803e3d6000fd5b505050506040513d601f19601f820116820180604052508101906117cf9190612639565b61180e576040517f08c379a0000000000000000000000000000000000000000000000000000000008152600401611805906126d8565b60405180910390fd5b6000600a600061181c610da9565b73ffffffffffffffffffffffffffffffffffffffff1673ffffffffffffffffffffffffffffffffffffffff16815260200190815260200160002081905550611862610da9565b73ffffffffffffffffffffffffffffffffffffffff167f34fcbac0073d7c3d388e51312faf357774904998eeb8fca628b9e6f65ee1cbf782426040516118a99291906126f8565b60405180910390a25050565b6000818311156118c557816118c7565b825b905092915050565b6118d7610da9565b6118df610b32565b6007819055506118ed610944565b600581905550600073ffffffffffffffffffffffffffffffffffffffff168173ffffffffffffffffffffffffffffffffffffffff16146119b95761192f610ba3565b600a60008373ffffffffffffffffffffffffffffffffffffffff1673ffffffffffffffffffffffffffffffffffffffff16815260200190815260200160002081905550600754600960008373ffffffffffffffffffffffffffffffffffffffff1673ffffffffffffffffffffffffffffffffffffffff168152602001908152602001600020819055505b600073ffffffffffffffffffffffffffffffffffffffff166119d9610da9565b73ffffffffffffffffffffffffffffffffffffffff1603611a2f576040517f08c379a0000000000000000000000000000000000000000000000000000000008152600401611a26906124a0565b60405180910390fd5b60008211611a72576040517f08c379a0000000000000000000000000000000000000000000000000000000008152600401611a6990612532565b60405180910390fd5b600160009054906101000a900473ffffffffffffffffffffffffffffffffffffffff1673ffffffffffffffffffffffffffffffffffffffff166323b872dd611ab8610da9565b30856040518463ffffffff1660e01b8152600401611ad89392919061293f565b6020604051808303816000875af1158015611af7573d6000803e3d6000fd5b505050506040513d601f19601f82011682018060405250810190611b1b9190612639565b611b5a576040517f08c379a0000000000000000000000000000000000000000000000000000000008152600401611b51906129e8565b60405180910390fd5b611bb382600b6000611b6a610da9565b73ffffffffffffffffffffffffffffffffffffffff1673ffffffffffffffffffffffffffffffffffffffff16815260200190815260200160002054611e6490919063ffffffff16565b600b6000611bbf610da9565b73ffffffffffffffffffffffffffffffffffffffff1673ffffffffffffffffffffffffffffffffffffffff16815260200190815260200160002081905550611c1282600854611e6490919063ffffffff16565b600881905550611c20610da9565b73ffffffffffffffffffffffffffffffffffffffff167f5af417134f72a9d41143ace85b0a26dce6f550f894f2cbc1eeee8810603d91b68342604051611c679291906126f8565b60405180910390a25050565b611c7b610da9565b73ffffffffffffffffffffffffffffffffffffffff1660008054906101000a900473ffffffffffffffffffffffffffffffffffffffff1673ffffffffffffffffffffffffffffffffffffffff1614611d08576040517f08c379a0000000000000000000000000000000000000000000000000000000008152600401611cff90612309565b60405180910390fd5b4260045410611d4c576040517f08c379a0000000000000000000000000000000000000000000000000000000008152600401611d4390612a7a565b60405180910390fd5b8060038190555050565b6000611d9883836040518060400160405280601e81526020017f536166654d6174683a207375627472616374696f6e206f766572666c6f770000815250611fee565b905092915050565b6000808303611db25760009050611e14565b60008284611dc09190612358565b9050828482611dcf91906123c9565b14611e0f576040517f08c379a0000000000000000000000000000000000000000000000000000000008152600401611e0690612b0c565b60405180910390fd5b809150505b92915050565b6000611e5c83836040518060400160405280601a81526020017f536166654d6174683a206469766973696f6e206279207a65726f000000000000815250612052565b905092915050565b6000808284611e7391906123fa565b905083811015611eb8576040517f08c379a0000000000000000000000000000000000000000000000000000000008152600401611eaf90612b78565b60405180910390fd5b8091505092915050565b600073ffffffffffffffffffffffffffffffffffffffff168173ffffffffffffffffffffffffffffffffffffffff1603611f31576040517f08c379a0000000000000000000000000000000000000000000000000000000008152600401611f2890612c0a565b60405180910390fd5b8073ffffffffffffffffffffffffffffffffffffffff1660008054906101000a900473ffffffffffffffffffffffffffffffffffffffff1673ffffffffffffffffffffffffffffffffffffffff167f8be0079c531659141344cd1fd0a4f28419497f9722a3daafe3b4186f6b6457e060405160405180910390a3806000806101000a81548173ffffffffffffffffffffffffffffffffffffffff021916908373ffffffffffffffffffffffffffffffffffffffff16021790555050565b6000838311158290612036576040517f08c379a000000000000000000000000000000000000000000000000000000000815260040161202d9190612ca9565b60405180910390fd5b50600083856120459190612ccb565b9050809150509392505050565b60008083118290612099576040517f08c379a00000000000000000000000000000000000000000000000000000000081526004016120909190612ca9565b60405180910390fd5b50600083856120a891906123c9565b9050809150509392505050565b6000819050919050565b6120c8816120b5565b82525050565b60006020820190506120e360008301846120bf565b92915050565b600080fd5b6120f7816120b5565b811461210257600080fd5b50565b600081359050612114816120ee565b92915050565b6000602082840312156121305761212f6120e9565b5b600061213e84828501612105565b91505092915050565b60008115159050919050565b61215c81612147565b82525050565b60006020820190506121776000830184612153565b92915050565b600073ffffffffffffffffffffffffffffffffffffffff82169050919050565b60006121a88261217d565b9050919050565b6121b88161219d565b81146121c357600080fd5b50565b6000813590506121d5816121af565b92915050565b6000602082840312156121f1576121f06120e9565b5b60006121ff848285016121c6565b91505092915050565b6000819050919050565b600061222d6122286122238461217d565b612208565b61217d565b9050919050565b600061223f82612212565b9050919050565b600061225182612234565b9050919050565b61226181612246565b82525050565b600060208201905061227c6000830184612258565b92915050565b61228b8161219d565b82525050565b60006020820190506122a66000830184612282565b92915050565b600082825260208201905092915050565b7f4f776e61626c653a2063616c6c6572206973206e6f7420746865206f776e6572600082015250565b60006122f36020836122ac565b91506122fe826122bd565b602082019050919050565b60006020820190508181036000830152612322816122e6565b9050919050565b7f4e487b7100000000000000000000000000000000000000000000000000000000600052601160045260246000fd5b6000612363826120b5565b915061236e836120b5565b925082820261237c816120b5565b9150828204841483151761239357612392612329565b5b5092915050565b7f4e487b7100000000000000000000000000000000000000000000000000000000600052601260045260246000fd5b60006123d4826120b5565b91506123df836120b5565b9250826123ef576123ee61239a565b5b828204905092915050565b6000612405826120b5565b9150612410836120b5565b925082820190508082111561242857612427612329565b5b92915050565b7f5374616b696e673a2053656e64657220697320746865207a65726f206164647260008201527f6573730000000000000000000000000000000000000000000000000000000000602082015250565b600061248a6023836122ac565b91506124958261242e565b604082019050919050565b600060208201905081810360008301526124b98161247d565b9050919050565b7f5374616b696e673a20416d6f756e7420697320657175616c206f72206c65737360008201527f207468616e207a65726f2e000000000000000000000000000000000000000000602082015250565b600061251c602b836122ac565b9150612527826124c0565b604082019050919050565b6000602082019050818103600083015261254b8161250f565b9050919050565b7f5374616b696e673a20416d6f756e742069732067726561746572207468616e2060008201527f617661696c61626c652062616c616e63652e0000000000000000000000000000602082015250565b60006125ae6032836122ac565b91506125b982612552565b604082019050919050565b600060208201905081810360008301526125dd816125a1565b9050919050565b60006040820190506125f96000830185612282565b61260660208301846120bf565b9392505050565b61261681612147565b811461262157600080fd5b50565b6000815190506126338161260d565b92915050565b60006020828403121561264f5761264e6120e9565b5b600061265d84828501612624565b91505092915050565b7f5374616b696e673a204661696c6564207472616e7366657220746f6b656e207460008201527f6f2073656e6465722e0000000000000000000000000000000000000000000000602082015250565b60006126c26029836122ac565b91506126cd82612666565b604082019050919050565b600060208201905081810360008301526126f1816126b5565b9050919050565b600060408201905061270d60008301856120bf565b61271a60208301846120bf565b9392505050565b7f5374616b696e673a20526577617264207261746520697320657175616c206f7260008201527f206c657373207468616e207a65726f2e00000000000000000000000000000000602082015250565b600061277d6030836122ac565b915061278882612721565b604082019050919050565b600060208201905081810360008301526127ac81612770565b9050919050565b6000815190506127c2816120ee565b92915050565b6000602082840312156127de576127dd6120e9565b5b60006127ec848285016127b3565b91505092915050565b7f5374616b696e673a2052657761726420616d6f756e742069732067726561746560008201527f72207468616e20617661696c61626c65207374616b696e6720636f6e7472616360208201527f742062616c616e63652e00000000000000000000000000000000000000000000604082015250565b6000612877604a836122ac565b9150612882826127f5565b606082019050919050565b600060208201905081810360008301526128a68161286a565b9050919050565b7f5374616b696e673a2052657761726420697320657175616c206f72206c65737360008201527f207468616e207a65726f2e000000000000000000000000000000000000000000602082015250565b6000612909602b836122ac565b9150612914826128ad565b604082019050919050565b60006020820190508181036000830152612938816128fc565b9050919050565b60006060820190506129546000830186612282565b6129616020830185612282565b61296e60408301846120bf565b949350505050565b7f5374616b696e673a204661696c6564207472616e7366657220746f6b656e207460008201527f6f207374616b696e6720636f6e74726163742e00000000000000000000000000602082015250565b60006129d26033836122ac565b91506129dd82612976565b604082019050919050565b60006020820190508181036000830152612a01816129c5565b9050919050565b7f5374616b696e673a20526577617264206475726174696f6e206973206e6f742060008201527f66696e69736865642e0000000000000000000000000000000000000000000000602082015250565b6000612a646029836122ac565b9150612a6f82612a08565b604082019050919050565b60006020820190508181036000830152612a9381612a57565b9050919050565b7f536166654d6174683a206d756c7469706c69636174696f6e206f766572666c6f60008201527f7700000000000000000000000000000000000000000000000000000000000000602082015250565b6000612af66021836122ac565b9150612b0182612a9a565b604082019050919050565b60006020820190508181036000830152612b2581612ae9565b9050919050565b7f536166654d6174683a206164646974696f6e206f766572666c6f770000000000600082015250565b6000612b62601b836122ac565b9150612b6d82612b2c565b602082019050919050565b60006020820190508181036000830152612b9181612b55565b9050919050565b7f4f776e61626c653a206e6577206f776e657220697320746865207a65726f206160008201527f6464726573730000000000000000000000000000000000000000000000000000602082015250565b6000612bf46026836122ac565b9150612bff82612b98565b604082019050919050565b60006020820190508181036000830152612c2381612be7565b9050919050565b600081519050919050565b60005b83811015612c53578082015181840152602081019050612c38565b60008484015250505050565b6000601f19601f8301169050919050565b6000612c7b82612c2a565b612c8581856122ac565b9350612c95818560208601612c35565b612c9e81612c5f565b840191505092915050565b60006020820190508181036000830152612cc38184612c70565b905092915050565b6000612cd6826120b5565b9150612ce1836120b5565b9250828203905081811115612cf957612cf8612329565b5b9291505056fea264697066735822122037a7a3723a1b176a99b5d5270c0c86f69ffa17c9af7608305a8881b0e9c9e40a64736f6c63430008110033",
  "immutableReferences": {},
  "source": "// SPDX-License-Identifier: MIT\npragma solidity ^0.8.17;\n\nimport \"./Context.sol\";\nimport \"./IERC20.sol\";\nimport \"./IStaking.sol\";\nimport \"./Ownable.sol\";\nimport \"./SafeMath.sol\";\n\ncontract Staking is Context, IStaking, Ownable {\n    using SafeMath for uint256;\n    \n    IERC20 private _stakingToken;\n    IERC20 private _rewardToken;\n\n    uint256 private _duration;\n    uint256 private _finishedAt;\n    uint256 private _updatedAt;\n    uint256 private _rewardRate;\n    uint256 private _rewardPerTokenStored;\n    uint256 private _totalStaked;\n\n    mapping(address => uint256) private _userRewardPerTokenPaid;\n    mapping(address => uint256) private _rewards;\n    mapping(address => uint256) private _balances;\n\n    /**\n     * @param stakingToken_ Staking token contract address.\n     * @param rewardToken_ Reward token contract address.\n     */\n    constructor(address stakingToken_, address rewardToken_) {\n        _stakingToken = IERC20(stakingToken_);\n        _rewardToken = IERC20(rewardToken_);\n    }\n\n    /**\n     * @dev Returns the erc staking token address.\n     */\n    function stakingToken() external view returns(IERC20) {\n        return _stakingToken;\n    }\n\n    /**\n     * @dev Returns the erc reward token address.\n     */\n    function rewardToken() external view returns(IERC20) {\n        return _rewardToken;\n    }\n\n    /**\n     * @dev Returns the staking duration.\n     */\n    function duration() external view returns(uint256) {\n        return _duration;\n    }\n\n    /**\n     * @dev Returns the finish timestamp.\n     */\n    function finishedAt() external view returns(uint256) {\n        return _finishedAt;\n    }\n\n    /**\n     * @dev Returns the updated at timestamp.\n     */\n    function updatedAt() external view returns(uint256) {\n        return _updatedAt;\n    }\n\n    /**\n     * @dev Returns the reward rate in wei.\n     */\n    function rewardRate() external view returns(uint256) {\n        return _rewardRate;\n    }\n\n    /**\n     * @dev Returns the reward rate per token stored in wei.\n     */\n    function rewardPerTokenStored() external view returns(uint256) {\n        return _rewardPerTokenStored;\n    }\n\n    /**\n     * @dev Returns the total staked tokens in wei.\n     */\n    function totalStaked() external view returns(uint256) {\n        return _totalStaked;\n    }\n\n    /**\n     * @dev See {ERC20-balanceOf}.\n     */\n    function balanceOf(address account) external view returns(uint256) {\n        return _balances[account];\n    }\n\n    /**\n     * @dev Update reward every contract called.\n     *\n     * @param _account address.\n     */\n    modifier updateReward(address _account) {\n        _rewardPerTokenStored = rewardPerToken();\n        _updatedAt = lastTimeRewardApplicable();\n\n        if (_account != address(0)) {\n            _rewards[_account] = earned();\n            _userRewardPerTokenPaid[_account] = _rewardPerTokenStored;\n        }\n\n        _;\n    }\n\n    /**\n     * @param x First param.\n     * @param y Second param.\n     * @return uint256 Returns min value.\n     */\n    function _min(uint256 x, uint256 y) private pure returns (uint256) {\n        return x <= y ? x : y;\n    }\n\n    /**\n     * @dev Last time reward applicable.\n     *\n     * @return uint256 Returns min value between finished at and block timestamp.\n     */\n    function lastTimeRewardApplicable() public view returns (uint256) {\n        return _min(_finishedAt, block.timestamp);\n    }\n\n    /**\n     * @dev Amount of reward per token staked.\n     *\n     * @return uint256 Returns calculated reward per token.\n     */\n    function rewardPerToken() public view returns (uint256) {\n        if (_totalStaked == 0) return _rewardPerTokenStored;\n\n        return _rewardPerTokenStored + (\n            _rewardRate * (\n                lastTimeRewardApplicable().sub(_updatedAt)\n            ) * 1e18\n        ) / _totalStaked;\n    }\n\n    /**\n     * @dev Total token has been earned.\n     *\n     * @return uint256 Returns sender total earned.\n     */\n    function earned() public view returns (uint256) {\n        return (\n            (\n                _balances[_msgSender()].mul(\n                    (\n                        rewardPerToken().sub(_userRewardPerTokenPaid[_msgSender()])\n                    )\n                )\n            ).div(1e18)\n        ).add(_rewards[_msgSender()]);\n    }\n\n    /**\n     * @dev Transfers tokens from `buyer` to `staking` contract.\n     *\n     * @param amount Amount of token to stake.\n     */\n    function stake(uint256 amount) external updateReward(_msgSender()) returns(bool) {\n        _stake(amount);\n        return true;\n    }\n\n    /**\n     * @dev Transfers tokens from `staking` contract to `buyer`.\n     *\n     * @param amount Amount of token to withdraw.\n     */\n    function withdraw(uint256 amount) external updateReward(_msgSender()) returns(bool) {\n        _withdraw(amount);\n        return true;\n    }\n\n    /**\n     * @dev Claim the token rewards.\n     */\n    function claim() external updateReward(_msgSender()) returns(bool) {\n        _claim();\n        return true;\n    }\n\n    /**\n     * @dev Set staking reward duration.\n     *\n     * @param duration_ Duration of rewards to be paid out in seconds.\n     */\n    function setRewardDuration(uint256 duration_) external onlyOwner returns(bool) {\n        _setRewardDuration(duration_);\n        return true;\n    }\n\n    /**\n     * @dev Start the rewards.\n     *\n     * @param amount Amount of token to be set as reward.\n     */\n    function notifyRewardAmount(uint256 amount) external onlyOwner updateReward(address(0)) returns(bool) {\n        _notifyRewardAmount(amount);\n        return true;\n    }\n\n    /**\n     * @dev Transfers tokens from `buyer` to `staking` contract.\n     *\n     * @param amount Amount of token to stake.\n     */\n    function _stake(uint256 amount) internal updateReward(_msgSender()) {\n        require(_msgSender() != address(0), \"Staking: Sender is the zero address\");\n        require(amount > 0, \"Staking: Amount is equal or less than zero.\");\n        require(_stakingToken.transferFrom(_msgSender(), address(this), amount), \"Staking: Failed transfer token to staking contract.\");\n        _balances[_msgSender()] = _balances[_msgSender()].add(amount);\n        _totalStaked = _totalStaked.add(amount);\n        emit Stake(_msgSender(), amount, block.timestamp);\n    }\n\n    /**\n     * @dev Transfers tokens from `staking` contract to `buyer`.\n     *\n     * @param amount Amount of token to withdraw.\n     */\n    function _withdraw(uint256 amount) internal updateReward(_msgSender()) {\n        require(_msgSender() != address(0), \"Staking: Sender is the zero address\");\n        require(amount > 0, \"Staking: Amount is equal or less than zero.\");\n        require(amount <= _balances[_msgSender()], \"Staking: Amount is greater than available balance.\");\n        require(_stakingToken.transfer(_msgSender(), amount), \"Staking: Failed transfer token to sender.\");\n        _balances[_msgSender()] = _balances[_msgSender()].sub(amount);\n        _totalStaked = _totalStaked.sub(amount);\n        emit Withdraw(_msgSender(), amount, block.timestamp);\n    }\n\n    /**\n     * @dev Claim the token rewards.\n     */\n    function _claim() internal updateReward(_msgSender()) {\n        require(_msgSender() != address(0), \"Staking: Sender is the zero address\");\n        uint256 reward = _rewards[_msgSender()];\n        require(reward > 0, \"Staking: Reward is equal or less than zero.\");\n        require(_rewardToken.transfer(_msgSender(), reward), \"Staking: Failed transfer token to sender.\");\n        _rewards[_msgSender()] = 0;\n        emit Claim(_msgSender(), reward, block.timestamp);\n    }\n\n    /**\n     * @dev Set staking reward duration.\n     *\n     * @param duration_ Duration of rewards to be paid out in seconds.\n     */\n    function _setRewardDuration(uint256 duration_) internal onlyOwner {\n        require(_finishedAt < block.timestamp, \"Staking: Reward duration is not finished.\");\n        _duration = duration_;\n    }\n\n    /**\n     * @dev Start the rewards.\n     *\n     * @param amount Amount of token to be set as reward.\n     */\n    function _notifyRewardAmount(uint256 amount) internal onlyOwner updateReward(address(0)) {\n        if (block.timestamp > _finishedAt) {\n            _rewardRate = amount.div(_duration);\n        } else {\n            uint256 remainingRewards = (_finishedAt.sub(block.timestamp)).mul(_rewardRate);\n            _rewardRate = (amount.add(remainingRewards)).div(_duration);\n        }\n\n        require(_rewardRate > 0, \"Staking: Reward rate is equal or less than zero.\");\n        require(_rewardRate.mul(_duration) <= _rewardToken.balanceOf(address(this)), \"Staking: Reward amount is greater than available staking contract balance.\");\n\n        _finishedAt = block.timestamp.add(_duration);\n        _updatedAt = block.timestamp;\n    }\n}\n",
  "sourcePath": "/home/scranaver/Projects/emotion/contracts/Staking.sol",
  "compiler": {
    "name": "solc",
    "version": "0.8.17+commit.8df45f5f.Emscripten.clang"
  },
  "schemaVersion": "3.4.16",
  "updatedAt": "2024-12-18T16:26:40.448Z",
  "networkType": "ethereum",
  "devdoc": {
    "kind": "dev",
    "methods": {
      "balanceOf(address)": {
        "details": "See {ERC20-balanceOf}."
      },
      "claim()": {
        "details": "Claim the token rewards."
      },
      "constructor": {
        "params": {
          "rewardToken_": "Reward token contract address.",
          "stakingToken_": "Staking token contract address."
        }
      },
      "duration()": {
        "details": "Returns the staking duration."
      },
      "earned()": {
        "details": "Total token has been earned.",
        "returns": {
          "_0": "uint256 Returns sender total earned."
        }
      },
      "finishedAt()": {
        "details": "Returns the finish timestamp."
      },
      "lastTimeRewardApplicable()": {
        "details": "Last time reward applicable.",
        "returns": {
          "_0": "uint256 Returns min value between finished at and block timestamp."
        }
      },
      "notifyRewardAmount(uint256)": {
        "details": "Start the rewards.",
        "params": {
          "amount": "Amount of token to be set as reward."
        }
      },
      "owner()": {
        "details": "Returns the address of the current owner."
      },
      "renounceOwnership()": {
        "details": "Leaves the contract without owner. It will not be possible to call `onlyOwner` functions anymore. Can only be called by the current owner. NOTE: Renouncing ownership will leave the contract without an owner, thereby removing any functionality that is only available to the owner."
      },
      "rewardPerToken()": {
        "details": "Amount of reward per token staked.",
        "returns": {
          "_0": "uint256 Returns calculated reward per token."
        }
      },
      "rewardPerTokenStored()": {
        "details": "Returns the reward rate per token stored in wei."
      },
      "rewardRate()": {
        "details": "Returns the reward rate in wei."
      },
      "rewardToken()": {
        "details": "Returns the erc reward token address."
      },
      "setRewardDuration(uint256)": {
        "details": "Set staking reward duration.",
        "params": {
          "duration_": "Duration of rewards to be paid out in seconds."
        }
      },
      "stake(uint256)": {
        "details": "Transfers tokens from `buyer` to `staking` contract.",
        "params": {
          "amount": "Amount of token to stake."
        }
      },
      "stakingToken()": {
        "details": "Returns the erc staking token address."
      },
      "totalStaked()": {
        "details": "Returns the total staked tokens in wei."
      },
      "transferOwnership(address)": {
        "details": "Transfers ownership of the contract to a new account (`newOwner`). Can only be called by the current owner."
      },
      "updatedAt()": {
        "details": "Returns the updated at timestamp."
      },
      "withdraw(uint256)": {
        "details": "Transfers tokens from `staking` contract to `buyer`.",
        "params": {
          "amount": "Amount of token to withdraw."
        }
      }
    },
    "version": 1
  },
  "userdoc": {
    "kind": "user",
    "methods": {},
    "version": 1
  }
}