{
  "contractName": "Staking",
  "abi": [
    {
      "inputs": [
        {
          "internalType": "address",
          "name": "stakingToken_",
          "type": "address"
        },
        {
          "internalType": "address",
          "name": "rewardToken_",
          "type": "address"
        }
      ],
      "payable": false,
      "stateMutability": "nonpayable",
      "type": "constructor"
    },
    {
      "anonymous": false,
      "inputs": [
        {
          "indexed": true,
          "internalType": "address",
          "name": "sender",
          "type": "address"
        },
        {
          "indexed": false,
          "internalType": "uint256",
          "name": "amount",
          "type": "uint256"
        },
        {
          "indexed": false,
          "internalType": "uint256",
          "name": "timestamp",
          "type": "uint256"
        }
      ],
      "name": "Claim",
      "type": "event"
    },
    {
      "anonymous": false,
      "inputs": [
        {
          "indexed": true,
          "internalType": "address",
          "name": "previousOwner",
          "type": "address"
        },
        {
          "indexed": true,
          "internalType": "address",
          "name": "newOwner",
          "type": "address"
        }
      ],
      "name": "OwnershipTransferred",
      "type": "event"
    },
    {
      "anonymous": false,
      "inputs": [
        {
          "indexed": true,
          "internalType": "address",
          "name": "sender",
          "type": "address"
        },
        {
          "indexed": false,
          "internalType": "uint256",
          "name": "amount",
          "type": "uint256"
        },
        {
          "indexed": false,
          "internalType": "uint256",
          "name": "timestamp",
          "type": "uint256"
        }
      ],
      "name": "Stake",
      "type": "event"
    },
    {
      "anonymous": false,
      "inputs": [
        {
          "indexed": true,
          "internalType": "address",
          "name": "sender",
          "type": "address"
        },
        {
          "indexed": false,
          "internalType": "uint256",
          "name": "amount",
          "type": "uint256"
        },
        {
          "indexed": false,
          "internalType": "uint256",
          "name": "timestamp",
          "type": "uint256"
        }
      ],
      "name": "Withdraw",
      "type": "event"
    },
    {
      "constant": true,
      "inputs": [],
      "name": "owner",
      "outputs": [
        {
          "internalType": "address",
          "name": "",
          "type": "address"
        }
      ],
      "payable": false,
      "stateMutability": "view",
      "type": "function"
    },
    {
      "constant": false,
      "inputs": [],
      "name": "renounceOwnership",
      "outputs": [],
      "payable": false,
      "stateMutability": "nonpayable",
      "type": "function"
    },
    {
      "constant": false,
      "inputs": [
        {
          "internalType": "address",
          "name": "newOwner",
          "type": "address"
        }
      ],
      "name": "transferOwnership",
      "outputs": [],
      "payable": false,
      "stateMutability": "nonpayable",
      "type": "function"
    },
    {
      "constant": true,
      "inputs": [],
      "name": "stakingToken",
      "outputs": [
        {
          "internalType": "contract IERC20",
          "name": "",
          "type": "address"
        }
      ],
      "payable": false,
      "stateMutability": "view",
      "type": "function"
    },
    {
      "constant": true,
      "inputs": [],
      "name": "rewardToken",
      "outputs": [
        {
          "internalType": "contract IERC20",
          "name": "",
          "type": "address"
        }
      ],
      "payable": false,
      "stateMutability": "view",
      "type": "function"
    },
    {
      "constant": true,
      "inputs": [],
      "name": "duration",
      "outputs": [
        {
          "internalType": "uint256",
          "name": "",
          "type": "uint256"
        }
      ],
      "payable": false,
      "stateMutability": "view",
      "type": "function"
    },
    {
      "constant": true,
      "inputs": [],
      "name": "finishedAt",
      "outputs": [
        {
          "internalType": "uint256",
          "name": "",
          "type": "uint256"
        }
      ],
      "payable": false,
      "stateMutability": "view",
      "type": "function"
    },
    {
      "constant": true,
      "inputs": [],
      "name": "updatedAt",
      "outputs": [
        {
          "internalType": "uint256",
          "name": "",
          "type": "uint256"
        }
      ],
      "payable": false,
      "stateMutability": "view",
      "type": "function"
    },
    {
      "constant": true,
      "inputs": [],
      "name": "rewardRate",
      "outputs": [
        {
          "internalType": "uint256",
          "name": "",
          "type": "uint256"
        }
      ],
      "payable": false,
      "stateMutability": "view",
      "type": "function"
    },
    {
      "constant": true,
      "inputs": [],
      "name": "rewardPerTokenStored",
      "outputs": [
        {
          "internalType": "uint256",
          "name": "",
          "type": "uint256"
        }
      ],
      "payable": false,
      "stateMutability": "view",
      "type": "function"
    },
    {
      "constant": true,
      "inputs": [],
      "name": "totalStaked",
      "outputs": [
        {
          "internalType": "uint256",
          "name": "",
          "type": "uint256"
        }
      ],
      "payable": false,
      "stateMutability": "view",
      "type": "function"
    },
    {
      "constant": true,
      "inputs": [
        {
          "internalType": "address",
          "name": "account",
          "type": "address"
        }
      ],
      "name": "balanceOf",
      "outputs": [
        {
          "internalType": "uint256",
          "name": "",
          "type": "uint256"
        }
      ],
      "payable": false,
      "stateMutability": "view",
      "type": "function"
    },
    {
      "constant": true,
      "inputs": [],
      "name": "lastTimeRewardApplicable",
      "outputs": [
        {
          "internalType": "uint256",
          "name": "",
          "type": "uint256"
        }
      ],
      "payable": false,
      "stateMutability": "view",
      "type": "function"
    },
    {
      "constant": true,
      "inputs": [],
      "name": "rewardPerToken",
      "outputs": [
        {
          "internalType": "uint256",
          "name": "",
          "type": "uint256"
        }
      ],
      "payable": false,
      "stateMutability": "view",
      "type": "function"
    },
    {
      "constant": true,
      "inputs": [],
      "name": "earned",
      "outputs": [
        {
          "internalType": "uint256",
          "name": "",
          "type": "uint256"
        }
      ],
      "payable": false,
      "stateMutability": "view",
      "type": "function"
    },
    {
      "constant": false,
      "inputs": [
        {
          "internalType": "uint256",
          "name": "amount",
          "type": "uint256"
        }
      ],
      "name": "stake",
      "outputs": [
        {
          "internalType": "bool",
          "name": "",
          "type": "bool"
        }
      ],
      "payable": false,
      "stateMutability": "nonpayable",
      "type": "function"
    },
    {
      "constant": false,
      "inputs": [
        {
          "internalType": "uint256",
          "name": "amount",
          "type": "uint256"
        }
      ],
      "name": "withdraw",
      "outputs": [
        {
          "internalType": "bool",
          "name": "",
          "type": "bool"
        }
      ],
      "payable": false,
      "stateMutability": "nonpayable",
      "type": "function"
    },
    {
      "constant": false,
      "inputs": [],
      "name": "claim",
      "outputs": [
        {
          "internalType": "bool",
          "name": "",
          "type": "bool"
        }
      ],
      "payable": false,
      "stateMutability": "nonpayable",
      "type": "function"
    },
    {
      "constant": false,
      "inputs": [
        {
          "internalType": "uint256",
          "name": "duration_",
          "type": "uint256"
        }
      ],
      "name": "setRewardDuration",
      "outputs": [
        {
          "internalType": "bool",
          "name": "",
          "type": "bool"
        }
      ],
      "payable": false,
      "stateMutability": "nonpayable",
      "type": "function"
    },
    {
      "constant": false,
      "inputs": [
        {
          "internalType": "uint256",
          "name": "amount",
          "type": "uint256"
        }
      ],
      "name": "notifyRewardAmount",
      "outputs": [
        {
          "internalType": "bool",
          "name": "",
          "type": "bool"
        }
      ],
      "payable": false,
      "stateMutability": "nonpayable",
      "type": "function"
    }
  ],
  "bytecode": "0x608060405234801561001057600080fd5b5060405162002a4338038062002a438339818101604052604081101561003557600080fd5b810190808051906020019092919080519060200190929190505050600061006061018760201b60201c565b9050806000806101000a81548173ffffffffffffffffffffffffffffffffffffffff021916908373ffffffffffffffffffffffffffffffffffffffff1602179055508073ffffffffffffffffffffffffffffffffffffffff16600073ffffffffffffffffffffffffffffffffffffffff167f8be0079c531659141344cd1fd0a4f28419497f9722a3daafe3b4186f6b6457e060405160405180910390a35081600160006101000a81548173ffffffffffffffffffffffffffffffffffffffff021916908373ffffffffffffffffffffffffffffffffffffffff16021790555080600260006101000a81548173ffffffffffffffffffffffffffffffffffffffff021916908373ffffffffffffffffffffffffffffffffffffffff160217905550505061018f565b600033905090565b6128a4806200019f6000396000f3fe608060405234801561001057600080fd5b506004361061012c5760003560e01c806380faa57d116100ad578063cd3daf9d11610071578063cd3daf9d14610415578063d6f1926214610433578063df136d6514610451578063f2fde38b1461046f578063f7c618c1146104b35761012c565b806380faa57d14610303578063817b1cd2146103215780638da5cb5b1461033f578063a694fc3a14610389578063c0ed00c9146103cf5761012c565b806370a08231116100f457806370a082311461021b578063715018a61461027357806372f702f31461027d5780637519ab50146102c75780637b0a47ee146102e55761012c565b80630fb5a6b4146101315780632e1a7d4d1461014f5780633c6b16ab1461019557806347d54bff146101db5780634e71d92d146101f9575b600080fd5b6101396104fd565b6040518082815260200191505060405180910390f35b61017b6004803603602081101561016557600080fd5b8101908080359060200190929190505050610507565b604051808215151515815260200191505060405180910390f35b6101c1600480360360208110156101ab57600080fd5b8101908080359060200190929190505050610606565b604051808215151515815260200191505060405180910390f35b6101e36107c8565b6040518082815260200191505060405180910390f35b6102016107d2565b604051808215151515815260200191505060405180910390f35b61025d6004803603602081101561023157600080fd5b81019080803573ffffffffffffffffffffffffffffffffffffffff1690602001909291905050506108ce565b6040518082815260200191505060405180910390f35b61027b610917565b005b610285610a9f565b604051808273ffffffffffffffffffffffffffffffffffffffff1673ffffffffffffffffffffffffffffffffffffffff16815260200191505060405180910390f35b6102cf610ac9565b6040518082815260200191505060405180910390f35b6102ed610ad3565b6040518082815260200191505060405180910390f35b61030b610add565b6040518082815260200191505060405180910390f35b610329610af0565b6040518082815260200191505060405180910390f35b610347610afa565b604051808273ffffffffffffffffffffffffffffffffffffffff1673ffffffffffffffffffffffffffffffffffffffff16815260200191505060405180910390f35b6103b56004803603602081101561039f57600080fd5b8101908080359060200190929190505050610b23565b604051808215151515815260200191505060405180910390f35b6103fb600480360360208110156103e557600080fd5b8101908080359060200190929190505050610c22565b604051808215151515815260200191505060405180910390f35b61041d610cff565b6040518082815260200191505060405180910390f35b61043b610d54565b6040518082815260200191505060405180910390f35b610459610e85565b6040518082815260200191505060405180910390f35b6104b16004803603602081101561048557600080fd5b81019080803573ffffffffffffffffffffffffffffffffffffffff169060200190929190505050610e8f565b005b6104bb610f64565b604051808273ffffffffffffffffffffffffffffffffffffffff1673ffffffffffffffffffffffffffffffffffffffff16815260200191505060405180910390f35b6000600354905090565b6000610511610f8e565b610519610cff565b600781905550610527610add565b600581905550600073ffffffffffffffffffffffffffffffffffffffff168173ffffffffffffffffffffffffffffffffffffffff16146105f357610569610d54565b600a60008373ffffffffffffffffffffffffffffffffffffffff1673ffffffffffffffffffffffffffffffffffffffff16815260200190815260200160002081905550600754600960008373ffffffffffffffffffffffffffffffffffffffff1673ffffffffffffffffffffffffffffffffffffffff168152602001908152602001600020819055505b6105fc83610f96565b6001915050919050565b6000610610610f8e565b73ffffffffffffffffffffffffffffffffffffffff166000809054906101000a900473ffffffffffffffffffffffffffffffffffffffff1673ffffffffffffffffffffffffffffffffffffffff16146106d1576040517f08c379a00000000000000000000000000000000000000000000000000000000081526004018080602001828103825260208152602001807f4f776e61626c653a2063616c6c6572206973206e6f7420746865206f776e657281525060200191505060405180910390fd5b60006106db610cff565b6007819055506106e9610add565b600581905550600073ffffffffffffffffffffffffffffffffffffffff168173ffffffffffffffffffffffffffffffffffffffff16146107b55761072b610d54565b600a60008373ffffffffffffffffffffffffffffffffffffffff1673ffffffffffffffffffffffffffffffffffffffff16815260200190815260200160002081905550600754600960008373ffffffffffffffffffffffffffffffffffffffff1673ffffffffffffffffffffffffffffffffffffffff168152602001908152602001600020819055505b6107be83611464565b6001915050919050565b6000600454905090565b60006107dc610f8e565b6107e4610cff565b6007819055506107f2610add565b600581905550600073ffffffffffffffffffffffffffffffffffffffff168173ffffffffffffffffffffffffffffffffffffffff16146108be57610834610d54565b600a60008373ffffffffffffffffffffffffffffffffffffffff1673ffffffffffffffffffffffffffffffffffffffff16815260200190815260200160002081905550600754600960008373ffffffffffffffffffffffffffffffffffffffff1673ffffffffffffffffffffffffffffffffffffffff168152602001908152602001600020819055505b6108c6611860565b600191505090565b6000600b60008373ffffffffffffffffffffffffffffffffffffffff1673ffffffffffffffffffffffffffffffffffffffff168152602001908152602001600020549050919050565b61091f610f8e565b73ffffffffffffffffffffffffffffffffffffffff166000809054906101000a900473ffffffffffffffffffffffffffffffffffffffff1673ffffffffffffffffffffffffffffffffffffffff16146109e0576040517f08c379a00000000000000000000000000000000000000000000000000000000081526004018080602001828103825260208152602001807f4f776e61626c653a2063616c6c6572206973206e6f7420746865206f776e657281525060200191505060405180910390fd5b600073ffffffffffffffffffffffffffffffffffffffff166000809054906101000a900473ffffffffffffffffffffffffffffffffffffffff1673ffffffffffffffffffffffffffffffffffffffff167f8be0079c531659141344cd1fd0a4f28419497f9722a3daafe3b4186f6b6457e060405160405180910390a360008060006101000a81548173ffffffffffffffffffffffffffffffffffffffff021916908373ffffffffffffffffffffffffffffffffffffffff160217905550565b6000600160009054906101000a900473ffffffffffffffffffffffffffffffffffffffff16905090565b6000600554905090565b6000600654905090565b6000610aeb60045442611c68565b905090565b6000600854905090565b60008060009054906101000a900473ffffffffffffffffffffffffffffffffffffffff16905090565b6000610b2d610f8e565b610b35610cff565b600781905550610b43610add565b600581905550600073ffffffffffffffffffffffffffffffffffffffff168173ffffffffffffffffffffffffffffffffffffffff1614610c0f57610b85610d54565b600a60008373ffffffffffffffffffffffffffffffffffffffff1673ffffffffffffffffffffffffffffffffffffffff16815260200190815260200160002081905550600754600960008373ffffffffffffffffffffffffffffffffffffffff1673ffffffffffffffffffffffffffffffffffffffff168152602001908152602001600020819055505b610c1883611c82565b6001915050919050565b6000610c2c610f8e565b73ffffffffffffffffffffffffffffffffffffffff166000809054906101000a900473ffffffffffffffffffffffffffffffffffffffff1673ffffffffffffffffffffffffffffffffffffffff1614610ced576040517f08c379a00000000000000000000000000000000000000000000000000000000081526004018080602001828103825260208152602001807f4f776e61626c653a2063616c6c6572206973206e6f7420746865206f776e657281525060200191505060405180910390fd5b610cf6826120e5565b60019050919050565b6000806008541415610d15576007549050610d51565b600854670de0b6b3a7640000610d3d600554610d2f610add565b61221290919063ffffffff16565b600654020281610d4957fe5b046007540190505b90565b6000610e80600a6000610d65610f8e565b73ffffffffffffffffffffffffffffffffffffffff1673ffffffffffffffffffffffffffffffffffffffff16815260200190815260200160002054610e72670de0b6b3a7640000610e64610e0f60096000610dbe610f8e565b73ffffffffffffffffffffffffffffffffffffffff1673ffffffffffffffffffffffffffffffffffffffff16815260200190815260200160002054610e01610cff565b61221290919063ffffffff16565b600b6000610e1b610f8e565b73ffffffffffffffffffffffffffffffffffffffff1673ffffffffffffffffffffffffffffffffffffffff1681526020019081526020016000205461225c90919063ffffffff16565b6122e290919063ffffffff16565b61232c90919063ffffffff16565b905090565b6000600754905090565b610e97610f8e565b73ffffffffffffffffffffffffffffffffffffffff166000809054906101000a900473ffffffffffffffffffffffffffffffffffffffff1673ffffffffffffffffffffffffffffffffffffffff1614610f58576040517f08c379a00000000000000000000000000000000000000000000000000000000081526004018080602001828103825260208152602001807f4f776e61626c653a2063616c6c6572206973206e6f7420746865206f776e657281525060200191505060405180910390fd5b610f61816123b4565b50565b6000600260009054906101000a900473ffffffffffffffffffffffffffffffffffffffff16905090565b600033905090565b610f9e610f8e565b610fa6610cff565b600781905550610fb4610add565b600581905550600073ffffffffffffffffffffffffffffffffffffffff168173ffffffffffffffffffffffffffffffffffffffff161461108057610ff6610d54565b600a60008373ffffffffffffffffffffffffffffffffffffffff1673ffffffffffffffffffffffffffffffffffffffff16815260200190815260200160002081905550600754600960008373ffffffffffffffffffffffffffffffffffffffff1673ffffffffffffffffffffffffffffffffffffffff168152602001908152602001600020819055505b600073ffffffffffffffffffffffffffffffffffffffff166110a0610f8e565b73ffffffffffffffffffffffffffffffffffffffff16141561110d576040517f08c379a00000000000000000000000000000000000000000000000000000000081526004018080602001828103825260238152602001806127ea6023913960400191505060405180910390fd5b60008211611166576040517f08c379a000000000000000000000000000000000000000000000000000000000815260040180806020018281038252602b81526020018061272b602b913960400191505060405180910390fd5b600b6000611172610f8e565b73ffffffffffffffffffffffffffffffffffffffff1673ffffffffffffffffffffffffffffffffffffffff16815260200190815260200160002054821115611205576040517f08c379a00000000000000000000000000000000000000000000000000000000081526004018080602001828103825260328152602001806126f96032913960400191505060405180910390fd5b600160009054906101000a900473ffffffffffffffffffffffffffffffffffffffff1673ffffffffffffffffffffffffffffffffffffffff1663a9059cbb61124b610f8e565b846040518363ffffffff1660e01b8152600401808373ffffffffffffffffffffffffffffffffffffffff1673ffffffffffffffffffffffffffffffffffffffff16815260200182815260200192505050602060405180830381600087803b1580156112b557600080fd5b505af11580156112c9573d6000803e3d6000fd5b505050506040513d60208110156112df57600080fd5b8101908080519060200190929190505050611345576040517f08c379a00000000000000000000000000000000000000000000000000000000081526004018080602001828103825260298152602001806127776029913960400191505060405180910390fd5b61139e82600b6000611355610f8e565b73ffffffffffffffffffffffffffffffffffffffff1673ffffffffffffffffffffffffffffffffffffffff1681526020019081526020016000205461221290919063ffffffff16565b600b60006113aa610f8e565b73ffffffffffffffffffffffffffffffffffffffff1673ffffffffffffffffffffffffffffffffffffffff168152602001908152602001600020819055506113fd8260085461221290919063ffffffff16565b60088190555061140b610f8e565b73ffffffffffffffffffffffffffffffffffffffff167ff279e6a1f5e320cca91135676d9cb6e44ca8a08c0b88342bcdb1144f6511b5688342604051808381526020018281526020019250505060405180910390a25050565b61146c610f8e565b73ffffffffffffffffffffffffffffffffffffffff166000809054906101000a900473ffffffffffffffffffffffffffffffffffffffff1673ffffffffffffffffffffffffffffffffffffffff161461152d576040517f08c379a00000000000000000000000000000000000000000000000000000000081526004018080602001828103825260208152602001807f4f776e61626c653a2063616c6c6572206973206e6f7420746865206f776e657281525060200191505060405180910390fd5b6000611537610cff565b600781905550611545610add565b600581905550600073ffffffffffffffffffffffffffffffffffffffff168173ffffffffffffffffffffffffffffffffffffffff161461161157611587610d54565b600a60008373ffffffffffffffffffffffffffffffffffffffff1673ffffffffffffffffffffffffffffffffffffffff16815260200190815260200160002081905550600754600960008373ffffffffffffffffffffffffffffffffffffffff1673ffffffffffffffffffffffffffffffffffffffff168152602001908152602001600020819055505b60045442111561163b57611630600354836122e290919063ffffffff16565b600681905550611697565b60006116666006546116584260045461221290919063ffffffff16565b61225c90919063ffffffff16565b905061168f600354611681838661232c90919063ffffffff16565b6122e290919063ffffffff16565b600681905550505b6000600654116116f2576040517f08c379a00000000000000000000000000000000000000000000000000000000081526004018080602001828103825260308152602001806128406030913960400191505060405180910390fd5b600260009054906101000a900473ffffffffffffffffffffffffffffffffffffffff1673ffffffffffffffffffffffffffffffffffffffff166370a08231306040518263ffffffff1660e01b8152600401808273ffffffffffffffffffffffffffffffffffffffff1673ffffffffffffffffffffffffffffffffffffffff16815260200191505060206040518083038186803b15801561179157600080fd5b505afa1580156117a5573d6000803e3d6000fd5b505050506040513d60208110156117bb57600080fd5b81019080805190602001909291905050506117e360035460065461225c90919063ffffffff16565b111561183a576040517f08c379a000000000000000000000000000000000000000000000000000000000815260040180806020018281038252604a8152602001806127a0604a913960600191505060405180910390fd5b61184f6003544261232c90919063ffffffff16565b600481905550426005819055505050565b611868610f8e565b611870610cff565b60078190555061187e610add565b600581905550600073ffffffffffffffffffffffffffffffffffffffff168173ffffffffffffffffffffffffffffffffffffffff161461194a576118c0610d54565b600a60008373ffffffffffffffffffffffffffffffffffffffff1673ffffffffffffffffffffffffffffffffffffffff16815260200190815260200160002081905550600754600960008373ffffffffffffffffffffffffffffffffffffffff1673ffffffffffffffffffffffffffffffffffffffff168152602001908152602001600020819055505b600073ffffffffffffffffffffffffffffffffffffffff1661196a610f8e565b73ffffffffffffffffffffffffffffffffffffffff1614156119d7576040517f08c379a00000000000000000000000000000000000000000000000000000000081526004018080602001828103825260238152602001806127ea6023913960400191505060405180910390fd5b6000600a60006119e5610f8e565b73ffffffffffffffffffffffffffffffffffffffff1673ffffffffffffffffffffffffffffffffffffffff16815260200190815260200160002054905060008111611a7b576040517f08c379a000000000000000000000000000000000000000000000000000000000815260040180806020018281038252602b81526020018061267f602b913960400191505060405180910390fd5b600260009054906101000a900473ffffffffffffffffffffffffffffffffffffffff1673ffffffffffffffffffffffffffffffffffffffff1663a9059cbb611ac1610f8e565b836040518363ffffffff1660e01b8152600401808373ffffffffffffffffffffffffffffffffffffffff1673ffffffffffffffffffffffffffffffffffffffff16815260200182815260200192505050602060405180830381600087803b158015611b2b57600080fd5b505af1158015611b3f573d6000803e3d6000fd5b505050506040513d6020811015611b5557600080fd5b8101908080519060200190929190505050611bbb576040517f08c379a00000000000000000000000000000000000000000000000000000000081526004018080602001828103825260298152602001806127776029913960400191505060405180910390fd5b6000600a6000611bc9610f8e565b73ffffffffffffffffffffffffffffffffffffffff1673ffffffffffffffffffffffffffffffffffffffff16815260200190815260200160002081905550611c0f610f8e565b73ffffffffffffffffffffffffffffffffffffffff167f34fcbac0073d7c3d388e51312faf357774904998eeb8fca628b9e6f65ee1cbf78242604051808381526020018281526020019250505060405180910390a25050565b600081831115611c785781611c7a565b825b905092915050565b611c8a610f8e565b611c92610cff565b600781905550611ca0610add565b600581905550600073ffffffffffffffffffffffffffffffffffffffff168173ffffffffffffffffffffffffffffffffffffffff1614611d6c57611ce2610d54565b600a60008373ffffffffffffffffffffffffffffffffffffffff1673ffffffffffffffffffffffffffffffffffffffff16815260200190815260200160002081905550600754600960008373ffffffffffffffffffffffffffffffffffffffff1673ffffffffffffffffffffffffffffffffffffffff168152602001908152602001600020819055505b600073ffffffffffffffffffffffffffffffffffffffff16611d8c610f8e565b73ffffffffffffffffffffffffffffffffffffffff161415611df9576040517f08c379a00000000000000000000000000000000000000000000000000000000081526004018080602001828103825260238152602001806127ea6023913960400191505060405180910390fd5b60008211611e52576040517f08c379a000000000000000000000000000000000000000000000000000000000815260040180806020018281038252602b81526020018061272b602b913960400191505060405180910390fd5b600160009054906101000a900473ffffffffffffffffffffffffffffffffffffffff1673ffffffffffffffffffffffffffffffffffffffff166323b872dd611e98610f8e565b30856040518463ffffffff1660e01b8152600401808473ffffffffffffffffffffffffffffffffffffffff1673ffffffffffffffffffffffffffffffffffffffff1681526020018373ffffffffffffffffffffffffffffffffffffffff1673ffffffffffffffffffffffffffffffffffffffff1681526020018281526020019350505050602060405180830381600087803b158015611f3657600080fd5b505af1158015611f4a573d6000803e3d6000fd5b505050506040513d6020811015611f6057600080fd5b8101908080519060200190929190505050611fc6576040517f08c379a000000000000000000000000000000000000000000000000000000000815260040180806020018281038252603381526020018061280d6033913960400191505060405180910390fd5b61201f82600b6000611fd6610f8e565b73ffffffffffffffffffffffffffffffffffffffff1673ffffffffffffffffffffffffffffffffffffffff1681526020019081526020016000205461232c90919063ffffffff16565b600b600061202b610f8e565b73ffffffffffffffffffffffffffffffffffffffff1673ffffffffffffffffffffffffffffffffffffffff1681526020019081526020016000208190555061207e8260085461232c90919063ffffffff16565b60088190555061208c610f8e565b73ffffffffffffffffffffffffffffffffffffffff167f5af417134f72a9d41143ace85b0a26dce6f550f894f2cbc1eeee8810603d91b68342604051808381526020018281526020019250505060405180910390a25050565b6120ed610f8e565b73ffffffffffffffffffffffffffffffffffffffff166000809054906101000a900473ffffffffffffffffffffffffffffffffffffffff1673ffffffffffffffffffffffffffffffffffffffff16146121ae576040517f08c379a00000000000000000000000000000000000000000000000000000000081526004018080602001828103825260208152602001807f4f776e61626c653a2063616c6c6572206973206e6f7420746865206f776e657281525060200191505060405180910390fd5b4260045410612208576040517f08c379a00000000000000000000000000000000000000000000000000000000081526004018080602001828103825260298152602001806126d06029913960400191505060405180910390fd5b8060038190555050565b600061225483836040518060400160405280601e81526020017f536166654d6174683a207375627472616374696f6e206f766572666c6f7700008152506124f8565b905092915050565b60008083141561226f57600090506122dc565b600082840290508284828161228057fe5b04146122d7576040517f08c379a00000000000000000000000000000000000000000000000000000000081526004018080602001828103825260218152602001806127566021913960400191505060405180910390fd5b809150505b92915050565b600061232483836040518060400160405280601a81526020017f536166654d6174683a206469766973696f6e206279207a65726f0000000000008152506125b8565b905092915050565b6000808284019050838110156123aa576040517f08c379a000000000000000000000000000000000000000000000000000000000815260040180806020018281038252601b8152602001807f536166654d6174683a206164646974696f6e206f766572666c6f77000000000081525060200191505060405180910390fd5b8091505092915050565b600073ffffffffffffffffffffffffffffffffffffffff168173ffffffffffffffffffffffffffffffffffffffff16141561243a576040517f08c379a00000000000000000000000000000000000000000000000000000000081526004018080602001828103825260268152602001806126aa6026913960400191505060405180910390fd5b8073ffffffffffffffffffffffffffffffffffffffff166000809054906101000a900473ffffffffffffffffffffffffffffffffffffffff1673ffffffffffffffffffffffffffffffffffffffff167f8be0079c531659141344cd1fd0a4f28419497f9722a3daafe3b4186f6b6457e060405160405180910390a3806000806101000a81548173ffffffffffffffffffffffffffffffffffffffff021916908373ffffffffffffffffffffffffffffffffffffffff16021790555050565b60008383111582906125a5576040517f08c379a00000000000000000000000000000000000000000000000000000000081526004018080602001828103825283818151815260200191508051906020019080838360005b8381101561256a57808201518184015260208101905061254f565b50505050905090810190601f1680156125975780820380516001836020036101000a031916815260200191505b509250505060405180910390fd5b5060008385039050809150509392505050565b60008083118290612664576040517f08c379a00000000000000000000000000000000000000000000000000000000081526004018080602001828103825283818151815260200191508051906020019080838360005b8381101561262957808201518184015260208101905061260e565b50505050905090810190601f1680156126565780820380516001836020036101000a031916815260200191505b509250505060405180910390fd5b50600083858161267057fe5b04905080915050939250505056fe5374616b696e673a2052657761726420697320657175616c206f72206c657373207468616e207a65726f2e4f776e61626c653a206e6577206f776e657220697320746865207a65726f20616464726573735374616b696e673a20526577617264206475726174696f6e206973206e6f742066696e69736865642e5374616b696e673a20416d6f756e742069732067726561746572207468616e20617661696c61626c652062616c616e63652e5374616b696e673a20416d6f756e7420697320657175616c206f72206c657373207468616e207a65726f2e536166654d6174683a206d756c7469706c69636174696f6e206f766572666c6f775374616b696e673a204661696c6564207472616e7366657220746f6b656e20746f2073656e6465722e5374616b696e673a2052657761726420616d6f756e742069732067726561746572207468616e20617661696c61626c65207374616b696e6720636f6e74726163742062616c616e63652e5374616b696e673a2053656e64657220697320746865207a65726f20616464726573735374616b696e673a204661696c6564207472616e7366657220746f6b656e20746f207374616b696e6720636f6e74726163742e5374616b696e673a20526577617264207261746520697320657175616c206f72206c657373207468616e207a65726f2ea265627a7a723158209786b79ae47d5a8887fb3afd1ad7d86af0daa573269304c0a8b4d342a3536e8764736f6c63430005100032",
  "source": "pragma solidity ^0.5.16;\n\nimport \"./Context.sol\";\nimport \"./IERC20.sol\";\nimport \"./IStaking.sol\";\nimport \"./Ownable.sol\";\nimport \"./SafeMath.sol\";\n\ncontract Staking is Context, IStaking, Ownable {\n    using SafeMath for uint256;\n    \n    IERC20 private _stakingToken;\n    IERC20 private _rewardToken;\n\n    uint256 private _duration;\n    uint256 private _finishedAt;\n    uint256 private _updatedAt;\n    uint256 private _rewardRate;\n    uint256 private _rewardPerTokenStored;\n    uint256 private _totalStaked;\n\n    mapping(address => uint256) private _userRewardPerTokenPaid;\n    mapping(address => uint256) private _rewards;\n    mapping(address => uint256) private _balances;\n\n    /**\n     * @param stakingToken_ Staking token contract address.\n     * @param rewardToken_ Reward token contract address.\n     */\n    constructor(address stakingToken_, address rewardToken_) public {\n        _stakingToken = IERC20(stakingToken_);\n        _rewardToken = IERC20(rewardToken_);\n    }\n\n    /**\n     * @dev Returns the erc staking token address.\n     */\n    function stakingToken() external view returns(IERC20) {\n        return _stakingToken;\n    }\n\n    /**\n     * @dev Returns the erc reward token address.\n     */\n    function rewardToken() external view returns(IERC20) {\n        return _rewardToken;\n    }\n\n    /**\n     * @dev Returns the staking duration.\n     */\n    function duration() external view returns(uint256) {\n        return _duration;\n    }\n\n    /**\n     * @dev Returns the finish timestamp.\n     */\n    function finishedAt() external view returns(uint256) {\n        return _finishedAt;\n    }\n\n    /**\n     * @dev Returns the updated at timestamp.\n     */\n    function updatedAt() external view returns(uint256) {\n        return _updatedAt;\n    }\n\n    /**\n     * @dev Returns the reward rate in wei.\n     */\n    function rewardRate() external view returns(uint256) {\n        return _rewardRate;\n    }\n\n    /**\n     * @dev Returns the reward rate per token stored in wei.\n     */\n    function rewardPerTokenStored() external view returns(uint256) {\n        return _rewardPerTokenStored;\n    }\n\n    /**\n     * @dev Returns the total staked tokens in wei.\n     */\n    function totalStaked() external view returns(uint256) {\n        return _totalStaked;\n    }\n\n    /**\n     * @dev See {ERC20-balanceOf}.\n     */\n    function balanceOf(address account) external view returns(uint256) {\n        return _balances[account];\n    }\n\n    /**\n     * @dev Update reward every contract called.\n     *\n     * @param _account address.\n     */\n    modifier updateReward(address _account) {\n        _rewardPerTokenStored = rewardPerToken();\n        _updatedAt = lastTimeRewardApplicable();\n\n        if (_account != address(0)) {\n            _rewards[_account] = earned();\n            _userRewardPerTokenPaid[_account] = _rewardPerTokenStored;\n        }\n\n        _;\n    }\n\n    /**\n     * @param x First param.\n     * @param y Second param.\n     * @return uint256 Returns min value.\n     */\n    function _min(uint256 x, uint256 y) private pure returns (uint256) {\n        return x <= y ? x : y;\n    }\n\n    /**\n     * @dev Last time reward applicable.\n     *\n     * @return uint256 Returns min value between finished at and block timestamp.\n     */\n    function lastTimeRewardApplicable() public view returns (uint256) {\n        return _min(_finishedAt, block.timestamp);\n    }\n\n    /**\n     * @dev Amount of reward per token staked.\n     *\n     * @return uint256 Returns calculated reward per token.\n     */\n    function rewardPerToken() public view returns (uint256) {\n        if (_totalStaked == 0) return _rewardPerTokenStored;\n\n        return _rewardPerTokenStored + (\n            _rewardRate * (\n                lastTimeRewardApplicable().sub(_updatedAt)\n            ) * 1e18\n        ) / _totalStaked;\n    }\n\n    /**\n     * @dev Total token has been earned.\n     *\n     * @return uint256 Returns sender total earned.\n     */\n    function earned() public view returns (uint256) {\n        return (\n            (\n                _balances[_msgSender()].mul(\n                    (\n                        rewardPerToken().sub(_userRewardPerTokenPaid[_msgSender()])\n                    )\n                )\n            ).div(1e18)\n        ).add(_rewards[_msgSender()]);\n    }\n\n    /**\n     * @dev Transfers tokens from `buyer` to `staking` contract.\n     *\n     * @param amount Amount of token to stake.\n     */\n    function stake(uint256 amount) external updateReward(_msgSender()) returns(bool) {\n        _stake(amount);\n        return true;\n    }\n\n    /**\n     * @dev Transfers tokens from `staking` contract to `buyer`.\n     *\n     * @param amount Amount of token to withdraw.\n     */\n    function withdraw(uint256 amount) external updateReward(_msgSender()) returns(bool) {\n        _withdraw(amount);\n        return true;\n    }\n\n    /**\n     * @dev Claim the token rewards.\n     */\n    function claim() external updateReward(_msgSender()) returns(bool) {\n        _claim();\n        return true;\n    }\n\n    /**\n     * @dev Set staking reward duration.\n     *\n     * @param duration_ Duration of rewards to be paid out in seconds.\n     */\n    function setRewardDuration(uint256 duration_) external onlyOwner returns(bool) {\n        _setRewardDuration(duration_);\n        return true;\n    }\n\n    /**\n     * @dev Start the rewards.\n     *\n     * @param amount Amount of token to be set as reward.\n     */\n    function notifyRewardAmount(uint256 amount) external onlyOwner updateReward(address(0)) returns(bool) {\n        _notifyRewardAmount(amount);\n        return true;\n    }\n\n    /**\n     * @dev Transfers tokens from `buyer` to `staking` contract.\n     *\n     * @param amount Amount of token to stake.\n     */\n    function _stake(uint256 amount) internal updateReward(_msgSender()) {\n        require(_msgSender() != address(0), \"Staking: Sender is the zero address\");\n        require(amount > 0, \"Staking: Amount is equal or less than zero.\");\n        require(_stakingToken.transferFrom(_msgSender(), address(this), amount), \"Staking: Failed transfer token to staking contract.\");\n        _balances[_msgSender()] = _balances[_msgSender()].add(amount);\n        _totalStaked = _totalStaked.add(amount);\n        emit Stake(_msgSender(), amount, block.timestamp);\n    }\n\n    /**\n     * @dev Transfers tokens from `staking` contract to `buyer`.\n     *\n     * @param amount Amount of token to withdraw.\n     */\n    function _withdraw(uint256 amount) internal updateReward(_msgSender()) {\n        require(_msgSender() != address(0), \"Staking: Sender is the zero address\");\n        require(amount > 0, \"Staking: Amount is equal or less than zero.\");\n        require(amount <= _balances[_msgSender()], \"Staking: Amount is greater than available balance.\");\n        require(_stakingToken.transfer(_msgSender(), amount), \"Staking: Failed transfer token to sender.\");\n        _balances[_msgSender()] = _balances[_msgSender()].sub(amount);\n        _totalStaked = _totalStaked.sub(amount);\n        emit Withdraw(_msgSender(), amount, block.timestamp);\n    }\n\n    /**\n     * @dev Claim the token rewards.\n     */\n    function _claim() internal updateReward(_msgSender()) {\n        require(_msgSender() != address(0), \"Staking: Sender is the zero address\");\n        uint256 reward = _rewards[_msgSender()];\n        require(reward > 0, \"Staking: Reward is equal or less than zero.\");\n        require(_rewardToken.transfer(_msgSender(), reward), \"Staking: Failed transfer token to sender.\");\n        _rewards[_msgSender()] = 0;\n        emit Claim(_msgSender(), reward, block.timestamp);\n    }\n\n    /**\n     * @dev Set staking reward duration.\n     *\n     * @param duration_ Duration of rewards to be paid out in seconds.\n     */\n    function _setRewardDuration(uint256 duration_) internal onlyOwner {\n        require(_finishedAt < block.timestamp, \"Staking: Reward duration is not finished.\");\n        _duration = duration_;\n    }\n\n    /**\n     * @dev Start the rewards.\n     *\n     * @param amount Amount of token to be set as reward.\n     */\n    function _notifyRewardAmount(uint256 amount) internal onlyOwner updateReward(address(0)) {\n        if (block.timestamp > _finishedAt) {\n            _rewardRate = amount.div(_duration);\n        } else {\n            uint256 remainingRewards = (_finishedAt.sub(block.timestamp)).mul(_rewardRate);\n            _rewardRate = (amount.add(remainingRewards)).div(_duration);\n        }\n\n        require(_rewardRate > 0, \"Staking: Reward rate is equal or less than zero.\");\n        require(_rewardRate.mul(_duration) <= _rewardToken.balanceOf(address(this)), \"Staking: Reward amount is greater than available staking contract balance.\");\n\n        _finishedAt = block.timestamp.add(_duration);\n        _updatedAt = block.timestamp;\n    }\n}\n",
  "sourcePath": "/home/havea/Projects/emotion/contracts/Staking.sol",
  "compiler": {
    "name": "solc",
    "version": "0.5.16+commit.9c3226ce.Emscripten.clang"
  },
  "schemaVersion": "3.4.16",
  "updatedAt": "2024-12-17T10:23:51.031Z",
  "networkType": "ethereum",
  "devdoc": {
    "methods": {
      "balanceOf(address)": {
        "details": "See {ERC20-balanceOf}."
      },
      "claim()": {
        "details": "Claim the token rewards."
      },
      "constructor": {
        "params": {
          "rewardToken_": "Reward token contract address.",
          "stakingToken_": "Staking token contract address."
        }
      },
      "duration()": {
        "details": "Returns the staking duration."
      },
      "earned()": {
        "details": "Total token has been earned.",
        "return": "uint256 Returns sender total earned."
      },
      "finishedAt()": {
        "details": "Returns the finish timestamp."
      },
      "lastTimeRewardApplicable()": {
        "details": "Last time reward applicable.",
        "return": "uint256 Returns min value between finished at and block timestamp."
      },
      "notifyRewardAmount(uint256)": {
        "details": "Start the rewards.",
        "params": {
          "amount": "Amount of token to be set as reward."
        }
      },
      "owner()": {
        "details": "Returns the address of the current owner."
      },
      "renounceOwnership()": {
        "details": "Leaves the contract without owner. It will not be possible to call `onlyOwner` functions anymore. Can only be called by the current owner.     * NOTE: Renouncing ownership will leave the contract without an owner, thereby removing any functionality that is only available to the owner."
      },
      "rewardPerToken()": {
        "details": "Amount of reward per token staked.",
        "return": "uint256 Returns calculated reward per token."
      },
      "rewardPerTokenStored()": {
        "details": "Returns the reward rate per token stored in wei."
      },
      "rewardRate()": {
        "details": "Returns the reward rate in wei."
      },
      "rewardToken()": {
        "details": "Returns the erc reward token address."
      },
      "setRewardDuration(uint256)": {
        "details": "Set staking reward duration.",
        "params": {
          "duration_": "Duration of rewards to be paid out in seconds."
        }
      },
      "stake(uint256)": {
        "details": "Transfers tokens from `buyer` to `staking` contract.",
        "params": {
          "amount": "Amount of token to stake."
        }
      },
      "stakingToken()": {
        "details": "Returns the erc staking token address."
      },
      "totalStaked()": {
        "details": "Returns the total staked tokens in wei."
      },
      "transferOwnership(address)": {
        "details": "Transfers ownership of the contract to a new account (`newOwner`). Can only be called by the current owner."
      },
      "updatedAt()": {
        "details": "Returns the updated at timestamp."
      },
      "withdraw(uint256)": {
        "details": "Transfers tokens from `staking` contract to `buyer`.",
        "params": {
          "amount": "Amount of token to withdraw."
        }
      }
    }
  },
  "userdoc": {
    "methods": {}
  }
}